{
  "_format": "hh-sol-artifact-1",
  "contractName": "CreditScoreRegistry",
  "sourceName": "contracts/CreditScoreRegistry.sol",
  "abi": [
    {
      "inputs": [
        {
          "internalType": "address",
          "name": "_admin",
          "type": "address"
        },
        {
          "internalType": "address",
          "name": "_oracle",
          "type": "address"
        }
      ],
      "stateMutability": "nonpayable",
      "type": "constructor"
    },
    {
      "inputs": [],
      "name": "AccessControlBadConfirmation",
      "type": "error"
    },
    {
      "inputs": [
        {
          "internalType": "address",
          "name": "account",
          "type": "address"
        },
        {
          "internalType": "bytes32",
          "name": "neededRole",
          "type": "bytes32"
        }
      ],
      "name": "AccessControlUnauthorizedAccount",
      "type": "error"
    },
    {
      "anonymous": false,
      "inputs": [
        {
          "indexed": true,
          "internalType": "bytes32",
          "name": "role",
          "type": "bytes32"
        },
        {
          "indexed": true,
          "internalType": "bytes32",
          "name": "previousAdminRole",
          "type": "bytes32"
        },
        {
          "indexed": true,
          "internalType": "bytes32",
          "name": "newAdminRole",
          "type": "bytes32"
        }
      ],
      "name": "RoleAdminChanged",
      "type": "event"
    },
    {
      "anonymous": false,
      "inputs": [
        {
          "indexed": true,
          "internalType": "bytes32",
          "name": "role",
          "type": "bytes32"
        },
        {
          "indexed": true,
          "internalType": "address",
          "name": "account",
          "type": "address"
        },
        {
          "indexed": true,
          "internalType": "address",
          "name": "sender",
          "type": "address"
        }
      ],
      "name": "RoleGranted",
      "type": "event"
    },
    {
      "anonymous": false,
      "inputs": [
        {
          "indexed": true,
          "internalType": "bytes32",
          "name": "role",
          "type": "bytes32"
        },
        {
          "indexed": true,
          "internalType": "address",
          "name": "account",
          "type": "address"
        },
        {
          "indexed": true,
          "internalType": "address",
          "name": "sender",
          "type": "address"
        }
      ],
      "name": "RoleRevoked",
      "type": "event"
    },
    {
      "anonymous": false,
      "inputs": [
        {
          "indexed": true,
          "internalType": "address",
          "name": "member",
          "type": "address"
        },
        {
          "indexed": false,
          "internalType": "uint16",
          "name": "score",
          "type": "uint16"
        },
        {
          "indexed": false,
          "internalType": "string",
          "name": "riskBand",
          "type": "string"
        },
        {
          "indexed": false,
          "internalType": "bytes32",
          "name": "modelVersion",
          "type": "bytes32"
        },
        {
          "indexed": false,
          "internalType": "uint256",
          "name": "timestamp",
          "type": "uint256"
        }
      ],
      "name": "ScoreRecorded",
      "type": "event"
    },
    {
      "inputs": [],
      "name": "DEFAULT_ADMIN_ROLE",
      "outputs": [
        {
          "internalType": "bytes32",
          "name": "",
          "type": "bytes32"
        }
      ],
      "stateMutability": "view",
      "type": "function"
    },
    {
      "inputs": [],
      "name": "ML_ORACLE_ROLE",
      "outputs": [
        {
          "internalType": "bytes32",
          "name": "",
          "type": "bytes32"
        }
      ],
      "stateMutability": "view",
      "type": "function"
    },
    {
      "inputs": [
        {
          "internalType": "address",
          "name": "member",
          "type": "address"
        }
      ],
      "name": "getLatestScore",
      "outputs": [
        {
          "internalType": "uint16",
          "name": "score",
          "type": "uint16"
        },
        {
          "internalType": "string",
          "name": "riskBand",
          "type": "string"
        }
      ],
      "stateMutability": "view",
      "type": "function"
    },
    {
      "inputs": [
        {
          "internalType": "bytes32",
          "name": "role",
          "type": "bytes32"
        }
      ],
      "name": "getRoleAdmin",
      "outputs": [
        {
          "internalType": "bytes32",
          "name": "",
          "type": "bytes32"
        }
      ],
      "stateMutability": "view",
      "type": "function"
    },
    {
      "inputs": [
        {
          "internalType": "address",
          "name": "member",
          "type": "address"
        }
      ],
      "name": "getScoreCount",
      "outputs": [
        {
          "internalType": "uint256",
          "name": "",
          "type": "uint256"
        }
      ],
      "stateMutability": "view",
      "type": "function"
    },
    {
      "inputs": [
        {
          "internalType": "address",
          "name": "member",
          "type": "address"
        }
      ],
      "name": "getScoreHistory",
      "outputs": [
        {
          "components": [
            {
              "internalType": "uint16",
              "name": "score",
              "type": "uint16"
            },
            {
              "internalType": "string",
              "name": "riskBand",
              "type": "string"
            },
            {
              "internalType": "uint256",
              "name": "timestamp",
              "type": "uint256"
            },
            {
              "internalType": "bytes32",
              "name": "modelVersion",
              "type": "bytes32"
            }
          ],
          "internalType": "struct CreditScoreRegistry.ScoreEntry[]",
          "name": "",
          "type": "tuple[]"
        }
      ],
      "stateMutability": "view",
      "type": "function"
    },
    {
      "inputs": [
        {
          "internalType": "bytes32",
          "name": "role",
          "type": "bytes32"
        },
        {
          "internalType": "address",
          "name": "account",
          "type": "address"
        }
      ],
      "name": "grantRole",
      "outputs": [],
      "stateMutability": "nonpayable",
      "type": "function"
    },
    {
      "inputs": [
        {
          "internalType": "bytes32",
          "name": "role",
          "type": "bytes32"
        },
        {
          "internalType": "address",
          "name": "account",
          "type": "address"
        }
      ],
      "name": "hasRole",
      "outputs": [
        {
          "internalType": "bool",
          "name": "",
          "type": "bool"
        }
      ],
      "stateMutability": "view",
      "type": "function"
    },
    {
      "inputs": [
        {
          "internalType": "address",
          "name": "",
          "type": "address"
        }
      ],
      "name": "latestScore",
      "outputs": [
        {
          "internalType": "uint16",
          "name": "score",
          "type": "uint16"
        },
        {
          "internalType": "string",
          "name": "riskBand",
          "type": "string"
        },
        {
          "internalType": "uint256",
          "name": "timestamp",
          "type": "uint256"
        },
        {
          "internalType": "bytes32",
          "name": "modelVersion",
          "type": "bytes32"
        }
      ],
      "stateMutability": "view",
      "type": "function"
    },
    {
      "inputs": [
        {
          "internalType": "address",
          "name": "member",
          "type": "address"
        },
        {
          "internalType": "uint16",
          "name": "score",
          "type": "uint16"
        },
        {
          "internalType": "string",
          "name": "riskBand",
          "type": "string"
        },
        {
          "internalType": "bytes32",
          "name": "modelVer",
          "type": "bytes32"
        }
      ],
      "name": "recordScore",
      "outputs": [],
      "stateMutability": "nonpayable",
      "type": "function"
    },
    {
      "inputs": [
        {
          "internalType": "bytes32",
          "name": "role",
          "type": "bytes32"
        },
        {
          "internalType": "address",
          "name": "callerConfirmation",
          "type": "address"
        }
      ],
      "name": "renounceRole",
      "outputs": [],
      "stateMutability": "nonpayable",
      "type": "function"
    },
    {
      "inputs": [
        {
          "internalType": "bytes32",
          "name": "role",
          "type": "bytes32"
        },
        {
          "internalType": "address",
          "name": "account",
          "type": "address"
        }
      ],
      "name": "revokeRole",
      "outputs": [],
      "stateMutability": "nonpayable",
      "type": "function"
    },
    {
      "inputs": [
        {
          "internalType": "bytes4",
          "name": "interfaceId",
          "type": "bytes4"
        }
      ],
      "name": "supportsInterface",
      "outputs": [
        {
          "internalType": "bool",
          "name": "",
          "type": "bool"
        }
      ],
      "stateMutability": "view",
      "type": "function"
    },
    {
      "inputs": [],
      "name": "totalEntries",
      "outputs": [
        {
          "internalType": "uint256",
          "name": "",
          "type": "uint256"
        }
      ],
      "stateMutability": "view",
      "type": "function"
    }
  ],
  "bytecode": "0x608060405234801561001057600080fd5b50604051610f4e380380610f4e83398101604081905261002f91610135565b61003a60008361006d565b506100657f3e294dfe80b06586f68038047efb0b99fadf4d683275ef46c2843724f2832c8d8261006d565b505050610168565b6000828152602081815260408083206001600160a01b038516845290915281205460ff1661010f576000838152602081815260408083206001600160a01b03861684529091529020805460ff191660011790556100c73390565b6001600160a01b0316826001600160a01b0316847f2f8788117e7eff1d82e926ec794901d17c78024a50270940304540a733656f0d60405160405180910390a4506001610113565b5060005b92915050565b80516001600160a01b038116811461013057600080fd5b919050565b6000806040838503121561014857600080fd5b61015183610119565b915061015f60208401610119565b90509250929050565b610dd7806101776000396000f3fe608060405234801561001057600080fd5b50600436106100ea5760003560e01c80637946f9b11161008c57806391d148541161006657806391d148541461022d578063a217fddf14610240578063d3a87a8514610248578063d547741f1461025b57600080fd5b80637946f9b1146101d85780637fef036e146102015780638de497c71461020a57600080fd5b806336568abe116100c857806336568abe1461015d5780635bed5604146101705780635ef172631461019057806360edc273146101b757600080fd5b806301ffc9a7146100ef578063248a9ca3146101175780632f2ff15d14610148575b600080fd5b6101026100fd366004610957565b61026e565b60405190151581526020015b60405180910390f35b61013a610125366004610988565b60009081526020819052604090206001015490565b60405190815260200161010e565b61015b6101563660046109bd565b6102a5565b005b61015b61016b3660046109bd565b6102d0565b61018361017e3660046109e9565b610308565b60405161010e9190610a4a565b61013a7f3e294dfe80b06586f68038047efb0b99fadf4d683275ef46c2843724f2832c8d81565b6101ca6101c53660046109e9565b610434565b60405161010e929190610adb565b61013a6101e63660046109e9565b6001600160a01b031660009081526001602052604090205490565b61013a60035481565b61021d6102183660046109e9565b6104f3565b60405161010e9493929190610b00565b61010261023b3660046109bd565b6105a9565b61013a600081565b61015b610256366004610b30565b6105d2565b61015b6102693660046109bd565b6107eb565b60006001600160e01b03198216637965db0b60e01b148061029f57506301ffc9a760e01b6001600160e01b03198316145b92915050565b6000828152602081905260409020600101546102c081610810565b6102ca838361081d565b50505050565b6001600160a01b03811633146102f95760405163334bd91960e11b815260040160405180910390fd5b61030382826108af565b505050565b6001600160a01b0381166000908152600160209081526040808320805482518185028101850190935280835260609492939192909184015b82821015610429576000848152602090819020604080516080810190915260048502909101805461ffff168252600181018054929391929184019161038490610bcf565b80601f01602080910402602001604051908101604052809291908181526020018280546103b090610bcf565b80156103fd5780601f106103d2576101008083540402835291602001916103fd565b820191906000526020600020905b8154815290600101906020018083116103e057829003601f168201915b505050505081526020016002820154815260200160038201548152505081526020019060010190610340565b505050509050919050565b6001600160a01b038116600090815260026020526040812080546001820180546060939261ffff169190819061046990610bcf565b80601f016020809104026020016040519081016040528092919081815260200182805461049590610bcf565b80156104e25780601f106104b7576101008083540402835291602001916104e2565b820191906000526020600020905b8154815290600101906020018083116104c557829003601f168201915b505050505090509250925050915091565b6002602052600090815260409020805460018201805461ffff909216929161051a90610bcf565b80601f016020809104026020016040519081016040528092919081815260200182805461054690610bcf565b80156105935780601f1061056857610100808354040283529160200191610593565b820191906000526020600020905b81548152906001019060200180831161057657829003601f168201915b5050505050908060020154908060030154905084565b6000918252602082815260408084206001600160a01b0393909316845291905290205460ff1690565b7f3e294dfe80b06586f68038047efb0b99fadf4d683275ef46c2843724f2832c8d6105fc81610810565b61012c8561ffff161015801561061857506103848561ffff1611155b61065e5760405162461bcd60e51b815260206004820152601260248201527153636f7265206f7574206f662072616e676560701b60448201526064015b60405180910390fd5b600060405180608001604052808761ffff16815260200186868080601f016020809104026020016040519081016040528093929190818152602001838380828437600092018290525093855250504260208085019190915260409384018890526001600160a01b038c168352600180825293832080548086018255908452928190208551600490940201805461ffff191661ffff90941693909317835584015193945084939192830191610713915082610c6f565b506040828101516002838101919091556060909301516003909201919091556001600160a01b03891660009081526020928352208251815461ffff191661ffff90911617815590820151829190600182019061076f9082610c6f565b5060408201516002820155606090910151600391820155805490600061079483610d2f565b9190505550866001600160a01b03167f1d241509ef188bba5148eaaa787fa6bb0285352c5660234520b5c08647e4b67287878787426040516107da959493929190610d56565b60405180910390a250505050505050565b60008281526020819052604090206001015461080681610810565b6102ca83836108af565b61081a813361091a565b50565b600061082983836105a9565b6108a7576000838152602081815260408083206001600160a01b03861684529091529020805460ff1916600117905561085f3390565b6001600160a01b0316826001600160a01b0316847f2f8788117e7eff1d82e926ec794901d17c78024a50270940304540a733656f0d60405160405180910390a450600161029f565b50600061029f565b60006108bb83836105a9565b156108a7576000838152602081815260408083206001600160a01b0386168085529252808320805460ff1916905551339286917ff6391f5c32d9c69d2a47ea670b442974b53935d1edc7fd64eb21e047a839171b9190a450600161029f565b61092482826105a9565b6109535760405163e2517d3f60e01b81526001600160a01b038216600482015260248101839052604401610655565b5050565b60006020828403121561096957600080fd5b81356001600160e01b03198116811461098157600080fd5b9392505050565b60006020828403121561099a57600080fd5b5035919050565b80356001600160a01b03811681146109b857600080fd5b919050565b600080604083850312156109d057600080fd5b823591506109e0602084016109a1565b90509250929050565b6000602082840312156109fb57600080fd5b610981826109a1565b6000815180845260005b81811015610a2a57602081850181015186830182015201610a0e565b506000602082860101526020601f19601f83011685010191505092915050565b600060208083018184528085518083526040925060408601915060408160051b87010184880160005b83811015610acd57603f198984030185528151608061ffff825116855288820151818a870152610aa582870182610a04565b838a0151878b0152606093840151939096019290925250509386019390860190600101610a73565b509098975050505050505050565b61ffff83168152604060208201526000610af86040830184610a04565b949350505050565b61ffff85168152608060208201526000610b1d6080830186610a04565b6040830194909452506060015292915050565b600080600080600060808688031215610b4857600080fd5b610b51866109a1565b9450602086013561ffff81168114610b6857600080fd5b9350604086013567ffffffffffffffff80821115610b8557600080fd5b818801915088601f830112610b9957600080fd5b813581811115610ba857600080fd5b896020828501011115610bba57600080fd5b96999598505060200195606001359392505050565b600181811c90821680610be357607f821691505b602082108103610c0357634e487b7160e01b600052602260045260246000fd5b50919050565b634e487b7160e01b600052604160045260246000fd5b601f821115610303576000816000526020600020601f850160051c81016020861015610c485750805b601f850160051c820191505b81811015610c6757828155600101610c54565b505050505050565b815167ffffffffffffffff811115610c8957610c89610c09565b610c9d81610c978454610bcf565b84610c1f565b602080601f831160018114610cd25760008415610cba5750858301515b600019600386901b1c1916600185901b178555610c67565b600085815260208120601f198616915b82811015610d0157888601518255948401946001909101908401610ce2565b5085821015610d1f5787850151600019600388901b60f8161c191681555b5050505050600190811b01905550565b600060018201610d4f57634e487b7160e01b600052601160045260246000fd5b5060010190565b61ffff8616815260806020820152836080820152838560a0830137600060a08583010152600060a0601f19601f8701168301019050836040830152826060830152969550505050505056fea26469706673582212202c7172c28ca52d208a03cf8d29a6b9a4ee2b56260a4fa705493433217026157e64736f6c63430008180033",
  "linkReferences": {},
  "deployedLinkReferences": {}
}