{"contracts/LoanManager.sol":{"LoanManager":{"abi":[{"inputs":[{"internalType":"address","name":"_backend","type":"address"},{"internalType":"uint256","name":"_approvalQuorum","type":"uint256"}],"stateMutability":"nonpayable","type":"constructor"},{"inputs":[],"name":"AccessControlBadConfirmation","type":"error"},{"inputs":[{"internalType":"address","name":"account","type":"address"},{"internalType":"bytes32","name":"neededRole","type":"bytes32"}],"name":"AccessControlUnauthorizedAccount","type":"error"},{"inputs":[{"internalType":"uint256","name":"loanId","type":"uint256"}],"name":"AllEmisPaid","type":"error"},{"inputs":[{"internalType":"uint256","name":"loanId","type":"uint256"},{"internalType":"address","name":"approver","type":"address"}],"name":"AlreadyApproved","type":"error"},{"inputs":[],"name":"EnforcedPause","type":"error"},{"inputs":[],"name":"ExpectedPause","type":"error"},{"inputs":[{"internalType":"uint256","name":"loanId","type":"uint256"},{"internalType":"enum LoanManager.LoanStatus","name":"expected","type":"uint8"},{"internalType":"enum LoanManager.LoanStatus","name":"actual","type":"uint8"}],"name":"InvalidLoanStatus","type":"error"},{"inputs":[{"internalType":"uint256","name":"loanId","type":"uint256"}],"name":"LoanNotFound","type":"error"},{"inputs":[{"internalType":"uint256","name":"loanId","type":"uint256"}],"name":"LoanNotOverdue","type":"error"},{"inputs":[],"name":"ReentrancyGuardReentrantCall","type":"error"},{"inputs":[],"name":"ZeroAmount","type":"error"},{"inputs":[],"name":"ZeroTenure","type":"error"},{"anonymous":false,"inputs":[{"indexed":true,"internalType":"uint256","name":"loanId","type":"uint256"},{"indexed":false,"internalType":"uint256","name":"emiNumber","type":"uint256"},{"indexed":false,"internalType":"uint256","name":"emiAmountPaise","type":"uint256"},{"indexed":false,"internalType":"bytes32","name":"upiRef","type":"bytes32"},{"indexed":false,"internalType":"uint256","name":"timestamp","type":"uint256"}],"name":"EmiPaid","type":"event"},{"anonymous":false,"inputs":[{"indexed":true,"internalType":"uint256","name":"loanId","type":"uint256"},{"indexed":true,"internalType":"address","name":"approver","type":"address"},{"indexed":false,"internalType":"uint256","name":"approvalCount","type":"uint256"},{"indexed":false,"internalType":"uint256","name":"timestamp","type":"uint256"}],"name":"LoanApprovedByLeader","type":"event"},{"anonymous":false,"inputs":[{"indexed":true,"internalType":"uint256","name":"loanId","type":"uint256"},{"indexed":true,"internalType":"address","name":"borrower","type":"address"},{"indexed":false,"internalType":"uint256","name":"principalPaise","type":"uint256"},{"indexed":false,"internalType":"uint256","name":"interestRateBps","type":"uint256"},{"indexed":false,"internalType":"uint256","name":"tenureMonths","type":"uint256"},{"indexed":false,"internalType":"uint256","name":"emiAmountPaise","type":"uint256"},{"indexed":false,"internalType":"uint256","name":"timestamp","type":"uint256"}],"name":"LoanCreated","type":"event"},{"anonymous":false,"inputs":[{"indexed":true,"internalType":"uint256","name":"loanId","type":"uint256"},{"indexed":true,"internalType":"address","name":"borrower","type":"address"},{"indexed":false,"internalType":"uint256","name":"overdueBy","type":"uint256"},{"indexed":false,"internalType":"uint256","name":"timestamp","type":"uint256"}],"name":"LoanDefaulted","type":"event"},{"anonymous":false,"inputs":[{"indexed":true,"internalType":"uint256","name":"loanId","type":"uint256"},{"indexed":true,"internalType":"address","name":"borrower","type":"address"},{"indexed":false,"internalType":"uint256","name":"principalPaise","type":"uint256"},{"indexed":false,"internalType":"bytes32","name":"txRef","type":"bytes32"},{"indexed":false,"internalType":"uint256","name":"timestamp","type":"uint256"}],"name":"LoanDisbursed","type":"event"},{"anonymous":false,"inputs":[{"indexed":true,"internalType":"uint256","name":"loanId","type":"uint256"},{"indexed":false,"internalType":"uint256","name":"timestamp","type":"uint256"}],"name":"LoanFullyApproved","type":"event"},{"anonymous":false,"inputs":[{"indexed":true,"internalType":"uint256","name":"loanId","type":"uint256"},{"indexed":true,"internalType":"address","name":"borrower","type":"address"},{"indexed":false,"internalType":"uint256","name":"timestamp","type":"uint256"}],"name":"LoanRepaid","type":"event"},{"anonymous":false,"inputs":[{"indexed":false,"internalType":"address","name":"account","type":"address"}],"name":"Paused","type":"event"},{"anonymous":false,"inputs":[{"indexed":true,"internalType":"bytes32","name":"role","type":"bytes32"},{"indexed":true,"internalType":"bytes32","name":"previousAdminRole","type":"bytes32"},{"indexed":true,"internalType":"bytes32","name":"newAdminRole","type":"bytes32"}],"name":"RoleAdminChanged","type":"event"},{"anonymous":false,"inputs":[{"indexed":true,"internalType":"bytes32","name":"role","type":"bytes32"},{"indexed":true,"internalType":"address","name":"account","type":"address"},{"indexed":true,"internalType":"address","name":"sender","type":"address"}],"name":"RoleGranted","type":"event"},{"anonymous":false,"inputs":[{"indexed":true,"internalType":"bytes32","name":"role","type":"bytes32"},{"indexed":true,"internalType":"address","name":"account","type":"address"},{"indexed":true,"internalType":"address","name":"sender","type":"address"}],"name":"RoleRevoked","type":"event"},{"anonymous":false,"inputs":[{"indexed":false,"internalType":"address","name":"account","type":"address"}],"name":"Unpaused","type":"event"},{"inputs":[],"name":"BACKEND_ROLE","outputs":[{"internalType":"bytes32","name":"","type":"bytes32"}],"stateMutability":"view","type":"function"},{"inputs":[],"name":"DEFAULT_ADMIN_ROLE","outputs":[{"internalType":"bytes32","name":"","type":"bytes32"}],"stateMutability":"view","type":"function"},{"inputs":[],"name":"GROUP_LEADER_ROLE","outputs":[{"internalType":"bytes32","name":"","type":"bytes32"}],"stateMutability":"view","type":"function"},{"inputs":[{"internalType":"address","name":"leader","type":"address"}],"name":"addGroupLeader","outputs":[],"stateMutability":"nonpayable","type":"function"},{"inputs":[],"name":"approvalQuorum","outputs":[{"internalType":"uint256","name":"","type":"uint256"}],"stateMutability":"view","type":"function"},{"inputs":[{"internalType":"uint256","name":"loanId","type":"uint256"}],"name":"approveLoan","outputs":[],"stateMutability":"nonpayable","type":"function"},{"inputs":[{"internalType":"address","name":"","type":"address"},{"internalType":"uint256","name":"","type":"uint256"}],"name":"borrowerLoans","outputs":[{"internalType":"uint256","name":"","type":"uint256"}],"stateMutability":"view","type":"function"},{"inputs":[{"internalType":"uint256","name":"loanId","type":"uint256"}],"name":"checkDefault","outputs":[],"stateMutability":"nonpayable","type":"function"},{"inputs":[{"internalType":"address","name":"borrower","type":"address"},{"internalType":"uint256","name":"principalPaise","type":"uint256"},{"internalType":"uint256","name":"interestRateBps","type":"uint256"},{"internalType":"uint256","name":"tenureMonths","type":"uint256"},{"internalType":"bytes32","name":"shgPoolId","type":"bytes32"}],"name":"createLoan","outputs":[{"internalType":"uint256","name":"loanId","type":"uint256"}],"stateMutability":"nonpayable","type":"function"},{"inputs":[{"internalType":"address","name":"borrower","type":"address"}],"name":"getBorrowerLoans","outputs":[{"internalType":"uint256[]","name":"","type":"uint256[]"}],"stateMutability":"view","type":"function"},{"inputs":[{"internalType":"uint256","name":"loanId","type":"uint256"}],"name":"getLoan","outputs":[{"internalType":"address","name":"borrower","type":"address"},{"internalType":"bytes32","name":"shgPoolId","type":"bytes32"},{"internalType":"uint256","name":"principalPaise","type":"uint256"},{"internalType":"uint256","name":"interestRateBps","type":"uint256"},{"internalType":"uint256","name":"emiAmountPaise","type":"uint256"},{"internalType":"uint256","name":"tenureMonths","type":"uint256"},{"internalType":"uint256","name":"disbursedAt","type":"uint256"},{"internalType":"uint256","name":"nextEmiDueAt","type":"uint256"},{"internalType":"uint256","name":"emisPaid","type":"uint256"},{"internalType":"enum LoanManager.LoanStatus","name":"status","type":"uint8"},{"internalType":"bytes32","name":"disbursalTxRef","type":"bytes32"}],"stateMutability":"view","type":"function"},{"inputs":[{"internalType":"bytes32","name":"role","type":"bytes32"}],"name":"getRoleAdmin","outputs":[{"internalType":"bytes32","name":"","type":"bytes32"}],"stateMutability":"view","type":"function"},{"inputs":[{"internalType":"bytes32","name":"role","type":"bytes32"},{"internalType":"address","name":"account","type":"address"}],"name":"grantRole","outputs":[],"stateMutability":"nonpayable","type":"function"},{"inputs":[{"internalType":"bytes32","name":"role","type":"bytes32"},{"internalType":"address","name":"account","type":"address"}],"name":"hasRole","outputs":[{"internalType":"bool","name":"","type":"bool"}],"stateMutability":"view","type":"function"},{"inputs":[{"internalType":"uint256","name":"","type":"uint256"}],"name":"loanApprovalCount","outputs":[{"internalType":"uint256","name":"","type":"uint256"}],"stateMutability":"view","type":"function"},{"inputs":[{"internalType":"uint256","name":"","type":"uint256"},{"internalType":"address","name":"","type":"address"}],"name":"loanApprovals","outputs":[{"internalType":"bool","name":"","type":"bool"}],"stateMutability":"view","type":"function"},{"inputs":[],"name":"loanCounter","outputs":[{"internalType":"uint256","name":"","type":"uint256"}],"stateMutability":"view","type":"function"},{"inputs":[{"internalType":"uint256","name":"","type":"uint256"}],"name":"loans","outputs":[{"internalType":"uint256","name":"id","type":"uint256"},{"internalType":"address","name":"borrower","type":"address"},{"internalType":"bytes32","name":"shgPoolId","type":"bytes32"},{"internalType":"uint256","name":"principalPaise","type":"uint256"},{"internalType":"uint256","name":"interestRateBps","type":"uint256"},{"internalType":"uint256","name":"emiAmountPaise","type":"uint256"},{"internalType":"uint256","name":"tenureMonths","type":"uint256"},{"internalType":"uint256","name":"disbursedAt","type":"uint256"},{"internalType":"uint256","name":"nextEmiDueAt","type":"uint256"},{"internalType":"uint256","name":"emisPaid","type":"uint256"},{"internalType":"enum LoanManager.LoanStatus","name":"status","type":"uint8"},{"internalType":"bytes32","name":"disbursalTxRef","type":"bytes32"}],"stateMutability":"view","type":"function"},{"inputs":[{"internalType":"uint256","name":"loanId","type":"uint256"},{"internalType":"bytes32","name":"txRef","type":"bytes32"}],"name":"markDisbursed","outputs":[],"stateMutability":"nonpayable","type":"function"},{"inputs":[{"internalType":"uint256","name":"loanId","type":"uint256"},{"internalType":"bytes32","name":"upiRef","type":"bytes32"}],"name":"markEmiPaid","outputs":[],"stateMutability":"nonpayable","type":"function"},{"inputs":[],"name":"pause","outputs":[],"stateMutability":"nonpayable","type":"function"},{"inputs":[],"name":"paused","outputs":[{"internalType":"bool","name":"","type":"bool"}],"stateMutability":"view","type":"function"},{"inputs":[{"internalType":"address","name":"leader","type":"address"}],"name":"removeGroupLeader","outputs":[],"stateMutability":"nonpayable","type":"function"},{"inputs":[{"internalType":"bytes32","name":"role","type":"bytes32"},{"internalType":"address","name":"callerConfirmation","type":"address"}],"name":"renounceRole","outputs":[],"stateMutability":"nonpayable","type":"function"},{"inputs":[{"internalType":"bytes32","name":"role","type":"bytes32"},{"internalType":"address","name":"account","type":"address"}],"name":"revokeRole","outputs":[],"stateMutability":"nonpayable","type":"function"},{"inputs":[{"internalType":"uint256","name":"newQuorum","type":"uint256"}],"name":"setApprovalQuorum","outputs":[],"stateMutability":"nonpayable","type":"function"},{"inputs":[{"internalType":"bytes4","name":"interfaceId","type":"bytes4"}],"name":"supportsInterface","outputs":[{"internalType":"bool","name":"","type":"bool"}],"stateMutability":"view","type":"function"},{"inputs":[],"name":"totalLoans","outputs":[{"internalType":"uint256","name":"","type":"uint256"}],"stateMutability":"view","type":"function"},{"inputs":[],"name":"unpause","outputs":[],"stateMutability":"nonpayable","type":"function"}],"evm":{"bytecode":{"linkReferences":{},"object":"60806040523480156200001157600080fd5b506040516200167c3803806200167c83398101604081905262000034916200014c565b60017f9b779b17422d0df92223018b32b4d1fa46e071723d6817e2486d003becc55f0055620000656000336200009d565b50620000927f25cf2b509f2a7f322675b2a5322b182f44ad2c03ac941a0af17c9b178f5d5d5f836200009d565b506007555062000188565b6000828152602081815260408083206001600160a01b038516845290915281205460ff1662000142576000838152602081815260408083206001600160a01b03861684529091529020805460ff19166001179055620000f93390565b6001600160a01b0316826001600160a01b0316847f2f8788117e7eff1d82e926ec794901d17c78024a50270940304540a733656f0d60405160405180910390a450600162000146565b5060005b92915050565b600080604083850312156200016057600080fd5b82516001600160a01b03811681146200017857600080fd5b6020939093015192949293505050565b6114e480620001986000396000f3fe608060405234801561001057600080fd5b50600436106101cf5760003560e01c806391d1485411610104578063cc952b57116100a2578063e1ec3c6811610071578063e1ec3c6814610443578063e2982cd1146104d8578063e3ed1902146104eb578063eee8b7ff146104fe57600080fd5b8063cc952b57146103e7578063ccf3f07d146103ef578063d547741f1461041d578063d62347f31461043057600080fd5b8063a19ec1ca116100de578063a19ec1ca146103b0578063a217fddf146103c3578063aadc1ac1146103cb578063bc7acee7146103de57600080fd5b806391d148541461037557806392c2becc14610388578063961fed391461039d57600080fd5b80633f4ba83a116101715780635c975abb1161014b5780635c975abb1461033a5780636dcf546814610345578063759135a11461035a5780638456cb591461036d57600080fd5b80633f4ba83a14610291578063504006ca14610299578063592b08371461032757600080fd5b80632c35844b116101ad5780632c35844b1461024d5780632f2ff15d1461026057806334d9289e1461027557806336568abe1461027e57600080fd5b806301ffc9a7146101d45780631292f9e0146101fc578063248a9ca31461022a575b600080fd5b6101e76101e2366004611124565b61051e565b60405190151581526020015b60405180910390f35b61021c61020a366004611155565b60066020526000908152604090205481565b6040519081526020016101f3565b61021c610238366004611155565b60009081526020819052604090206001015490565b61021c61025b36600461118a565b610555565b61027361026e3660046111cc565b610734565b005b61021c60025481565b61027361028c3660046111cc565b61075f565b610273610797565b6103106102a7366004611155565b60009081526003602081905260409091206001810154600282015492820154600483015460058401546006850154600786015460088701546009880154600a890154600b909901546001600160a01b039098169a969895979496939592949193909260ff169190565b6040516101f39b9a99989796959493929190611230565b61027361033536600461129a565b6107ad565b60015460ff166101e7565b61021c60008051602061148f83398151915281565b610273610368366004611155565b6108dc565b6102736109fc565b6101e76103833660046111cc565b610a0f565b61021c60008051602061146f83398151915281565b6102736103ab366004611155565b610a38565b6102736103be3660046112bc565b610a8e565b61021c600081565b6102736103d9366004611155565b610ab1565b61021c60075481565b60025461021c565b6101e76103fd3660046111cc565b600560209081526000928352604080842090915290825290205460ff1681565b61027361042b3660046111cc565b610c82565b61027361043e36600461129a565b610ca7565b6104c0610451366004611155565b600360208190526000918252604090912080546001820154600283015493830154600484015460058501546006860154600787015460088801546009890154600a8a0154600b909a0154989a6001600160a01b03909816999798969795969495939492939192909160ff16908c565b6040516101f39c9b9a999897969594939291906112d7565b6102736104e63660046112bc565b610e4a565b61021c6104f9366004611349565b610e6d565b61051161050c3660046112bc565b610e9e565b6040516101f39190611373565b60006001600160e01b03198216637965db0b60e01b148061054f57506301ffc9a760e01b6001600160e01b03198316145b92915050565b600060008051602061146f83398151915261056f81610f0a565b610577610f14565b8560000361059857604051631f2a200560e01b815260040160405180910390fd5b836000036105b9576040516310ea797760e21b815260040160405180910390fd5b6002600081546105c8906113cd565b9182905550915060006201d4c06105df87896113e6565b6105e991906113fd565b905060006105f786896113fd565b90506000610605838361141f565b905060006003600087815260200190815260200160002090508581600001819055508a8160010160006101000a8154816001600160a01b0302191690836001600160a01b03160217905550868160020181905550898160030181905550888160040181905550818160050181905550878160060181905550600081600a0160006101000a81548160ff021916908360048111156106a4576106a46111f8565b02179055506001600160a01b038b16600081815260046020908152604080832080546001810182559084529282902090920189905581518d81529081018c90529081018a90526060810184905242608082015287907f828030050df5892606be8a635f7a503a093e6f9f961945c9c9ad6d518de03d219060a00160405180910390a3505050505095945050505050565b60008281526020819052604090206001015461074f81610f0a565b6107598383610f3a565b50505050565b6001600160a01b03811633146107885760405163334bd91960e11b815260040160405180910390fd5b6107928282610fcc565b505050565b60006107a281610f0a565b6107aa611037565b50565b60008051602061146f8339815191526107c581610f0a565b6107cd610f14565b6000838152600360205260408120805490910361080557604051634035962f60e11b8152600481018590526024015b60405180910390fd5b6001600a82015460ff166004811115610820576108206111f8565b1461084c57600a81015460405163cb716ff360e01b81526107fc91869160019160ff1690600401611432565b600a8101805460ff1916600217905542600782018190556108719062278d009061141f565b6008820155600b810183905560018101546003820154604080519182526020820186905242908201526001600160a01b039091169085907f717ec696e8f27e34a5c04ce8d46f236aafa68f8a79d80a7597b3e5b023c5f905906060015b60405180910390a350505050565b6000818152600360205260408120805490910361090f57604051634035962f60e11b8152600481018390526024016107fc565b6002600a82015460ff16600481111561092a5761092a6111f8565b1461095657600a81015460405163cb716ff360e01b81526107fc91849160029160ff1690600401611432565b600062278d00826008015461096b919061141f565b905080421161099057604051630f9751f760e01b8152600481018490526024016107fc565b60008260080154426109a2919061145b565b600a8401805460ff191660041790556001840154604080518381524260208201529293506001600160a01b039091169186917f879ddb97af12a69acc156dd1aed83d9413a91026dd5230c933d5a3d5e0488c1f91016108ce565b6000610a0781610f0a565b6107aa611089565b6000918252602082815260408084206001600160a01b0393909316845291905290205460ff1690565b6000610a4381610f0a565b60008211610a885760405162461bcd60e51b8152602060048201526012602482015271051756f72756d206d757374206265203e20360741b60448201526064016107fc565b50600755565b6000610a9981610f0a565b61079260008051602061148f83398151915283610f3a565b60008051602061148f833981519152610ac981610f0a565b610ad1610f14565b60008281526003602052604081208054909103610b0457604051634035962f60e11b8152600481018490526024016107fc565b6000600a82015460ff166004811115610b1f57610b1f6111f8565b14610b4b57600a81015460405163cb716ff360e01b81526107fc91859160009160ff1690600401611432565b600083815260056020908152604080832033845290915290205460ff1615610b8e576040516294775b60e41b8152600481018490523360248201526044016107fc565b60008381526005602090815260408083203384528252808320805460ff1916600117905585835260069091528120805491610bc8836113cd565b909155505060008381526006602052604090819020549051339185917f9bae3f3bf92c4175a01ca22958e419ab8961f6e2b242e42d5f4fadaf87426fa591610c1a914290918252602082015260400190565b60405180910390a36007546000848152600660205260409020541061079257600a8101805460ff1916600117905560405142815283907f08a10a22e4b27b131646c80d35388bd73aa6480465e2028e520150e4699090a59060200160405180910390a2505050565b600082815260208190526040902060010154610c9d81610f0a565b6107598383610fcc565b60008051602061146f833981519152610cbf81610f0a565b610cc7610f14565b60008381526003602052604081208054909103610cfa57604051634035962f60e11b8152600481018590526024016107fc565b6002600a82015460ff166004811115610d1557610d156111f8565b14610d4157600a81015460405163cb716ff360e01b81526107fc91869160029160ff1690600401611432565b8060060154816009015410610d6c5760405163fc71179f60e01b8152600481018590526024016107fc565b600981018054906000610d7e836113cd565b90915550610d91905062278d004261141f565b600882015560098101546005820154604080519283526020830191909152810184905242606082015284907f1abb684be5786266cd2d235d508615b5462c110a148862a379b315edcba794059060800160405180910390a2806006015481600901541061075957600a8101805460ff1916600317905560018101546040514281526001600160a01b039091169085907f512d3e65b3e58c2187bb1872aa435dba5bd09c1c03823ba56ab70aac411e4a21906020016108ce565b6000610e5581610f0a565b61079260008051602061148f83398151915283610fcc565b60046020528160005260406000208181548110610e8957600080fd5b90600052602060002001600091509150505481565b6001600160a01b038116600090815260046020908152604091829020805483518184028101840190945280845260609392830182828015610efe57602002820191906000526020600020905b815481526020019060010190808311610eea575b50505050509050919050565b6107aa81336110c4565b60015460ff1615610f385760405163d93c066560e01b815260040160405180910390fd5b565b6000610f468383610a0f565b610fc4576000838152602081815260408083206001600160a01b03861684529091529020805460ff19166001179055610f7c3390565b6001600160a01b0316826001600160a01b0316847f2f8788117e7eff1d82e926ec794901d17c78024a50270940304540a733656f0d60405160405180910390a450600161054f565b50600061054f565b6000610fd88383610a0f565b15610fc4576000838152602081815260408083206001600160a01b0386168085529252808320805460ff1916905551339286917ff6391f5c32d9c69d2a47ea670b442974b53935d1edc7fd64eb21e047a839171b9190a450600161054f565b61103f611101565b6001805460ff191690557f5db9ee0a495bf2e6ff9c91a7834c1ba4fdd244a5e8aa4e537bd38aeae4b073aa335b6040516001600160a01b03909116815260200160405180910390a1565b611091610f14565b6001805460ff1916811790557f62e78cea01bee320cd4e420270b5ea74000d11b0c9f74754ebdbfc544b05a2583361106c565b6110ce8282610a0f565b6110fd5760405163e2517d3f60e01b81526001600160a01b0382166004820152602481018390526044016107fc565b5050565b60015460ff16610f3857604051638dfc202b60e01b815260040160405180910390fd5b60006020828403121561113657600080fd5b81356001600160e01b03198116811461114e57600080fd5b9392505050565b60006020828403121561116757600080fd5b5035919050565b80356001600160a01b038116811461118557600080fd5b919050565b600080600080600060a086880312156111a257600080fd5b6111ab8661116e565b97602087013597506040870135966060810135965060800135945092505050565b600080604083850312156111df57600080fd5b823591506111ef6020840161116e565b90509250929050565b634e487b7160e01b600052602160045260246000fd5b6005811061122c57634e487b7160e01b600052602160045260246000fd5b9052565b60006101608201905060018060a01b038d1682528b60208301528a60408301528960608301528860808301528760a08301528660c08301528560e08301528461010083015261128361012083018561120e565b826101408301529c9b505050505050505050505050565b600080604083850312156112ad57600080fd5b50508035926020909101359150565b6000602082840312156112ce57600080fd5b61114e8261116e565b6000610180820190508d825260018060a01b038d1660208301528b60408301528a60608301528960808301528860a08301528760c08301528660e0830152856101008301528461012083015261133161014083018561120e565b826101608301529d9c50505050505050505050505050565b6000806040838503121561135c57600080fd5b6113658361116e565b946020939093013593505050565b6020808252825182820181905260009190848201906040850190845b818110156113ab5783518352928401929184019160010161138f565b50909695505050505050565b634e487b7160e01b600052601160045260246000fd5b6000600182016113df576113df6113b7565b5060010190565b808202811582820484141761054f5761054f6113b7565b60008261141a57634e487b7160e01b600052601260045260246000fd5b500490565b8082018082111561054f5761054f6113b7565b83815260608101611446602083018561120e565b611453604083018461120e565b949350505050565b8181038181111561054f5761054f6113b756fe25cf2b509f2a7f322675b2a5322b182f44ad2c03ac941a0af17c9b178f5d5d5f9a39467c56c9c621432dd698a13e319335de49d52460de86a68ef2768029af76a2646970667358221220fae091e47a20feb98d4abb09743892a5485ea46d45048288bd838479c47766c764736f6c63430008180033","opcodes":"PUSH1 0x80 PUSH1 0x40 MSTORE CALLVALUE DUP1 ISZERO PUSH3 0x11 JUMPI PUSH1 0x0 DUP1 REVERT JUMPDEST POP PUSH1 0x40 MLOAD PUSH3 0x167C CODESIZE SUB DUP1 PUSH3 0x167C DUP4 CODECOPY DUP2 ADD PUSH1 0x40 DUP2 SWAP1 MSTORE PUSH3 0x34 SWAP2 PUSH3 0x14C JUMP JUMPDEST PUSH1 0x1 PUSH32 0x9B779B17422D0DF92223018B32B4D1FA46E071723D6817E2486D003BECC55F00 SSTORE PUSH3 0x65 PUSH1 0x0 CALLER PUSH3 0x9D JUMP JUMPDEST POP PUSH3 0x92 PUSH32 0x25CF2B509F2A7F322675B2A5322B182F44AD2C03AC941A0AF17C9B178F5D5D5F DUP4 PUSH3 0x9D JUMP JUMPDEST POP PUSH1 0x7 SSTORE POP PUSH3 0x188 JUMP JUMPDEST PUSH1 0x0 DUP3 DUP2 MSTORE PUSH1 0x20 DUP2 DUP2 MSTORE PUSH1 0x40 DUP1 DUP4 KECCAK256 PUSH1 0x1 PUSH1 0x1 PUSH1 0xA0 SHL SUB DUP6 AND DUP5 MSTORE SWAP1 SWAP2 MSTORE DUP2 KECCAK256 SLOAD PUSH1 0xFF AND PUSH3 0x142 JUMPI PUSH1 0x0 DUP4 DUP2 MSTORE PUSH1 0x20 DUP2 DUP2 MSTORE PUSH1 0x40 DUP1 DUP4 KECCAK256 PUSH1 0x1 PUSH1 0x1 PUSH1 0xA0 SHL SUB DUP7 AND DUP5 MSTORE SWAP1 SWAP2 MSTORE SWAP1 KECCAK256 DUP1 SLOAD PUSH1 0xFF NOT AND PUSH1 0x1 OR SWAP1 SSTORE PUSH3 0xF9 CALLER SWAP1 JUMP JUMPDEST PUSH1 0x1 PUSH1 0x1 PUSH1 0xA0 SHL SUB AND DUP3 PUSH1 0x1 PUSH1 0x1 PUSH1 0xA0 SHL SUB AND DUP5 PUSH32 0x2F8788117E7EFF1D82E926EC794901D17C78024A50270940304540A733656F0D PUSH1 0x40 MLOAD PUSH1 0x40 MLOAD DUP1 SWAP2 SUB SWAP1 LOG4 POP PUSH1 0x1 PUSH3 0x146 JUMP JUMPDEST POP PUSH1 0x0 JUMPDEST SWAP3 SWAP2 POP POP JUMP JUMPDEST PUSH1 0x0 DUP1 PUSH1 0x40 DUP4 DUP6 SUB SLT ISZERO PUSH3 0x160 JUMPI PUSH1 0x0 DUP1 REVERT JUMPDEST DUP3 MLOAD PUSH1 0x1 PUSH1 0x1 PUSH1 0xA0 SHL SUB DUP2 AND DUP2 EQ PUSH3 0x178 JUMPI PUSH1 0x0 DUP1 REVERT JUMPDEST PUSH1 0x20 SWAP4 SWAP1 SWAP4 ADD MLOAD SWAP3 SWAP5 SWAP3 SWAP4 POP POP POP JUMP JUMPDEST PUSH2 0x14E4 DUP1 PUSH3 0x198 PUSH1 0x0 CODECOPY PUSH1 0x0 RETURN INVALID PUSH1 0x80 PUSH1 0x40 MSTORE CALLVALUE DUP1 ISZERO PUSH2 0x10 JUMPI PUSH1 0x0 DUP1 REVERT JUMPDEST POP PUSH1 0x4 CALLDATASIZE LT PUSH2 0x1CF JUMPI PUSH1 0x0 CALLDATALOAD PUSH1 0xE0 SHR DUP1 PUSH4 0x91D14854 GT PUSH2 0x104 JUMPI DUP1 PUSH4 0xCC952B57 GT PUSH2 0xA2 JUMPI DUP1 PUSH4 0xE1EC3C68 GT PUSH2 0x71 JUMPI DUP1 PUSH4 0xE1EC3C68 EQ PUSH2 0x443 JUMPI DUP1 PUSH4 0xE2982CD1 EQ PUSH2 0x4D8 JUMPI DUP1 PUSH4 0xE3ED1902 EQ PUSH2 0x4EB JUMPI DUP1 PUSH4 0xEEE8B7FF EQ PUSH2 0x4FE JUMPI PUSH1 0x0 DUP1 REVERT JUMPDEST DUP1 PUSH4 0xCC952B57 EQ PUSH2 0x3E7 JUMPI DUP1 PUSH4 0xCCF3F07D EQ PUSH2 0x3EF JUMPI DUP1 PUSH4 0xD547741F EQ PUSH2 0x41D JUMPI DUP1 PUSH4 0xD62347F3 EQ PUSH2 0x430 JUMPI PUSH1 0x0 DUP1 REVERT JUMPDEST DUP1 PUSH4 0xA19EC1CA GT PUSH2 0xDE JUMPI DUP1 PUSH4 0xA19EC1CA EQ PUSH2 0x3B0 JUMPI DUP1 PUSH4 0xA217FDDF EQ PUSH2 0x3C3 JUMPI DUP1 PUSH4 0xAADC1AC1 EQ PUSH2 0x3CB JUMPI DUP1 PUSH4 0xBC7ACEE7 EQ PUSH2 0x3DE JUMPI PUSH1 0x0 DUP1 REVERT JUMPDEST DUP1 PUSH4 0x91D14854 EQ PUSH2 0x375 JUMPI DUP1 PUSH4 0x92C2BECC EQ PUSH2 0x388 JUMPI DUP1 PUSH4 0x961FED39 EQ PUSH2 0x39D JUMPI PUSH1 0x0 DUP1 REVERT JUMPDEST DUP1 PUSH4 0x3F4BA83A GT PUSH2 0x171 JUMPI DUP1 PUSH4 0x5C975ABB GT PUSH2 0x14B JUMPI DUP1 PUSH4 0x5C975ABB EQ PUSH2 0x33A JUMPI DUP1 PUSH4 0x6DCF5468 EQ PUSH2 0x345 JUMPI DUP1 PUSH4 0x759135A1 EQ PUSH2 0x35A JUMPI DUP1 PUSH4 0x8456CB59 EQ PUSH2 0x36D JUMPI PUSH1 0x0 DUP1 REVERT JUMPDEST DUP1 PUSH4 0x3F4BA83A EQ PUSH2 0x291 JUMPI DUP1 PUSH4 0x504006CA EQ PUSH2 0x299 JUMPI DUP1 PUSH4 0x592B0837 EQ PUSH2 0x327 JUMPI PUSH1 0x0 DUP1 REVERT JUMPDEST DUP1 PUSH4 0x2C35844B GT PUSH2 0x1AD JUMPI DUP1 PUSH4 0x2C35844B EQ PUSH2 0x24D JUMPI DUP1 PUSH4 0x2F2FF15D EQ PUSH2 0x260 JUMPI DUP1 PUSH4 0x34D9289E EQ PUSH2 0x275 JUMPI DUP1 PUSH4 0x36568ABE EQ PUSH2 0x27E JUMPI PUSH1 0x0 DUP1 REVERT JUMPDEST DUP1 PUSH4 0x1FFC9A7 EQ PUSH2 0x1D4 JUMPI DUP1 PUSH4 0x1292F9E0 EQ PUSH2 0x1FC JUMPI DUP1 PUSH4 0x248A9CA3 EQ PUSH2 0x22A JUMPI JUMPDEST PUSH1 0x0 DUP1 REVERT JUMPDEST PUSH2 0x1E7 PUSH2 0x1E2 CALLDATASIZE PUSH1 0x4 PUSH2 0x1124 JUMP JUMPDEST PUSH2 0x51E JUMP JUMPDEST PUSH1 0x40 MLOAD SWAP1 ISZERO ISZERO DUP2 MSTORE PUSH1 0x20 ADD JUMPDEST PUSH1 0x40 MLOAD DUP1 SWAP2 SUB SWAP1 RETURN JUMPDEST PUSH2 0x21C PUSH2 0x20A CALLDATASIZE PUSH1 0x4 PUSH2 0x1155 JUMP JUMPDEST PUSH1 0x6 PUSH1 0x20 MSTORE PUSH1 0x0 SWAP1 DUP2 MSTORE PUSH1 0x40 SWAP1 KECCAK256 SLOAD DUP2 JUMP JUMPDEST PUSH1 0x40 MLOAD SWAP1 DUP2 MSTORE PUSH1 0x20 ADD PUSH2 0x1F3 JUMP JUMPDEST PUSH2 0x21C PUSH2 0x238 CALLDATASIZE PUSH1 0x4 PUSH2 0x1155 JUMP JUMPDEST PUSH1 0x0 SWAP1 DUP2 MSTORE PUSH1 0x20 DUP2 SWAP1 MSTORE PUSH1 0x40 SWAP1 KECCAK256 PUSH1 0x1 ADD SLOAD SWAP1 JUMP JUMPDEST PUSH2 0x21C PUSH2 0x25B CALLDATASIZE PUSH1 0x4 PUSH2 0x118A JUMP JUMPDEST PUSH2 0x555 JUMP JUMPDEST PUSH2 0x273 PUSH2 0x26E CALLDATASIZE PUSH1 0x4 PUSH2 0x11CC JUMP JUMPDEST PUSH2 0x734 JUMP JUMPDEST STOP JUMPDEST PUSH2 0x21C PUSH1 0x2 SLOAD DUP2 JUMP JUMPDEST PUSH2 0x273 PUSH2 0x28C CALLDATASIZE PUSH1 0x4 PUSH2 0x11CC JUMP JUMPDEST PUSH2 0x75F JUMP JUMPDEST PUSH2 0x273 PUSH2 0x797 JUMP JUMPDEST PUSH2 0x310 PUSH2 0x2A7 CALLDATASIZE PUSH1 0x4 PUSH2 0x1155 JUMP JUMPDEST PUSH1 0x0 SWAP1 DUP2 MSTORE PUSH1 0x3 PUSH1 0x20 DUP2 SWAP1 MSTORE PUSH1 0x40 SWAP1 SWAP2 KECCAK256 PUSH1 0x1 DUP2 ADD SLOAD PUSH1 0x2 DUP3 ADD SLOAD SWAP3 DUP3 ADD SLOAD PUSH1 0x4 DUP4 ADD SLOAD PUSH1 0x5 DUP5 ADD SLOAD PUSH1 0x6 DUP6 ADD SLOAD PUSH1 0x7 DUP7 ADD SLOAD PUSH1 0x8 DUP8 ADD SLOAD PUSH1 0x9 DUP9 ADD SLOAD PUSH1 0xA DUP10 ADD SLOAD PUSH1 0xB SWAP1 SWAP10 ADD SLOAD PUSH1 0x1 PUSH1 0x1 PUSH1 0xA0 SHL SUB SWAP1 SWAP9 AND SWAP11 SWAP7 SWAP9 SWAP6 SWAP8 SWAP5 SWAP7 SWAP4 SWAP6 SWAP3 SWAP5 SWAP2 SWAP4 SWAP1 SWAP3 PUSH1 0xFF AND SWAP2 SWAP1 JUMP JUMPDEST PUSH1 0x40 MLOAD PUSH2 0x1F3 SWAP12 SWAP11 SWAP10 SWAP9 SWAP8 SWAP7 SWAP6 SWAP5 SWAP4 SWAP3 SWAP2 SWAP1 PUSH2 0x1230 JUMP JUMPDEST PUSH2 0x273 PUSH2 0x335 CALLDATASIZE PUSH1 0x4 PUSH2 0x129A JUMP JUMPDEST PUSH2 0x7AD JUMP JUMPDEST PUSH1 0x1 SLOAD PUSH1 0xFF AND PUSH2 0x1E7 JUMP JUMPDEST PUSH2 0x21C PUSH1 0x0 DUP1 MLOAD PUSH1 0x20 PUSH2 0x148F DUP4 CODECOPY DUP2 MLOAD SWAP2 MSTORE DUP2 JUMP JUMPDEST PUSH2 0x273 PUSH2 0x368 CALLDATASIZE PUSH1 0x4 PUSH2 0x1155 JUMP JUMPDEST PUSH2 0x8DC JUMP JUMPDEST PUSH2 0x273 PUSH2 0x9FC JUMP JUMPDEST PUSH2 0x1E7 PUSH2 0x383 CALLDATASIZE PUSH1 0x4 PUSH2 0x11CC JUMP JUMPDEST PUSH2 0xA0F JUMP JUMPDEST PUSH2 0x21C PUSH1 0x0 DUP1 MLOAD PUSH1 0x20 PUSH2 0x146F DUP4 CODECOPY DUP2 MLOAD SWAP2 MSTORE DUP2 JUMP JUMPDEST PUSH2 0x273 PUSH2 0x3AB CALLDATASIZE PUSH1 0x4 PUSH2 0x1155 JUMP JUMPDEST PUSH2 0xA38 JUMP JUMPDEST PUSH2 0x273 PUSH2 0x3BE CALLDATASIZE PUSH1 0x4 PUSH2 0x12BC JUMP JUMPDEST PUSH2 0xA8E JUMP JUMPDEST PUSH2 0x21C PUSH1 0x0 DUP2 JUMP JUMPDEST PUSH2 0x273 PUSH2 0x3D9 CALLDATASIZE PUSH1 0x4 PUSH2 0x1155 JUMP JUMPDEST PUSH2 0xAB1 JUMP JUMPDEST PUSH2 0x21C PUSH1 0x7 SLOAD DUP2 JUMP JUMPDEST PUSH1 0x2 SLOAD PUSH2 0x21C JUMP JUMPDEST PUSH2 0x1E7 PUSH2 0x3FD CALLDATASIZE PUSH1 0x4 PUSH2 0x11CC JUMP JUMPDEST PUSH1 0x5 PUSH1 0x20 SWAP1 DUP2 MSTORE PUSH1 0x0 SWAP3 DUP4 MSTORE PUSH1 0x40 DUP1 DUP5 KECCAK256 SWAP1 SWAP2 MSTORE SWAP1 DUP3 MSTORE SWAP1 KECCAK256 SLOAD PUSH1 0xFF AND DUP2 JUMP JUMPDEST PUSH2 0x273 PUSH2 0x42B CALLDATASIZE PUSH1 0x4 PUSH2 0x11CC JUMP JUMPDEST PUSH2 0xC82 JUMP JUMPDEST PUSH2 0x273 PUSH2 0x43E CALLDATASIZE PUSH1 0x4 PUSH2 0x129A JUMP JUMPDEST PUSH2 0xCA7 JUMP JUMPDEST PUSH2 0x4C0 PUSH2 0x451 CALLDATASIZE PUSH1 0x4 PUSH2 0x1155 JUMP JUMPDEST PUSH1 0x3 PUSH1 0x20 DUP2 SWAP1 MSTORE PUSH1 0x0 SWAP2 DUP3 MSTORE PUSH1 0x40 SWAP1 SWAP2 KECCAK256 DUP1 SLOAD PUSH1 0x1 DUP3 ADD SLOAD PUSH1 0x2 DUP4 ADD SLOAD SWAP4 DUP4 ADD SLOAD PUSH1 0x4 DUP5 ADD SLOAD PUSH1 0x5 DUP6 ADD SLOAD PUSH1 0x6 DUP7 ADD SLOAD PUSH1 0x7 DUP8 ADD SLOAD PUSH1 0x8 DUP9 ADD SLOAD PUSH1 0x9 DUP10 ADD SLOAD PUSH1 0xA DUP11 ADD SLOAD PUSH1 0xB SWAP1 SWAP11 ADD SLOAD SWAP9 SWAP11 PUSH1 0x1 PUSH1 0x1 PUSH1 0xA0 SHL SUB SWAP1 SWAP9 AND SWAP10 SWAP8 SWAP9 SWAP7 SWAP8 SWAP6 SWAP7 SWAP5 SWAP6 SWAP4 SWAP5 SWAP3 SWAP4 SWAP2 SWAP3 SWAP1 SWAP2 PUSH1 0xFF AND SWAP1 DUP13 JUMP JUMPDEST PUSH1 0x40 MLOAD PUSH2 0x1F3 SWAP13 SWAP12 SWAP11 SWAP10 SWAP9 SWAP8 SWAP7 SWAP6 SWAP5 SWAP4 SWAP3 SWAP2 SWAP1 PUSH2 0x12D7 JUMP JUMPDEST PUSH2 0x273 PUSH2 0x4E6 CALLDATASIZE PUSH1 0x4 PUSH2 0x12BC JUMP JUMPDEST PUSH2 0xE4A JUMP JUMPDEST PUSH2 0x21C PUSH2 0x4F9 CALLDATASIZE PUSH1 0x4 PUSH2 0x1349 JUMP JUMPDEST PUSH2 0xE6D JUMP JUMPDEST PUSH2 0x511 PUSH2 0x50C CALLDATASIZE PUSH1 0x4 PUSH2 0x12BC JUMP JUMPDEST PUSH2 0xE9E JUMP JUMPDEST PUSH1 0x40 MLOAD PUSH2 0x1F3 SWAP2 SWAP1 PUSH2 0x1373 JUMP JUMPDEST PUSH1 0x0 PUSH1 0x1 PUSH1 0x1 PUSH1 0xE0 SHL SUB NOT DUP3 AND PUSH4 0x7965DB0B PUSH1 0xE0 SHL EQ DUP1 PUSH2 0x54F JUMPI POP PUSH4 0x1FFC9A7 PUSH1 0xE0 SHL PUSH1 0x1 PUSH1 0x1 PUSH1 0xE0 SHL SUB NOT DUP4 AND EQ JUMPDEST SWAP3 SWAP2 POP POP JUMP JUMPDEST PUSH1 0x0 PUSH1 0x0 DUP1 MLOAD PUSH1 0x20 PUSH2 0x146F DUP4 CODECOPY DUP2 MLOAD SWAP2 MSTORE PUSH2 0x56F DUP2 PUSH2 0xF0A JUMP JUMPDEST PUSH2 0x577 PUSH2 0xF14 JUMP JUMPDEST DUP6 PUSH1 0x0 SUB PUSH2 0x598 JUMPI PUSH1 0x40 MLOAD PUSH4 0x1F2A2005 PUSH1 0xE0 SHL DUP2 MSTORE PUSH1 0x4 ADD PUSH1 0x40 MLOAD DUP1 SWAP2 SUB SWAP1 REVERT JUMPDEST DUP4 PUSH1 0x0 SUB PUSH2 0x5B9 JUMPI PUSH1 0x40 MLOAD PUSH4 0x10EA7977 PUSH1 0xE2 SHL DUP2 MSTORE PUSH1 0x4 ADD PUSH1 0x40 MLOAD DUP1 SWAP2 SUB SWAP1 REVERT JUMPDEST PUSH1 0x2 PUSH1 0x0 DUP2 SLOAD PUSH2 0x5C8 SWAP1 PUSH2 0x13CD JUMP JUMPDEST SWAP2 DUP3 SWAP1 SSTORE POP SWAP2 POP PUSH1 0x0 PUSH3 0x1D4C0 PUSH2 0x5DF DUP8 DUP10 PUSH2 0x13E6 JUMP JUMPDEST PUSH2 0x5E9 SWAP2 SWAP1 PUSH2 0x13FD JUMP JUMPDEST SWAP1 POP PUSH1 0x0 PUSH2 0x5F7 DUP7 DUP10 PUSH2 0x13FD JUMP JUMPDEST SWAP1 POP PUSH1 0x0 PUSH2 0x605 DUP4 DUP4 PUSH2 0x141F JUMP JUMPDEST SWAP1 POP PUSH1 0x0 PUSH1 0x3 PUSH1 0x0 DUP8 DUP2 MSTORE PUSH1 0x20 ADD SWAP1 DUP2 MSTORE PUSH1 0x20 ADD PUSH1 0x0 KECCAK256 SWAP1 POP DUP6 DUP2 PUSH1 0x0 ADD DUP2 SWAP1 SSTORE POP DUP11 DUP2 PUSH1 0x1 ADD PUSH1 0x0 PUSH2 0x100 EXP DUP2 SLOAD DUP2 PUSH1 0x1 PUSH1 0x1 PUSH1 0xA0 SHL SUB MUL NOT AND SWAP1 DUP4 PUSH1 0x1 PUSH1 0x1 PUSH1 0xA0 SHL SUB AND MUL OR SWAP1 SSTORE POP DUP7 DUP2 PUSH1 0x2 ADD DUP2 SWAP1 SSTORE POP DUP10 DUP2 PUSH1 0x3 ADD DUP2 SWAP1 SSTORE POP DUP9 DUP2 PUSH1 0x4 ADD DUP2 SWAP1 SSTORE POP DUP2 DUP2 PUSH1 0x5 ADD DUP2 SWAP1 SSTORE POP DUP8 DUP2 PUSH1 0x6 ADD DUP2 SWAP1 SSTORE POP PUSH1 0x0 DUP2 PUSH1 0xA ADD PUSH1 0x0 PUSH2 0x100 EXP DUP2 SLOAD DUP2 PUSH1 0xFF MUL NOT AND SWAP1 DUP4 PUSH1 0x4 DUP2 GT ISZERO PUSH2 0x6A4 JUMPI PUSH2 0x6A4 PUSH2 0x11F8 JUMP JUMPDEST MUL OR SWAP1 SSTORE POP PUSH1 0x1 PUSH1 0x1 PUSH1 0xA0 SHL SUB DUP12 AND PUSH1 0x0 DUP2 DUP2 MSTORE PUSH1 0x4 PUSH1 0x20 SWAP1 DUP2 MSTORE PUSH1 0x40 DUP1 DUP4 KECCAK256 DUP1 SLOAD PUSH1 0x1 DUP2 ADD DUP3 SSTORE SWAP1 DUP5 MSTORE SWAP3 DUP3 SWAP1 KECCAK256 SWAP1 SWAP3 ADD DUP10 SWAP1 SSTORE DUP2 MLOAD DUP14 DUP2 MSTORE SWAP1 DUP2 ADD DUP13 SWAP1 MSTORE SWAP1 DUP2 ADD DUP11 SWAP1 MSTORE PUSH1 0x60 DUP2 ADD DUP5 SWAP1 MSTORE TIMESTAMP PUSH1 0x80 DUP3 ADD MSTORE DUP8 SWAP1 PUSH32 0x828030050DF5892606BE8A635F7A503A093E6F9F961945C9C9AD6D518DE03D21 SWAP1 PUSH1 0xA0 ADD PUSH1 0x40 MLOAD DUP1 SWAP2 SUB SWAP1 LOG3 POP POP POP POP POP SWAP6 SWAP5 POP POP POP POP POP JUMP JUMPDEST PUSH1 0x0 DUP3 DUP2 MSTORE PUSH1 0x20 DUP2 SWAP1 MSTORE PUSH1 0x40 SWAP1 KECCAK256 PUSH1 0x1 ADD SLOAD PUSH2 0x74F DUP2 PUSH2 0xF0A JUMP JUMPDEST PUSH2 0x759 DUP4 DUP4 PUSH2 0xF3A JUMP JUMPDEST POP POP POP POP JUMP JUMPDEST PUSH1 0x1 PUSH1 0x1 PUSH1 0xA0 SHL SUB DUP2 AND CALLER EQ PUSH2 0x788 JUMPI PUSH1 0x40 MLOAD PUSH4 0x334BD919 PUSH1 0xE1 SHL DUP2 MSTORE PUSH1 0x4 ADD PUSH1 0x40 MLOAD DUP1 SWAP2 SUB SWAP1 REVERT JUMPDEST PUSH2 0x792 DUP3 DUP3 PUSH2 0xFCC JUMP JUMPDEST POP POP POP JUMP JUMPDEST PUSH1 0x0 PUSH2 0x7A2 DUP2 PUSH2 0xF0A JUMP JUMPDEST PUSH2 0x7AA PUSH2 0x1037 JUMP JUMPDEST POP JUMP JUMPDEST PUSH1 0x0 DUP1 MLOAD PUSH1 0x20 PUSH2 0x146F DUP4 CODECOPY DUP2 MLOAD SWAP2 MSTORE PUSH2 0x7C5 DUP2 PUSH2 0xF0A JUMP JUMPDEST PUSH2 0x7CD PUSH2 0xF14 JUMP JUMPDEST PUSH1 0x0 DUP4 DUP2 MSTORE PUSH1 0x3 PUSH1 0x20 MSTORE PUSH1 0x40 DUP2 KECCAK256 DUP1 SLOAD SWAP1 SWAP2 SUB PUSH2 0x805 JUMPI PUSH1 0x40 MLOAD PUSH4 0x4035962F PUSH1 0xE1 SHL DUP2 MSTORE PUSH1 0x4 DUP2 ADD DUP6 SWAP1 MSTORE PUSH1 0x24 ADD JUMPDEST PUSH1 0x40 MLOAD DUP1 SWAP2 SUB SWAP1 REVERT JUMPDEST PUSH1 0x1 PUSH1 0xA DUP3 ADD SLOAD PUSH1 0xFF AND PUSH1 0x4 DUP2 GT ISZERO PUSH2 0x820 JUMPI PUSH2 0x820 PUSH2 0x11F8 JUMP JUMPDEST EQ PUSH2 0x84C JUMPI PUSH1 0xA DUP2 ADD SLOAD PUSH1 0x40 MLOAD PUSH4 0xCB716FF3 PUSH1 0xE0 SHL DUP2 MSTORE PUSH2 0x7FC SWAP2 DUP7 SWAP2 PUSH1 0x1 SWAP2 PUSH1 0xFF AND SWAP1 PUSH1 0x4 ADD PUSH2 0x1432 JUMP JUMPDEST PUSH1 0xA DUP2 ADD DUP1 SLOAD PUSH1 0xFF NOT AND PUSH1 0x2 OR SWAP1 SSTORE TIMESTAMP PUSH1 0x7 DUP3 ADD DUP2 SWAP1 SSTORE PUSH2 0x871 SWAP1 PUSH3 0x278D00 SWAP1 PUSH2 0x141F JUMP JUMPDEST PUSH1 0x8 DUP3 ADD SSTORE PUSH1 0xB DUP2 ADD DUP4 SWAP1 SSTORE PUSH1 0x1 DUP2 ADD SLOAD PUSH1 0x3 DUP3 ADD SLOAD PUSH1 0x40 DUP1 MLOAD SWAP2 DUP3 MSTORE PUSH1 0x20 DUP3 ADD DUP7 SWAP1 MSTORE TIMESTAMP SWAP1 DUP3 ADD MSTORE PUSH1 0x1 PUSH1 0x1 PUSH1 0xA0 SHL SUB SWAP1 SWAP2 AND SWAP1 DUP6 SWAP1 PUSH32 0x717EC696E8F27E34A5C04CE8D46F236AAFA68F8A79D80A7597B3E5B023C5F905 SWAP1 PUSH1 0x60 ADD JUMPDEST PUSH1 0x40 MLOAD DUP1 SWAP2 SUB SWAP1 LOG3 POP POP POP POP JUMP JUMPDEST PUSH1 0x0 DUP2 DUP2 MSTORE PUSH1 0x3 PUSH1 0x20 MSTORE PUSH1 0x40 DUP2 KECCAK256 DUP1 SLOAD SWAP1 SWAP2 SUB PUSH2 0x90F JUMPI PUSH1 0x40 MLOAD PUSH4 0x4035962F PUSH1 0xE1 SHL DUP2 MSTORE PUSH1 0x4 DUP2 ADD DUP4 SWAP1 MSTORE PUSH1 0x24 ADD PUSH2 0x7FC JUMP JUMPDEST PUSH1 0x2 PUSH1 0xA DUP3 ADD SLOAD PUSH1 0xFF AND PUSH1 0x4 DUP2 GT ISZERO PUSH2 0x92A JUMPI PUSH2 0x92A PUSH2 0x11F8 JUMP JUMPDEST EQ PUSH2 0x956 JUMPI PUSH1 0xA DUP2 ADD SLOAD PUSH1 0x40 MLOAD PUSH4 0xCB716FF3 PUSH1 0xE0 SHL DUP2 MSTORE PUSH2 0x7FC SWAP2 DUP5 SWAP2 PUSH1 0x2 SWAP2 PUSH1 0xFF AND SWAP1 PUSH1 0x4 ADD PUSH2 0x1432 JUMP JUMPDEST PUSH1 0x0 PUSH3 0x278D00 DUP3 PUSH1 0x8 ADD SLOAD PUSH2 0x96B SWAP2 SWAP1 PUSH2 0x141F JUMP JUMPDEST SWAP1 POP DUP1 TIMESTAMP GT PUSH2 0x990 JUMPI PUSH1 0x40 MLOAD PUSH4 0xF9751F7 PUSH1 0xE0 SHL DUP2 MSTORE PUSH1 0x4 DUP2 ADD DUP5 SWAP1 MSTORE PUSH1 0x24 ADD PUSH2 0x7FC JUMP JUMPDEST PUSH1 0x0 DUP3 PUSH1 0x8 ADD SLOAD TIMESTAMP PUSH2 0x9A2 SWAP2 SWAP1 PUSH2 0x145B JUMP JUMPDEST PUSH1 0xA DUP5 ADD DUP1 SLOAD PUSH1 0xFF NOT AND PUSH1 0x4 OR SWAP1 SSTORE PUSH1 0x1 DUP5 ADD SLOAD PUSH1 0x40 DUP1 MLOAD DUP4 DUP2 MSTORE TIMESTAMP PUSH1 0x20 DUP3 ADD MSTORE SWAP3 SWAP4 POP PUSH1 0x1 PUSH1 0x1 PUSH1 0xA0 SHL SUB SWAP1 SWAP2 AND SWAP2 DUP7 SWAP2 PUSH32 0x879DDB97AF12A69ACC156DD1AED83D9413A91026DD5230C933D5A3D5E0488C1F SWAP2 ADD PUSH2 0x8CE JUMP JUMPDEST PUSH1 0x0 PUSH2 0xA07 DUP2 PUSH2 0xF0A JUMP JUMPDEST PUSH2 0x7AA PUSH2 0x1089 JUMP JUMPDEST PUSH1 0x0 SWAP2 DUP3 MSTORE PUSH1 0x20 DUP3 DUP2 MSTORE PUSH1 0x40 DUP1 DUP5 KECCAK256 PUSH1 0x1 PUSH1 0x1 PUSH1 0xA0 SHL SUB SWAP4 SWAP1 SWAP4 AND DUP5 MSTORE SWAP2 SWAP1 MSTORE SWAP1 KECCAK256 SLOAD PUSH1 0xFF AND SWAP1 JUMP JUMPDEST PUSH1 0x0 PUSH2 0xA43 DUP2 PUSH2 0xF0A JUMP JUMPDEST PUSH1 0x0 DUP3 GT PUSH2 0xA88 JUMPI PUSH1 0x40 MLOAD PUSH3 0x461BCD PUSH1 0xE5 SHL DUP2 MSTORE PUSH1 0x20 PUSH1 0x4 DUP3 ADD MSTORE PUSH1 0x12 PUSH1 0x24 DUP3 ADD MSTORE PUSH18 0x51756F72756D206D757374206265203E203 PUSH1 0x74 SHL PUSH1 0x44 DUP3 ADD MSTORE PUSH1 0x64 ADD PUSH2 0x7FC JUMP JUMPDEST POP PUSH1 0x7 SSTORE JUMP JUMPDEST PUSH1 0x0 PUSH2 0xA99 DUP2 PUSH2 0xF0A JUMP JUMPDEST PUSH2 0x792 PUSH1 0x0 DUP1 MLOAD PUSH1 0x20 PUSH2 0x148F DUP4 CODECOPY DUP2 MLOAD SWAP2 MSTORE DUP4 PUSH2 0xF3A JUMP JUMPDEST PUSH1 0x0 DUP1 MLOAD PUSH1 0x20 PUSH2 0x148F DUP4 CODECOPY DUP2 MLOAD SWAP2 MSTORE PUSH2 0xAC9 DUP2 PUSH2 0xF0A JUMP JUMPDEST PUSH2 0xAD1 PUSH2 0xF14 JUMP JUMPDEST PUSH1 0x0 DUP3 DUP2 MSTORE PUSH1 0x3 PUSH1 0x20 MSTORE PUSH1 0x40 DUP2 KECCAK256 DUP1 SLOAD SWAP1 SWAP2 SUB PUSH2 0xB04 JUMPI PUSH1 0x40 MLOAD PUSH4 0x4035962F PUSH1 0xE1 SHL DUP2 MSTORE PUSH1 0x4 DUP2 ADD DUP5 SWAP1 MSTORE PUSH1 0x24 ADD PUSH2 0x7FC JUMP JUMPDEST PUSH1 0x0 PUSH1 0xA DUP3 ADD SLOAD PUSH1 0xFF AND PUSH1 0x4 DUP2 GT ISZERO PUSH2 0xB1F JUMPI PUSH2 0xB1F PUSH2 0x11F8 JUMP JUMPDEST EQ PUSH2 0xB4B JUMPI PUSH1 0xA DUP2 ADD SLOAD PUSH1 0x40 MLOAD PUSH4 0xCB716FF3 PUSH1 0xE0 SHL DUP2 MSTORE PUSH2 0x7FC SWAP2 DUP6 SWAP2 PUSH1 0x0 SWAP2 PUSH1 0xFF AND SWAP1 PUSH1 0x4 ADD PUSH2 0x1432 JUMP JUMPDEST PUSH1 0x0 DUP4 DUP2 MSTORE PUSH1 0x5 PUSH1 0x20 SWAP1 DUP2 MSTORE PUSH1 0x40 DUP1 DUP4 KECCAK256 CALLER DUP5 MSTORE SWAP1 SWAP2 MSTORE SWAP1 KECCAK256 SLOAD PUSH1 0xFF AND ISZERO PUSH2 0xB8E JUMPI PUSH1 0x40 MLOAD PUSH3 0x94775B PUSH1 0xE4 SHL DUP2 MSTORE PUSH1 0x4 DUP2 ADD DUP5 SWAP1 MSTORE CALLER PUSH1 0x24 DUP3 ADD MSTORE PUSH1 0x44 ADD PUSH2 0x7FC JUMP JUMPDEST PUSH1 0x0 DUP4 DUP2 MSTORE PUSH1 0x5 PUSH1 0x20 SWAP1 DUP2 MSTORE PUSH1 0x40 DUP1 DUP4 KECCAK256 CALLER DUP5 MSTORE DUP3 MSTORE DUP1 DUP4 KECCAK256 DUP1 SLOAD PUSH1 0xFF NOT AND PUSH1 0x1 OR SWAP1 SSTORE DUP6 DUP4 MSTORE PUSH1 0x6 SWAP1 SWAP2 MSTORE DUP2 KECCAK256 DUP1 SLOAD SWAP2 PUSH2 0xBC8 DUP4 PUSH2 0x13CD JUMP JUMPDEST SWAP1 SWAP2 SSTORE POP POP PUSH1 0x0 DUP4 DUP2 MSTORE PUSH1 0x6 PUSH1 0x20 MSTORE PUSH1 0x40 SWAP1 DUP2 SWAP1 KECCAK256 SLOAD SWAP1 MLOAD CALLER SWAP2 DUP6 SWAP2 PUSH32 0x9BAE3F3BF92C4175A01CA22958E419AB8961F6E2B242E42D5F4FADAF87426FA5 SWAP2 PUSH2 0xC1A SWAP2 TIMESTAMP SWAP1 SWAP2 DUP3 MSTORE PUSH1 0x20 DUP3 ADD MSTORE PUSH1 0x40 ADD SWAP1 JUMP JUMPDEST PUSH1 0x40 MLOAD DUP1 SWAP2 SUB SWAP1 LOG3 PUSH1 0x7 SLOAD PUSH1 0x0 DUP5 DUP2 MSTORE PUSH1 0x6 PUSH1 0x20 MSTORE PUSH1 0x40 SWAP1 KECCAK256 SLOAD LT PUSH2 0x792 JUMPI PUSH1 0xA DUP2 ADD DUP1 SLOAD PUSH1 0xFF NOT AND PUSH1 0x1 OR SWAP1 SSTORE PUSH1 0x40 MLOAD TIMESTAMP DUP2 MSTORE DUP4 SWAP1 PUSH32 0x8A10A22E4B27B131646C80D35388BD73AA6480465E2028E520150E4699090A5 SWAP1 PUSH1 0x20 ADD PUSH1 0x40 MLOAD DUP1 SWAP2 SUB SWAP1 LOG2 POP POP POP JUMP JUMPDEST PUSH1 0x0 DUP3 DUP2 MSTORE PUSH1 0x20 DUP2 SWAP1 MSTORE PUSH1 0x40 SWAP1 KECCAK256 PUSH1 0x1 ADD SLOAD PUSH2 0xC9D DUP2 PUSH2 0xF0A JUMP JUMPDEST PUSH2 0x759 DUP4 DUP4 PUSH2 0xFCC JUMP JUMPDEST PUSH1 0x0 DUP1 MLOAD PUSH1 0x20 PUSH2 0x146F DUP4 CODECOPY DUP2 MLOAD SWAP2 MSTORE PUSH2 0xCBF DUP2 PUSH2 0xF0A JUMP JUMPDEST PUSH2 0xCC7 PUSH2 0xF14 JUMP JUMPDEST PUSH1 0x0 DUP4 DUP2 MSTORE PUSH1 0x3 PUSH1 0x20 MSTORE PUSH1 0x40 DUP2 KECCAK256 DUP1 SLOAD SWAP1 SWAP2 SUB PUSH2 0xCFA JUMPI PUSH1 0x40 MLOAD PUSH4 0x4035962F PUSH1 0xE1 SHL DUP2 MSTORE PUSH1 0x4 DUP2 ADD DUP6 SWAP1 MSTORE PUSH1 0x24 ADD PUSH2 0x7FC JUMP JUMPDEST PUSH1 0x2 PUSH1 0xA DUP3 ADD SLOAD PUSH1 0xFF AND PUSH1 0x4 DUP2 GT ISZERO PUSH2 0xD15 JUMPI PUSH2 0xD15 PUSH2 0x11F8 JUMP JUMPDEST EQ PUSH2 0xD41 JUMPI PUSH1 0xA DUP2 ADD SLOAD PUSH1 0x40 MLOAD PUSH4 0xCB716FF3 PUSH1 0xE0 SHL DUP2 MSTORE PUSH2 0x7FC SWAP2 DUP7 SWAP2 PUSH1 0x2 SWAP2 PUSH1 0xFF AND SWAP1 PUSH1 0x4 ADD PUSH2 0x1432 JUMP JUMPDEST DUP1 PUSH1 0x6 ADD SLOAD DUP2 PUSH1 0x9 ADD SLOAD LT PUSH2 0xD6C JUMPI PUSH1 0x40 MLOAD PUSH4 0xFC71179F PUSH1 0xE0 SHL DUP2 MSTORE PUSH1 0x4 DUP2 ADD DUP6 SWAP1 MSTORE PUSH1 0x24 ADD PUSH2 0x7FC JUMP JUMPDEST PUSH1 0x9 DUP2 ADD DUP1 SLOAD SWAP1 PUSH1 0x0 PUSH2 0xD7E DUP4 PUSH2 0x13CD JUMP JUMPDEST SWAP1 SWAP2 SSTORE POP PUSH2 0xD91 SWAP1 POP PUSH3 0x278D00 TIMESTAMP PUSH2 0x141F JUMP JUMPDEST PUSH1 0x8 DUP3 ADD SSTORE PUSH1 0x9 DUP2 ADD SLOAD PUSH1 0x5 DUP3 ADD SLOAD PUSH1 0x40 DUP1 MLOAD SWAP3 DUP4 MSTORE PUSH1 0x20 DUP4 ADD SWAP2 SWAP1 SWAP2 MSTORE DUP2 ADD DUP5 SWAP1 MSTORE TIMESTAMP PUSH1 0x60 DUP3 ADD MSTORE DUP5 SWAP1 PUSH32 0x1ABB684BE5786266CD2D235D508615B5462C110A148862A379B315EDCBA79405 SWAP1 PUSH1 0x80 ADD PUSH1 0x40 MLOAD DUP1 SWAP2 SUB SWAP1 LOG2 DUP1 PUSH1 0x6 ADD SLOAD DUP2 PUSH1 0x9 ADD SLOAD LT PUSH2 0x759 JUMPI PUSH1 0xA DUP2 ADD DUP1 SLOAD PUSH1 0xFF NOT AND PUSH1 0x3 OR SWAP1 SSTORE PUSH1 0x1 DUP2 ADD SLOAD PUSH1 0x40 MLOAD TIMESTAMP DUP2 MSTORE PUSH1 0x1 PUSH1 0x1 PUSH1 0xA0 SHL SUB SWAP1 SWAP2 AND SWAP1 DUP6 SWAP1 PUSH32 0x512D3E65B3E58C2187BB1872AA435DBA5BD09C1C03823BA56AB70AAC411E4A21 SWAP1 PUSH1 0x20 ADD PUSH2 0x8CE JUMP JUMPDEST PUSH1 0x0 PUSH2 0xE55 DUP2 PUSH2 0xF0A JUMP JUMPDEST PUSH2 0x792 PUSH1 0x0 DUP1 MLOAD PUSH1 0x20 PUSH2 0x148F DUP4 CODECOPY DUP2 MLOAD SWAP2 MSTORE DUP4 PUSH2 0xFCC JUMP JUMPDEST PUSH1 0x4 PUSH1 0x20 MSTORE DUP2 PUSH1 0x0 MSTORE PUSH1 0x40 PUSH1 0x0 KECCAK256 DUP2 DUP2 SLOAD DUP2 LT PUSH2 0xE89 JUMPI PUSH1 0x0 DUP1 REVERT JUMPDEST SWAP1 PUSH1 0x0 MSTORE PUSH1 0x20 PUSH1 0x0 KECCAK256 ADD PUSH1 0x0 SWAP2 POP SWAP2 POP POP SLOAD DUP2 JUMP JUMPDEST PUSH1 0x1 PUSH1 0x1 PUSH1 0xA0 SHL SUB DUP2 AND PUSH1 0x0 SWAP1 DUP2 MSTORE PUSH1 0x4 PUSH1 0x20 SWAP1 DUP2 MSTORE PUSH1 0x40 SWAP2 DUP3 SWAP1 KECCAK256 DUP1 SLOAD DUP4 MLOAD DUP2 DUP5 MUL DUP2 ADD DUP5 ADD SWAP1 SWAP5 MSTORE DUP1 DUP5 MSTORE PUSH1 0x60 SWAP4 SWAP3 DUP4 ADD DUP3 DUP3 DUP1 ISZERO PUSH2 0xEFE JUMPI PUSH1 0x20 MUL DUP3 ADD SWAP2 SWAP1 PUSH1 0x0 MSTORE PUSH1 0x20 PUSH1 0x0 KECCAK256 SWAP1 JUMPDEST DUP2 SLOAD DUP2 MSTORE PUSH1 0x20 ADD SWAP1 PUSH1 0x1 ADD SWAP1 DUP1 DUP4 GT PUSH2 0xEEA JUMPI JUMPDEST POP POP POP POP POP SWAP1 POP SWAP2 SWAP1 POP JUMP JUMPDEST PUSH2 0x7AA DUP2 CALLER PUSH2 0x10C4 JUMP JUMPDEST PUSH1 0x1 SLOAD PUSH1 0xFF AND ISZERO PUSH2 0xF38 JUMPI PUSH1 0x40 MLOAD PUSH4 0xD93C0665 PUSH1 0xE0 SHL DUP2 MSTORE PUSH1 0x4 ADD PUSH1 0x40 MLOAD DUP1 SWAP2 SUB SWAP1 REVERT JUMPDEST JUMP JUMPDEST PUSH1 0x0 PUSH2 0xF46 DUP4 DUP4 PUSH2 0xA0F JUMP JUMPDEST PUSH2 0xFC4 JUMPI PUSH1 0x0 DUP4 DUP2 MSTORE PUSH1 0x20 DUP2 DUP2 MSTORE PUSH1 0x40 DUP1 DUP4 KECCAK256 PUSH1 0x1 PUSH1 0x1 PUSH1 0xA0 SHL SUB DUP7 AND DUP5 MSTORE SWAP1 SWAP2 MSTORE SWAP1 KECCAK256 DUP1 SLOAD PUSH1 0xFF NOT AND PUSH1 0x1 OR SWAP1 SSTORE PUSH2 0xF7C CALLER SWAP1 JUMP JUMPDEST PUSH1 0x1 PUSH1 0x1 PUSH1 0xA0 SHL SUB AND DUP3 PUSH1 0x1 PUSH1 0x1 PUSH1 0xA0 SHL SUB AND DUP5 PUSH32 0x2F8788117E7EFF1D82E926EC794901D17C78024A50270940304540A733656F0D PUSH1 0x40 MLOAD PUSH1 0x40 MLOAD DUP1 SWAP2 SUB SWAP1 LOG4 POP PUSH1 0x1 PUSH2 0x54F JUMP JUMPDEST POP PUSH1 0x0 PUSH2 0x54F JUMP JUMPDEST PUSH1 0x0 PUSH2 0xFD8 DUP4 DUP4 PUSH2 0xA0F JUMP JUMPDEST ISZERO PUSH2 0xFC4 JUMPI PUSH1 0x0 DUP4 DUP2 MSTORE PUSH1 0x20 DUP2 DUP2 MSTORE PUSH1 0x40 DUP1 DUP4 KECCAK256 PUSH1 0x1 PUSH1 0x1 PUSH1 0xA0 SHL SUB DUP7 AND DUP1 DUP6 MSTORE SWAP3 MSTORE DUP1 DUP4 KECCAK256 DUP1 SLOAD PUSH1 0xFF NOT AND SWAP1 SSTORE MLOAD CALLER SWAP3 DUP7 SWAP2 PUSH32 0xF6391F5C32D9C69D2A47EA670B442974B53935D1EDC7FD64EB21E047A839171B SWAP2 SWAP1 LOG4 POP PUSH1 0x1 PUSH2 0x54F JUMP JUMPDEST PUSH2 0x103F PUSH2 0x1101 JUMP JUMPDEST PUSH1 0x1 DUP1 SLOAD PUSH1 0xFF NOT AND SWAP1 SSTORE PUSH32 0x5DB9EE0A495BF2E6FF9C91A7834C1BA4FDD244A5E8AA4E537BD38AEAE4B073AA CALLER JUMPDEST PUSH1 0x40 MLOAD PUSH1 0x1 PUSH1 0x1 PUSH1 0xA0 SHL SUB SWAP1 SWAP2 AND DUP2 MSTORE PUSH1 0x20 ADD PUSH1 0x40 MLOAD DUP1 SWAP2 SUB SWAP1 LOG1 JUMP JUMPDEST PUSH2 0x1091 PUSH2 0xF14 JUMP JUMPDEST PUSH1 0x1 DUP1 SLOAD PUSH1 0xFF NOT AND DUP2 OR SWAP1 SSTORE PUSH32 0x62E78CEA01BEE320CD4E420270B5EA74000D11B0C9F74754EBDBFC544B05A258 CALLER PUSH2 0x106C JUMP JUMPDEST PUSH2 0x10CE DUP3 DUP3 PUSH2 0xA0F JUMP JUMPDEST PUSH2 0x10FD JUMPI PUSH1 0x40 MLOAD PUSH4 0xE2517D3F PUSH1 0xE0 SHL DUP2 MSTORE PUSH1 0x1 PUSH1 0x1 PUSH1 0xA0 SHL SUB DUP3 AND PUSH1 0x4 DUP3 ADD MSTORE PUSH1 0x24 DUP2 ADD DUP4 SWAP1 MSTORE PUSH1 0x44 ADD PUSH2 0x7FC JUMP JUMPDEST POP POP JUMP JUMPDEST PUSH1 0x1 SLOAD PUSH1 0xFF AND PUSH2 0xF38 JUMPI PUSH1 0x40 MLOAD PUSH4 0x8DFC202B PUSH1 0xE0 SHL DUP2 MSTORE PUSH1 0x4 ADD PUSH1 0x40 MLOAD DUP1 SWAP2 SUB SWAP1 REVERT JUMPDEST PUSH1 0x0 PUSH1 0x20 DUP3 DUP5 SUB SLT ISZERO PUSH2 0x1136 JUMPI PUSH1 0x0 DUP1 REVERT JUMPDEST DUP2 CALLDATALOAD PUSH1 0x1 PUSH1 0x1 PUSH1 0xE0 SHL SUB NOT DUP2 AND DUP2 EQ PUSH2 0x114E JUMPI PUSH1 0x0 DUP1 REVERT JUMPDEST SWAP4 SWAP3 POP POP POP JUMP JUMPDEST PUSH1 0x0 PUSH1 0x20 DUP3 DUP5 SUB SLT ISZERO PUSH2 0x1167 JUMPI PUSH1 0x0 DUP1 REVERT JUMPDEST POP CALLDATALOAD SWAP2 SWAP1 POP JUMP JUMPDEST DUP1 CALLDATALOAD PUSH1 0x1 PUSH1 0x1 PUSH1 0xA0 SHL SUB DUP2 AND DUP2 EQ PUSH2 0x1185 JUMPI PUSH1 0x0 DUP1 REVERT JUMPDEST SWAP2 SWAP1 POP JUMP JUMPDEST PUSH1 0x0 DUP1 PUSH1 0x0 DUP1 PUSH1 0x0 PUSH1 0xA0 DUP7 DUP9 SUB SLT ISZERO PUSH2 0x11A2 JUMPI PUSH1 0x0 DUP1 REVERT JUMPDEST PUSH2 0x11AB DUP7 PUSH2 0x116E JUMP JUMPDEST SWAP8 PUSH1 0x20 DUP8 ADD CALLDATALOAD SWAP8 POP PUSH1 0x40 DUP8 ADD CALLDATALOAD SWAP7 PUSH1 0x60 DUP2 ADD CALLDATALOAD SWAP7 POP PUSH1 0x80 ADD CALLDATALOAD SWAP5 POP SWAP3 POP POP POP JUMP JUMPDEST PUSH1 0x0 DUP1 PUSH1 0x40 DUP4 DUP6 SUB SLT ISZERO PUSH2 0x11DF JUMPI PUSH1 0x0 DUP1 REVERT JUMPDEST DUP3 CALLDATALOAD SWAP2 POP PUSH2 0x11EF PUSH1 0x20 DUP5 ADD PUSH2 0x116E JUMP JUMPDEST SWAP1 POP SWAP3 POP SWAP3 SWAP1 POP JUMP JUMPDEST PUSH4 0x4E487B71 PUSH1 0xE0 SHL PUSH1 0x0 MSTORE PUSH1 0x21 PUSH1 0x4 MSTORE PUSH1 0x24 PUSH1 0x0 REVERT JUMPDEST PUSH1 0x5 DUP2 LT PUSH2 0x122C JUMPI PUSH4 0x4E487B71 PUSH1 0xE0 SHL PUSH1 0x0 MSTORE PUSH1 0x21 PUSH1 0x4 MSTORE PUSH1 0x24 PUSH1 0x0 REVERT JUMPDEST SWAP1 MSTORE JUMP JUMPDEST PUSH1 0x0 PUSH2 0x160 DUP3 ADD SWAP1 POP PUSH1 0x1 DUP1 PUSH1 0xA0 SHL SUB DUP14 AND DUP3 MSTORE DUP12 PUSH1 0x20 DUP4 ADD MSTORE DUP11 PUSH1 0x40 DUP4 ADD MSTORE DUP10 PUSH1 0x60 DUP4 ADD MSTORE DUP9 PUSH1 0x80 DUP4 ADD MSTORE DUP8 PUSH1 0xA0 DUP4 ADD MSTORE DUP7 PUSH1 0xC0 DUP4 ADD MSTORE DUP6 PUSH1 0xE0 DUP4 ADD MSTORE DUP5 PUSH2 0x100 DUP4 ADD MSTORE PUSH2 0x1283 PUSH2 0x120 DUP4 ADD DUP6 PUSH2 0x120E JUMP JUMPDEST DUP3 PUSH2 0x140 DUP4 ADD MSTORE SWAP13 SWAP12 POP POP POP POP POP POP POP POP POP POP POP POP JUMP JUMPDEST PUSH1 0x0 DUP1 PUSH1 0x40 DUP4 DUP6 SUB SLT ISZERO PUSH2 0x12AD JUMPI PUSH1 0x0 DUP1 REVERT JUMPDEST POP POP DUP1 CALLDATALOAD SWAP3 PUSH1 0x20 SWAP1 SWAP2 ADD CALLDATALOAD SWAP2 POP JUMP JUMPDEST PUSH1 0x0 PUSH1 0x20 DUP3 DUP5 SUB SLT ISZERO PUSH2 0x12CE JUMPI PUSH1 0x0 DUP1 REVERT JUMPDEST PUSH2 0x114E DUP3 PUSH2 0x116E JUMP JUMPDEST PUSH1 0x0 PUSH2 0x180 DUP3 ADD SWAP1 POP DUP14 DUP3 MSTORE PUSH1 0x1 DUP1 PUSH1 0xA0 SHL SUB DUP14 AND PUSH1 0x20 DUP4 ADD MSTORE DUP12 PUSH1 0x40 DUP4 ADD MSTORE DUP11 PUSH1 0x60 DUP4 ADD MSTORE DUP10 PUSH1 0x80 DUP4 ADD MSTORE DUP9 PUSH1 0xA0 DUP4 ADD MSTORE DUP8 PUSH1 0xC0 DUP4 ADD MSTORE DUP7 PUSH1 0xE0 DUP4 ADD MSTORE DUP6 PUSH2 0x100 DUP4 ADD MSTORE DUP5 PUSH2 0x120 DUP4 ADD MSTORE PUSH2 0x1331 PUSH2 0x140 DUP4 ADD DUP6 PUSH2 0x120E JUMP JUMPDEST DUP3 PUSH2 0x160 DUP4 ADD MSTORE SWAP14 SWAP13 POP POP POP POP POP POP POP POP POP POP POP POP POP JUMP JUMPDEST PUSH1 0x0 DUP1 PUSH1 0x40 DUP4 DUP6 SUB SLT ISZERO PUSH2 0x135C JUMPI PUSH1 0x0 DUP1 REVERT JUMPDEST PUSH2 0x1365 DUP4 PUSH2 0x116E JUMP JUMPDEST SWAP5 PUSH1 0x20 SWAP4 SWAP1 SWAP4 ADD CALLDATALOAD SWAP4 POP POP POP JUMP JUMPDEST PUSH1 0x20 DUP1 DUP3 MSTORE DUP3 MLOAD DUP3 DUP3 ADD DUP2 SWAP1 MSTORE PUSH1 0x0 SWAP2 SWAP1 DUP5 DUP3 ADD SWAP1 PUSH1 0x40 DUP6 ADD SWAP1 DUP5 JUMPDEST DUP2 DUP2 LT ISZERO PUSH2 0x13AB JUMPI DUP4 MLOAD DUP4 MSTORE SWAP3 DUP5 ADD SWAP3 SWAP2 DUP5 ADD SWAP2 PUSH1 0x1 ADD PUSH2 0x138F JUMP JUMPDEST POP SWAP1 SWAP7 SWAP6 POP POP POP POP POP POP JUMP JUMPDEST PUSH4 0x4E487B71 PUSH1 0xE0 SHL PUSH1 0x0 MSTORE PUSH1 0x11 PUSH1 0x4 MSTORE PUSH1 0x24 PUSH1 0x0 REVERT JUMPDEST PUSH1 0x0 PUSH1 0x1 DUP3 ADD PUSH2 0x13DF JUMPI PUSH2 0x13DF PUSH2 0x13B7 JUMP JUMPDEST POP PUSH1 0x1 ADD SWAP1 JUMP JUMPDEST DUP1 DUP3 MUL DUP2 ISZERO DUP3 DUP3 DIV DUP5 EQ OR PUSH2 0x54F JUMPI PUSH2 0x54F PUSH2 0x13B7 JUMP JUMPDEST PUSH1 0x0 DUP3 PUSH2 0x141A JUMPI PUSH4 0x4E487B71 PUSH1 0xE0 SHL PUSH1 0x0 MSTORE PUSH1 0x12 PUSH1 0x4 MSTORE PUSH1 0x24 PUSH1 0x0 REVERT JUMPDEST POP DIV SWAP1 JUMP JUMPDEST DUP1 DUP3 ADD DUP1 DUP3 GT ISZERO PUSH2 0x54F JUMPI PUSH2 0x54F PUSH2 0x13B7 JUMP JUMPDEST DUP4 DUP2 MSTORE PUSH1 0x60 DUP2 ADD PUSH2 0x1446 PUSH1 0x20 DUP4 ADD DUP6 PUSH2 0x120E JUMP JUMPDEST PUSH2 0x1453 PUSH1 0x40 DUP4 ADD DUP5 PUSH2 0x120E JUMP JUMPDEST SWAP5 SWAP4 POP POP POP POP JUMP JUMPDEST DUP2 DUP2 SUB DUP2 DUP2 GT ISZERO PUSH2 0x54F JUMPI PUSH2 0x54F PUSH2 0x13B7 JUMP INVALID 0x25 0xCF 0x2B POP SWAP16 0x2A PUSH32 0x322675B2A5322B182F44AD2C03AC941A0AF17C9B178F5D5D5F9A39467C56C9C6 0x21 NUMBER 0x2D 0xD6 SWAP9 LOG1 RETURNDATACOPY BALANCE SWAP4 CALLDATALOAD 0xDE BLOBHASH 0xD5 0x24 PUSH1 0xDE DUP7 0xA6 DUP15 CALLCODE PUSH23 0x8029AF76A2646970667358221220FAE091E47A20FEB98D BLOBBASEFEE 0xBB MULMOD PUSH21 0x3892A5485EA46D45048288BD838479C47766C76473 PUSH16 0x6C634300081800330000000000000000 "},"methodIdentifiers":{"BACKEND_ROLE()":"92c2becc","DEFAULT_ADMIN_ROLE()":"a217fddf","GROUP_LEADER_ROLE()":"6dcf5468","addGroupLeader(address)":"a19ec1ca","approvalQuorum()":"bc7acee7","approveLoan(uint256)":"aadc1ac1","borrowerLoans(address,uint256)":"e3ed1902","checkDefault(uint256)":"759135a1","createLoan(address,uint256,uint256,uint256,bytes32)":"2c35844b","getBorrowerLoans(address)":"eee8b7ff","getLoan(uint256)":"504006ca","getRoleAdmin(bytes32)":"248a9ca3","grantRole(bytes32,address)":"2f2ff15d","hasRole(bytes32,address)":"91d14854","loanApprovalCount(uint256)":"1292f9e0","loanApprovals(uint256,address)":"ccf3f07d","loanCounter()":"34d9289e","loans(uint256)":"e1ec3c68","markDisbursed(uint256,bytes32)":"592b0837","markEmiPaid(uint256,bytes32)":"d62347f3","pause()":"8456cb59","paused()":"5c975abb","removeGroupLeader(address)":"e2982cd1","renounceRole(bytes32,address)":"36568abe","revokeRole(bytes32,address)":"d547741f","setApprovalQuorum(uint256)":"961fed39","supportsInterface(bytes4)":"01ffc9a7","totalLoans()":"cc952b57","unpause()":"3f4ba83a"}}}}}