{"contracts/SHGPoolFactory.sol":{"SHGPoolFactory":{"abi":[{"inputs":[{"internalType":"address","name":"_loanManager","type":"address"},{"internalType":"address","name":"_backendWallet","type":"address"}],"stateMutability":"nonpayable","type":"constructor"},{"inputs":[],"name":"AccessControlBadConfirmation","type":"error"},{"inputs":[{"internalType":"address","name":"account","type":"address"},{"internalType":"bytes32","name":"neededRole","type":"bytes32"}],"name":"AccessControlUnauthorizedAccount","type":"error"},{"anonymous":false,"inputs":[{"indexed":true,"internalType":"address","name":"poolAddress","type":"address"},{"indexed":false,"internalType":"string","name":"shgName","type":"string"},{"indexed":false,"internalType":"uint256","name":"quorum","type":"uint256"},{"indexed":false,"internalType":"uint256","name":"memberCount","type":"uint256"},{"indexed":false,"internalType":"uint256","name":"timestamp","type":"uint256"}],"name":"PoolCreated","type":"event"},{"anonymous":false,"inputs":[{"indexed":true,"internalType":"bytes32","name":"role","type":"bytes32"},{"indexed":true,"internalType":"bytes32","name":"previousAdminRole","type":"bytes32"},{"indexed":true,"internalType":"bytes32","name":"newAdminRole","type":"bytes32"}],"name":"RoleAdminChanged","type":"event"},{"anonymous":false,"inputs":[{"indexed":true,"internalType":"bytes32","name":"role","type":"bytes32"},{"indexed":true,"internalType":"address","name":"account","type":"address"},{"indexed":true,"internalType":"address","name":"sender","type":"address"}],"name":"RoleGranted","type":"event"},{"anonymous":false,"inputs":[{"indexed":true,"internalType":"bytes32","name":"role","type":"bytes32"},{"indexed":true,"internalType":"address","name":"account","type":"address"},{"indexed":true,"internalType":"address","name":"sender","type":"address"}],"name":"RoleRevoked","type":"event"},{"inputs":[],"name":"BACKEND_ROLE","outputs":[{"internalType":"bytes32","name":"","type":"bytes32"}],"stateMutability":"view","type":"function"},{"inputs":[],"name":"DEFAULT_ADMIN_ROLE","outputs":[{"internalType":"bytes32","name":"","type":"bytes32"}],"stateMutability":"view","type":"function"},{"inputs":[],"name":"backendWallet","outputs":[{"internalType":"address","name":"","type":"address"}],"stateMutability":"view","type":"function"},{"inputs":[{"internalType":"address[]","name":"members","type":"address[]"},{"internalType":"uint256","name":"quorum","type":"uint256"},{"internalType":"string","name":"name","type":"string"}],"name":"createPool","outputs":[{"internalType":"address","name":"pool","type":"address"}],"stateMutability":"nonpayable","type":"function"},{"inputs":[{"internalType":"uint256","name":"","type":"uint256"}],"name":"deployedPools","outputs":[{"internalType":"address","name":"","type":"address"}],"stateMutability":"view","type":"function"},{"inputs":[],"name":"getAllPools","outputs":[{"internalType":"address[]","name":"","type":"address[]"}],"stateMutability":"view","type":"function"},{"inputs":[{"internalType":"bytes32","name":"role","type":"bytes32"}],"name":"getRoleAdmin","outputs":[{"internalType":"bytes32","name":"","type":"bytes32"}],"stateMutability":"view","type":"function"},{"inputs":[{"internalType":"bytes32","name":"role","type":"bytes32"},{"internalType":"address","name":"account","type":"address"}],"name":"grantRole","outputs":[],"stateMutability":"nonpayable","type":"function"},{"inputs":[{"internalType":"bytes32","name":"role","type":"bytes32"},{"internalType":"address","name":"account","type":"address"}],"name":"hasRole","outputs":[{"internalType":"bool","name":"","type":"bool"}],"stateMutability":"view","type":"function"},{"inputs":[{"internalType":"address","name":"","type":"address"}],"name":"isPool","outputs":[{"internalType":"bool","name":"","type":"bool"}],"stateMutability":"view","type":"function"},{"inputs":[],"name":"loanManagerAddress","outputs":[{"internalType":"address","name":"","type":"address"}],"stateMutability":"view","type":"function"},{"inputs":[{"internalType":"string","name":"","type":"string"}],"name":"poolByName","outputs":[{"internalType":"address","name":"","type":"address"}],"stateMutability":"view","type":"function"},{"inputs":[],"name":"poolCount","outputs":[{"internalType":"uint256","name":"","type":"uint256"}],"stateMutability":"view","type":"function"},{"inputs":[{"internalType":"bytes32","name":"role","type":"bytes32"},{"internalType":"address","name":"callerConfirmation","type":"address"}],"name":"renounceRole","outputs":[],"stateMutability":"nonpayable","type":"function"},{"inputs":[{"internalType":"bytes32","name":"role","type":"bytes32"},{"internalType":"address","name":"account","type":"address"}],"name":"revokeRole","outputs":[],"stateMutability":"nonpayable","type":"function"},{"inputs":[{"internalType":"address","name":"_backendWallet","type":"address"}],"name":"setBackendWallet","outputs":[],"stateMutability":"nonpayable","type":"function"},{"inputs":[{"internalType":"address","name":"_loanManager","type":"address"}],"name":"setLoanManager","outputs":[],"stateMutability":"nonpayable","type":"function"},{"inputs":[{"internalType":"bytes4","name":"interfaceId","type":"bytes4"}],"name":"supportsInterface","outputs":[{"internalType":"bool","name":"","type":"bool"}],"stateMutability":"view","type":"function"}],"evm":{"bytecode":{"linkReferences":{},"object":"608060405234801561001057600080fd5b50604051620029f4380380620029f483398101604081905261003191610161565b61003c600033610099565b506100677f25cf2b509f2a7f322675b2a5322b182f44ad2c03ac941a0af17c9b178f5d5d5f82610099565b50600480546001600160a01b039384166001600160a01b03199182161790915560058054929093169116179055610194565b6000828152602081815260408083206001600160a01b038516845290915281205460ff1661013b576000838152602081815260408083206001600160a01b03861684529091529020805460ff191660011790556100f33390565b6001600160a01b0316826001600160a01b0316847f2f8788117e7eff1d82e926ec794901d17c78024a50270940304540a733656f0d60405160405180910390a450600161013f565b5060005b92915050565b80516001600160a01b038116811461015c57600080fd5b919050565b6000806040838503121561017457600080fd5b61017d83610145565b915061018b60208401610145565b90509250929050565b61285080620001a46000396000f3fe60806040523480156200001157600080fd5b50600436106200012d5760003560e01c806391d1485411620000af578063a680baaf116200007a578063a680baaf14620002da578063d547741f14620002ee578063d57004ab1462000305578063d88ff1f4146200031c578063f525cb68146200033557600080fd5b806391d14854146200027b57806391d5f15e146200029257806392c2becc14620002a9578063a217fddf14620002d157600080fd5b806336568abe11620000fc57806336568abe14620001c357806340eefcbf14620001da5780635772ae7014620002075780635b16ebb7146200021e57806369133480146200024457600080fd5b806301ffc9a714620001325780630edfe7ec146200015e578063248a9ca314620001775780632f2ff15d14620001ac575b600080fd5b6200014962000143366004620008cf565b6200033e565b60405190151581526020015b60405180910390f35b620001756200016f3660046200091f565b62000376565b005b6200019d620001883660046200093d565b60009081526020819052604090206001015490565b60405190815260200162000155565b62000175620001bd36600462000957565b620003a6565b62000175620001d436600462000957565b620003d5565b600454620001ee906001600160a01b031681565b6040516001600160a01b03909116815260200162000155565b62000175620002183660046200091f565b62000410565b620001496200022f3660046200091f565b60026020526000908152604090205460ff1681565b620001ee620002553660046200099c565b80516020818301810180516003825292820191909301209152546001600160a01b031681565b620001496200028c36600462000957565b62000440565b620001ee620002a33660046200093d565b62000469565b6200019d7f25cf2b509f2a7f322675b2a5322b182f44ad2c03ac941a0af17c9b178f5d5d5f81565b6200019d600081565b600554620001ee906001600160a01b031681565b62000175620002ff36600462000957565b62000494565b620001ee6200031636600462000aa3565b620004bd565b6200032662000706565b60405162000155919062000b53565b6001546200019d565b60006001600160e01b03198216637965db0b60e01b14806200037057506301ffc9a760e01b6001600160e01b03198316145b92915050565b600062000383816200076a565b50600580546001600160a01b0319166001600160a01b0392909216919091179055565b600082815260208190526040902060010154620003c3816200076a565b620003cf838362000779565b50505050565b6001600160a01b0381163314620003ff5760405163334bd91960e11b815260040160405180910390fd5b6200040b828262000811565b505050565b60006200041d816200076a565b50600480546001600160a01b0319166001600160a01b0392909216919091179055565b6000918252602082815260408084206001600160a01b0393909316845291905290205460ff1690565b600181815481106200047a57600080fd5b6000918252602090912001546001600160a01b0316905081565b600082815260208190526040902060010154620004b1816200076a565b620003cf838362000811565b60007f25cf2b509f2a7f322675b2a5322b182f44ad2c03ac941a0af17c9b178f5d5d5f620004eb816200076a565b826200052e5760405162461bcd60e51b815260206004820152600d60248201526c13985b59481c995c5d5a5c9959609a1b60448201526064015b60405180910390fd5b60006001600160a01b0316600385856040516200054d92919062000ba2565b908152604051908190036020019020546001600160a01b031614620005b55760405162461bcd60e51b815260206004820152601860248201527f506f6f6c206e616d6520616c7265616479206578697374730000000000000000604482015260640162000525565b60008787878787600560009054906101000a90046001600160a01b0316604051620005e090620008c1565b620005f19695949392919062000bdb565b604051809103906000f0801580156200060e573d6000803e3d6000fd5b506001805480820182557fb10e2d527612073b26eecdfd717e6a320cf44b4afac2b0732d9fcbe2b7fa0cf60180546001600160a01b0319166001600160a01b03841690811790915560009081526002602052604090819020805460ff19169092179091555190935083915081906003906200068d908890889062000ba2565b90815260405190819003602001812080546001600160a01b039384166001600160a01b0319909116179055908416907fed0f801923ab9fc7ab3cac2d3085f32e08a5a30465ac5e8d23ed34d4c086b98a90620006f390889088908b908d90429062000c59565b60405180910390a2505095945050505050565b606060018054806020026020016040519081016040528092919081815260200182805480156200076057602002820191906000526020600020905b81546001600160a01b0316815260019091019060200180831162000741575b5050505050905090565b62000776813362000880565b50565b600062000787838362000440565b62000808576000838152602081815260408083206001600160a01b03861684529091529020805460ff19166001179055620007bf3390565b6001600160a01b0316826001600160a01b0316847f2f8788117e7eff1d82e926ec794901d17c78024a50270940304540a733656f0d60405160405180910390a450600162000370565b50600062000370565b60006200081f838362000440565b1562000808576000838152602081815260408083206001600160a01b0386168085529252808320805460ff1916905551339286917ff6391f5c32d9c69d2a47ea670b442974b53935d1edc7fd64eb21e047a839171b9190a450600162000370565b6200088c828262000440565b620008bd5760405163e2517d3f60e01b81526001600160a01b03821660048201526024810183905260440162000525565b5050565b611b8e8062000c8d83390190565b600060208284031215620008e257600080fd5b81356001600160e01b031981168114620008fb57600080fd5b9392505050565b80356001600160a01b03811681146200091a57600080fd5b919050565b6000602082840312156200093257600080fd5b620008fb8262000902565b6000602082840312156200095057600080fd5b5035919050565b600080604083850312156200096b57600080fd5b823591506200097d6020840162000902565b90509250929050565b634e487b7160e01b600052604160045260246000fd5b600060208284031215620009af57600080fd5b813567ffffffffffffffff80821115620009c857600080fd5b818401915084601f830112620009dd57600080fd5b813581811115620009f257620009f262000986565b604051601f8201601f19908116603f0116810190838211818310171562000a1d5762000a1d62000986565b8160405282815287602084870101111562000a3757600080fd5b826020860160208301376000928101602001929092525095945050505050565b60008083601f84011262000a6a57600080fd5b50813567ffffffffffffffff81111562000a8357600080fd5b60208301915083602082850101111562000a9c57600080fd5b9250929050565b60008060008060006060868803121562000abc57600080fd5b853567ffffffffffffffff8082111562000ad557600080fd5b818801915088601f83011262000aea57600080fd5b81358181111562000afa57600080fd5b8960208260051b850101111562000b1057600080fd5b6020928301975095509087013593506040870135908082111562000b3357600080fd5b5062000b428882890162000a57565b969995985093965092949392505050565b6020808252825182820181905260009190848201906040850190845b8181101562000b965783516001600160a01b03168352928401929184019160010162000b6f565b50909695505050505050565b8183823760009101908152919050565b81835281816020850137506000828201602090810191909152601f909101601f19169091010190565b6080808252810186905260008760a08301825b8981101562000c20576001600160a01b0362000c0a8462000902565b1682526020928301929091019060010162000bee565b50876020850152838103604085015262000c3c81878962000bb2565b9250505060018060a01b0383166060830152979650505050505050565b60808152600062000c6f60808301878962000bb2565b60208301959095525060408101929092526060909101529291505056fe60806040523480156200001157600080fd5b5060405162001b8e38038062001b8e8339810160408190526200003491620003c9565b60017f9b779b17422d0df92223018b32b4d1fa46e071723d6817e2486d003becc55f0055835183118062000066575082155b156200009c57835160405163158589c560e11b815262000093918591600401918252602082015260400190565b60405180910390fd5b6002620000aa838262000557565b5082600381905550620000e46000801b85600081518110620000d057620000d062000623565b60200260200101516200022760201b60201c565b50620001117f25cf2b509f2a7f322675b2a5322b182f44ad2c03ac941a0af17c9b178f5d5d5f8262000227565b5060005b84518110156200021757620001597fa870f1a91ab66a18174ae285449a007bea36a28441e5b44a847deb90f83e86eb868381518110620000d057620000d062000623565b50600485828151811062000171576200017162000623565b60209081029190910181015182546001810184556000938452919092200180546001600160a01b0319166001600160a01b039092169190911790558451859082908110620001c357620001c362000623565b60200260200101516001600160a01b03167fede8eed4383e9241982619b94dd83e488b274cced0fd07b8c0092a393defd52f426040516200020691815260200190565b60405180910390a260010162000115565b5050915160055550620006399050565b6000828152602081815260408083206001600160a01b038516845290915281205460ff16620002cc576000838152602081815260408083206001600160a01b03861684529091529020805460ff19166001179055620002833390565b6001600160a01b0316826001600160a01b0316847f2f8788117e7eff1d82e926ec794901d17c78024a50270940304540a733656f0d60405160405180910390a4506001620002d0565b5060005b92915050565b634e487b7160e01b600052604160045260246000fd5b604051601f8201601f191681016001600160401b0381118282101715620003175762000317620002d6565b604052919050565b80516001600160a01b03811681146200033757600080fd5b919050565b600082601f8301126200034e57600080fd5b81516001600160401b038111156200036a576200036a620002d6565b602062000380601f8301601f19168201620002ec565b82815285828487010111156200039557600080fd5b60005b83811015620003b557858101830151828201840152820162000398565b506000928101909101919091529392505050565b60008060008060808587031215620003e057600080fd5b84516001600160401b0380821115620003f857600080fd5b818701915087601f8301126200040d57600080fd5b8151602082821115620004245762000424620002d6565b8160051b62000435828201620002ec565b928352848101820192828101908c8511156200045057600080fd5b958301955b84871015620004795762000469876200031f565b8252958301959083019062000455565b928b015160408c0151939a509850919450505050808211156200049b57600080fd5b50620004aa878288016200033c565b925050620004bb606086016200031f565b905092959194509250565b600181811c90821680620004db57607f821691505b602082108103620004fc57634e487b7160e01b600052602260045260246000fd5b50919050565b601f82111562000552576000816000526020600020601f850160051c810160208610156200052d5750805b601f850160051c820191505b818110156200054e5782815560010162000539565b5050505b505050565b81516001600160401b03811115620005735762000573620002d6565b6200058b81620005848454620004c6565b8462000502565b602080601f831160018114620005c35760008415620005aa5750858301515b600019600386901b1c1916600185901b1785556200054e565b600085815260208120601f198616915b82811015620005f457888601518255948401946001909101908401620005d3565b5085821015620006135787850151600019600388901b60f8161c191681555b5050505050600190811b01905550565b634e487b7160e01b600052603260045260246000fd5b61154580620006496000396000f3fe608060405234801561001057600080fd5b50600436106101c45760003560e01c80638456cb59116100f9578063bbfe6e9511610097578063cca810b411610071578063cca810b4146103dd578063d2c7ff1d146103f0578063d547741f14610405578063da35c6641461041857600080fd5b8063bbfe6e95146103a4578063c1ba4e59146103b7578063ca6d56dc146103ca57600080fd5b80639b644a23116100d35780639b644a231461035f5780639eab525314610372578063a217fddf14610387578063a2e4aff01461038f57600080fd5b80638456cb591461032f57806391d148541461033757806392c2becc1461034a57600080fd5b806336568abe11610166578063430694cf11610140578063430694cf146102d05780635c975abb146102f05780635daf08ca146102fb5780637b7a91dd1461032657600080fd5b806336568abe146102a257806337376ca8146102b55780633f4ba83a146102c857600080fd5b80631c72f477116101a25780631c72f4771461021d57806323cdc3f114610230578063248a9ca31461026c5780632f2ff15d1461028f57600080fd5b806301ffc9a7146101c95780630b1ca49a146101f157806311aee38014610206575b600080fd5b6101dc6101d73660046111d5565b610420565b60405190151581526020015b60405180910390f35b6102046101ff366004611222565b610457565b005b61020f60055481565b6040519081526020016101e8565b61020f61022b36600461123d565b61055d565b6101dc61023e366004611270565b60008281526006602081815260408084206001600160a01b0386168552909201905290205460ff1692915050565b61020f61027a36600461129c565b60009081526020819052604090206001015490565b61020461029d366004611270565b6106db565b6102046102b0366004611270565b610706565b6102046102c336600461129c565b61073e565b610204610803565b6102e36102de36600461129c565b610819565b6040516101e891906112cb565b60015460ff166101dc565b61030e61030936600461129c565b6108d6565b6040516001600160a01b0390911681526020016101e8565b61020f60035481565b610204610900565b6101dc610345366004611270565b610913565b61020f6000805160206114d083398151915281565b61020f61036d36600461129c565b61093c565b61037a61095d565b6040516101e8919061133f565b61020f600081565b61020f6000805160206114f083398151915281565b6102046103b236600461129c565b6109bf565b6102046103c536600461129c565b610b24565b6102046103d8366004611222565b610bbf565b6102046103eb36600461129c565b610cc9565b6103f8610d94565b6040516101e8919061138c565b610204610413366004611270565b610e22565b60075461020f565b60006001600160e01b03198216637965db0b60e01b148061045157506301ffc9a760e01b6001600160e01b03198316145b92915050565b6000805160206114d083398151915261046f81610e47565b6104876000805160206114f083398151915283610913565b6104b4576040516305b5850b60e21b81526001600160a01b03831660048201526024015b60405180910390fd5b6001600554116104d757604051631e7a69c760e11b815260040160405180910390fd5b6104ef6000805160206114f083398151915283610e51565b506104f982610ec4565b60058054906000610509836113f1565b9190505550816001600160a01b03167f3ac963493df564de734d98633f1145d21512e282ba4c02d3c1011119bf7f28624260405161054991815260200190565b60405180910390a2610559610fc0565b5050565b60006000805160206114f083398151915261057781610e47565b61057f61103c565b836000036105a057604051631f2a200560e01b815260040160405180910390fd5b826000036105c1576040516310ea797760e21b815260040160405180910390fd5b6040516bffffffffffffffffffffffff19606087811b82166020840152603483018790526054830186905242607484015233901b16609482015260a80160408051601f19818403018152828252805160209182012060008181526006835283812080546001600160a01b038c166001600160a01b03199091168117825560018083018c9055600283018b905560048301805460ff1916905542600584018190556007805492830181559094527fa66cc928b5edb82af9bd49922954155ab7b0942694bea4ce44661d9a8736c688018490558a8752938601899052938501529450909184907fe472ccb43567ead18e0a5ab5fc18ea662086722b995fdb07acbfa69a0870f8909060600160405180910390a350509392505050565b6000828152602081905260409020600101546106f681610e47565b6107008383611062565b50505050565b6001600160a01b038116331461072f5760405163334bd91960e11b815260040160405180910390fd5b6107398282610e51565b505050565b600061074981610e47565b600082815260066020526040812090600482015460ff166003811115610771576107716112b5565b1415801561079857506001600482015460ff166003811115610795576107956112b5565b14155b156107b95760405163673b9f7960e01b8152600481018490526024016104ab565b60048101805460ff1916600317905560405142815283907ff233010736b479389e8407578c649b70dcb06774c4d29149e88ed7016c8adb0f906020015b60405180910390a2505050565b600061080e81610e47565b6108166110ec565b50565b6040805160e081018252600080825260208201819052918101829052606081018290526080810182905260a0810182905260c0810191909152600082815260066020908152604091829020825160e08101845285815281546001600160a01b031692810192909252600181015492820192909252600282015460608201526003808301546080830152600483015460a083019160ff909116908111156108c1576108c16112b5565b81526020018260050154815250915050919050565b600481815481106108e657600080fd5b6000918252602090912001546001600160a01b0316905081565b600061090b81610e47565b61081661113e565b6000918252602082815260408084206001600160a01b0393909316845291905290205460ff1690565b6007818154811061094c57600080fd5b600091825260209091200154905081565b606060048054806020026020016040519081016040528092919081815260200182805480156109b557602002820191906000526020600020905b81546001600160a01b03168152600190910190602001808311610997575b5050505050905090565b6000805160206114f08339815191526109d781610e47565b6109df61103c565b600082815260066020526040812090600482015460ff166003811115610a0757610a076112b5565b14610a285760405163673b9f7960e01b8152600481018490526024016104ab565b33600090815260068201602052604090205460ff1615610a645760405163a72db78760e01b8152600481018490523360248201526044016104ab565b3360009081526006820160205260408120805460ff1916600117905560038201805491610a9083611408565b9091555050600381015460408051918252426020830152339185917fe895d70c3b87b1a0e588b36f9e205812d1add9e1922b742f701f9f1ede9c4518910160405180910390a36003548160030154106107395760048101805460ff1916600117905560405142815283907f410613247e15ac57cbe0cc3a561977b2e5f575bbb9c14bda555892a5c6cd45ab906020016107f6565b6000610b2f81610e47565b811580610b3d575060055482115b15610b695760055460405163158589c560e11b81526104ab918491600401918252602082015260400190565b6003805490839055600554604080518381526020810186905280820192909252426060830152517f129596072d877b7b622388d822109317fe76714a3b8c79bdbcd6f1b98d04e9699181900360800190a1505050565b6000805160206114d0833981519152610bd781610e47565b610bef6000805160206114f083398151915283610913565b15610c1857604051630268f92960e01b81526001600160a01b03831660048201526024016104ab565b610c306000805160206114f083398151915283611062565b506004805460018101825560009182527f8a35acfbc15ff81a39ae7d344fd709f28e8600b4aa8c65c6b64bfe7fe36bd19b0180546001600160a01b0319166001600160a01b0385161790556005805491610c8983611408565b9190505550816001600160a01b03167fede8eed4383e9241982619b94dd83e488b274cced0fd07b8c0092a393defd52f4260405161054991815260200190565b6000805160206114d0833981519152610ce181610e47565b610ce961103c565b60008281526006602052604090206001600482015460ff166003811115610d1257610d126112b5565b14610d335760405163032523ab60e21b8152600481018490526024016104ab565b60048101805460ff1916600217905580546001820154604080519182524260208301526001600160a01b039092169185917fe7f058d766bcf692b36a916e42738033024c2102a616c0d98bbd06ba962e38bd910160405180910390a3505050565b60028054610da190611421565b80601f0160208091040260200160405190810160405280929190818152602001828054610dcd90611421565b8015610e1a5780601f10610def57610100808354040283529160200191610e1a565b820191906000526020600020905b815481529060010190602001808311610dfd57829003601f168201915b505050505081565b600082815260208190526040902060010154610e3d81610e47565b6107008383610e51565b6108168133611179565b6000610e5d8383610913565b15610ebc576000838152602081815260408083206001600160a01b0386168085529252808320805460ff1916905551339286917ff6391f5c32d9c69d2a47ea670b442974b53935d1edc7fd64eb21e047a839171b9190a4506001610451565b506000610451565b60045460005b8181101561073957826001600160a01b031660048281548110610eef57610eef61145b565b6000918252602090912001546001600160a01b031603610fb8576004610f16600184611471565b81548110610f2657610f2661145b565b600091825260209091200154600480546001600160a01b039092169183908110610f5257610f5261145b565b9060005260206000200160006101000a8154816001600160a01b0302191690836001600160a01b031602179055506004805480610f9157610f91611484565b600082815260209020810160001990810180546001600160a01b0319169055019055505050565b600101610eca565b60006002600554610fd1919061149a565b610fdc9060016114bc565b90506003548114610816576003805490829055600554604080518381526020810185905280820192909252426060830152517f129596072d877b7b622388d822109317fe76714a3b8c79bdbcd6f1b98d04e9699181900360800190a15050565b60015460ff16156110605760405163d93c066560e01b815260040160405180910390fd5b565b600061106e8383610913565b610ebc576000838152602081815260408083206001600160a01b03861684529091529020805460ff191660011790556110a43390565b6001600160a01b0316826001600160a01b0316847f2f8788117e7eff1d82e926ec794901d17c78024a50270940304540a733656f0d60405160405180910390a4506001610451565b6110f46111b2565b6001805460ff191690557f5db9ee0a495bf2e6ff9c91a7834c1ba4fdd244a5e8aa4e537bd38aeae4b073aa335b6040516001600160a01b03909116815260200160405180910390a1565b61114661103c565b6001805460ff1916811790557f62e78cea01bee320cd4e420270b5ea74000d11b0c9f74754ebdbfc544b05a25833611121565b6111838282610913565b6105595760405163e2517d3f60e01b81526001600160a01b0382166004820152602481018390526044016104ab565b60015460ff1661106057604051638dfc202b60e01b815260040160405180910390fd5b6000602082840312156111e757600080fd5b81356001600160e01b0319811681146111ff57600080fd5b9392505050565b80356001600160a01b038116811461121d57600080fd5b919050565b60006020828403121561123457600080fd5b6111ff82611206565b60008060006060848603121561125257600080fd5b61125b84611206565b95602085013595506040909401359392505050565b6000806040838503121561128357600080fd5b8235915061129360208401611206565b90509250929050565b6000602082840312156112ae57600080fd5b5035919050565b634e487b7160e01b600052602160045260246000fd5b815181526020808301516001600160a01b03169082015260408083015190820152606080830151908201526080808301519082015260a082015160e08201906004811061132857634e487b7160e01b600052602160045260246000fd5b8060a08401525060c083015160c083015292915050565b6020808252825182820181905260009190848201906040850190845b818110156113805783516001600160a01b03168352928401929184019160010161135b565b50909695505050505050565b60006020808352835180602085015260005b818110156113ba5785810183015185820160400152820161139e565b506000604082860101526040601f19601f8301168501019250505092915050565b634e487b7160e01b600052601160045260246000fd5b600081611400576114006113db565b506000190190565b60006001820161141a5761141a6113db565b5060010190565b600181811c9082168061143557607f821691505b60208210810361145557634e487b7160e01b600052602260045260246000fd5b50919050565b634e487b7160e01b600052603260045260246000fd5b81810381811115610451576104516113db565b634e487b7160e01b600052603160045260246000fd5b6000826114b757634e487b7160e01b600052601260045260246000fd5b500490565b80820180821115610451576104516113db56fe25cf2b509f2a7f322675b2a5322b182f44ad2c03ac941a0af17c9b178f5d5d5fa870f1a91ab66a18174ae285449a007bea36a28441e5b44a847deb90f83e86eba264697066735822122056649ce1f945429c6e87374ee9c389fd3b742bf50cb4d56dcb01bfef7e542d6b64736f6c63430008180033a264697066735822122058449c6c6551e785360d7f10be06d3703e7b1eb09a4bcddecb3ce66e8bb6033764736f6c63430008180033","opcodes":"PUSH1 0x80 PUSH1 0x40 MSTORE CALLVALUE DUP1 ISZERO PUSH2 0x10 JUMPI PUSH1 0x0 DUP1 REVERT JUMPDEST POP PUSH1 0x40 MLOAD PUSH3 0x29F4 CODESIZE SUB DUP1 PUSH3 0x29F4 DUP4 CODECOPY DUP2 ADD PUSH1 0x40 DUP2 SWAP1 MSTORE PUSH2 0x31 SWAP2 PUSH2 0x161 JUMP JUMPDEST PUSH2 0x3C PUSH1 0x0 CALLER PUSH2 0x99 JUMP JUMPDEST POP PUSH2 0x67 PUSH32 0x25CF2B509F2A7F322675B2A5322B182F44AD2C03AC941A0AF17C9B178F5D5D5F DUP3 PUSH2 0x99 JUMP JUMPDEST POP PUSH1 0x4 DUP1 SLOAD PUSH1 0x1 PUSH1 0x1 PUSH1 0xA0 SHL SUB SWAP4 DUP5 AND PUSH1 0x1 PUSH1 0x1 PUSH1 0xA0 SHL SUB NOT SWAP2 DUP3 AND OR SWAP1 SWAP2 SSTORE PUSH1 0x5 DUP1 SLOAD SWAP3 SWAP1 SWAP4 AND SWAP2 AND OR SWAP1 SSTORE PUSH2 0x194 JUMP JUMPDEST PUSH1 0x0 DUP3 DUP2 MSTORE PUSH1 0x20 DUP2 DUP2 MSTORE PUSH1 0x40 DUP1 DUP4 KECCAK256 PUSH1 0x1 PUSH1 0x1 PUSH1 0xA0 SHL SUB DUP6 AND DUP5 MSTORE SWAP1 SWAP2 MSTORE DUP2 KECCAK256 SLOAD PUSH1 0xFF AND PUSH2 0x13B JUMPI PUSH1 0x0 DUP4 DUP2 MSTORE PUSH1 0x20 DUP2 DUP2 MSTORE PUSH1 0x40 DUP1 DUP4 KECCAK256 PUSH1 0x1 PUSH1 0x1 PUSH1 0xA0 SHL SUB DUP7 AND DUP5 MSTORE SWAP1 SWAP2 MSTORE SWAP1 KECCAK256 DUP1 SLOAD PUSH1 0xFF NOT AND PUSH1 0x1 OR SWAP1 SSTORE PUSH2 0xF3 CALLER SWAP1 JUMP JUMPDEST PUSH1 0x1 PUSH1 0x1 PUSH1 0xA0 SHL SUB AND DUP3 PUSH1 0x1 PUSH1 0x1 PUSH1 0xA0 SHL SUB AND DUP5 PUSH32 0x2F8788117E7EFF1D82E926EC794901D17C78024A50270940304540A733656F0D PUSH1 0x40 MLOAD PUSH1 0x40 MLOAD DUP1 SWAP2 SUB SWAP1 LOG4 POP PUSH1 0x1 PUSH2 0x13F JUMP JUMPDEST POP PUSH1 0x0 JUMPDEST SWAP3 SWAP2 POP POP JUMP JUMPDEST DUP1 MLOAD PUSH1 0x1 PUSH1 0x1 PUSH1 0xA0 SHL SUB DUP2 AND DUP2 EQ PUSH2 0x15C JUMPI PUSH1 0x0 DUP1 REVERT JUMPDEST SWAP2 SWAP1 POP JUMP JUMPDEST PUSH1 0x0 DUP1 PUSH1 0x40 DUP4 DUP6 SUB SLT ISZERO PUSH2 0x174 JUMPI PUSH1 0x0 DUP1 REVERT JUMPDEST PUSH2 0x17D DUP4 PUSH2 0x145 JUMP JUMPDEST SWAP2 POP PUSH2 0x18B PUSH1 0x20 DUP5 ADD PUSH2 0x145 JUMP JUMPDEST SWAP1 POP SWAP3 POP SWAP3 SWAP1 POP JUMP JUMPDEST PUSH2 0x2850 DUP1 PUSH3 0x1A4 PUSH1 0x0 CODECOPY PUSH1 0x0 RETURN INVALID PUSH1 0x80 PUSH1 0x40 MSTORE CALLVALUE DUP1 ISZERO PUSH3 0x11 JUMPI PUSH1 0x0 DUP1 REVERT JUMPDEST POP PUSH1 0x4 CALLDATASIZE LT PUSH3 0x12D JUMPI PUSH1 0x0 CALLDATALOAD PUSH1 0xE0 SHR DUP1 PUSH4 0x91D14854 GT PUSH3 0xAF JUMPI DUP1 PUSH4 0xA680BAAF GT PUSH3 0x7A JUMPI DUP1 PUSH4 0xA680BAAF EQ PUSH3 0x2DA JUMPI DUP1 PUSH4 0xD547741F EQ PUSH3 0x2EE JUMPI DUP1 PUSH4 0xD57004AB EQ PUSH3 0x305 JUMPI DUP1 PUSH4 0xD88FF1F4 EQ PUSH3 0x31C JUMPI DUP1 PUSH4 0xF525CB68 EQ PUSH3 0x335 JUMPI PUSH1 0x0 DUP1 REVERT JUMPDEST DUP1 PUSH4 0x91D14854 EQ PUSH3 0x27B JUMPI DUP1 PUSH4 0x91D5F15E EQ PUSH3 0x292 JUMPI DUP1 PUSH4 0x92C2BECC EQ PUSH3 0x2A9 JUMPI DUP1 PUSH4 0xA217FDDF EQ PUSH3 0x2D1 JUMPI PUSH1 0x0 DUP1 REVERT JUMPDEST DUP1 PUSH4 0x36568ABE GT PUSH3 0xFC JUMPI DUP1 PUSH4 0x36568ABE EQ PUSH3 0x1C3 JUMPI DUP1 PUSH4 0x40EEFCBF EQ PUSH3 0x1DA JUMPI DUP1 PUSH4 0x5772AE70 EQ PUSH3 0x207 JUMPI DUP1 PUSH4 0x5B16EBB7 EQ PUSH3 0x21E JUMPI DUP1 PUSH4 0x69133480 EQ PUSH3 0x244 JUMPI PUSH1 0x0 DUP1 REVERT JUMPDEST DUP1 PUSH4 0x1FFC9A7 EQ PUSH3 0x132 JUMPI DUP1 PUSH4 0xEDFE7EC EQ PUSH3 0x15E JUMPI DUP1 PUSH4 0x248A9CA3 EQ PUSH3 0x177 JUMPI DUP1 PUSH4 0x2F2FF15D EQ PUSH3 0x1AC JUMPI JUMPDEST PUSH1 0x0 DUP1 REVERT JUMPDEST PUSH3 0x149 PUSH3 0x143 CALLDATASIZE PUSH1 0x4 PUSH3 0x8CF JUMP JUMPDEST PUSH3 0x33E JUMP JUMPDEST PUSH1 0x40 MLOAD SWAP1 ISZERO ISZERO DUP2 MSTORE PUSH1 0x20 ADD JUMPDEST PUSH1 0x40 MLOAD DUP1 SWAP2 SUB SWAP1 RETURN JUMPDEST PUSH3 0x175 PUSH3 0x16F CALLDATASIZE PUSH1 0x4 PUSH3 0x91F JUMP JUMPDEST PUSH3 0x376 JUMP JUMPDEST STOP JUMPDEST PUSH3 0x19D PUSH3 0x188 CALLDATASIZE PUSH1 0x4 PUSH3 0x93D JUMP JUMPDEST PUSH1 0x0 SWAP1 DUP2 MSTORE PUSH1 0x20 DUP2 SWAP1 MSTORE PUSH1 0x40 SWAP1 KECCAK256 PUSH1 0x1 ADD SLOAD SWAP1 JUMP JUMPDEST PUSH1 0x40 MLOAD SWAP1 DUP2 MSTORE PUSH1 0x20 ADD PUSH3 0x155 JUMP JUMPDEST PUSH3 0x175 PUSH3 0x1BD CALLDATASIZE PUSH1 0x4 PUSH3 0x957 JUMP JUMPDEST PUSH3 0x3A6 JUMP JUMPDEST PUSH3 0x175 PUSH3 0x1D4 CALLDATASIZE PUSH1 0x4 PUSH3 0x957 JUMP JUMPDEST PUSH3 0x3D5 JUMP JUMPDEST PUSH1 0x4 SLOAD PUSH3 0x1EE SWAP1 PUSH1 0x1 PUSH1 0x1 PUSH1 0xA0 SHL SUB AND DUP2 JUMP JUMPDEST PUSH1 0x40 MLOAD PUSH1 0x1 PUSH1 0x1 PUSH1 0xA0 SHL SUB SWAP1 SWAP2 AND DUP2 MSTORE PUSH1 0x20 ADD PUSH3 0x155 JUMP JUMPDEST PUSH3 0x175 PUSH3 0x218 CALLDATASIZE PUSH1 0x4 PUSH3 0x91F JUMP JUMPDEST PUSH3 0x410 JUMP JUMPDEST PUSH3 0x149 PUSH3 0x22F CALLDATASIZE PUSH1 0x4 PUSH3 0x91F JUMP JUMPDEST PUSH1 0x2 PUSH1 0x20 MSTORE PUSH1 0x0 SWAP1 DUP2 MSTORE PUSH1 0x40 SWAP1 KECCAK256 SLOAD PUSH1 0xFF AND DUP2 JUMP JUMPDEST PUSH3 0x1EE PUSH3 0x255 CALLDATASIZE PUSH1 0x4 PUSH3 0x99C JUMP JUMPDEST DUP1 MLOAD PUSH1 0x20 DUP2 DUP4 ADD DUP2 ADD DUP1 MLOAD PUSH1 0x3 DUP3 MSTORE SWAP3 DUP3 ADD SWAP2 SWAP1 SWAP4 ADD KECCAK256 SWAP2 MSTORE SLOAD PUSH1 0x1 PUSH1 0x1 PUSH1 0xA0 SHL SUB AND DUP2 JUMP JUMPDEST PUSH3 0x149 PUSH3 0x28C CALLDATASIZE PUSH1 0x4 PUSH3 0x957 JUMP JUMPDEST PUSH3 0x440 JUMP JUMPDEST PUSH3 0x1EE PUSH3 0x2A3 CALLDATASIZE PUSH1 0x4 PUSH3 0x93D JUMP JUMPDEST PUSH3 0x469 JUMP JUMPDEST PUSH3 0x19D PUSH32 0x25CF2B509F2A7F322675B2A5322B182F44AD2C03AC941A0AF17C9B178F5D5D5F DUP2 JUMP JUMPDEST PUSH3 0x19D PUSH1 0x0 DUP2 JUMP JUMPDEST PUSH1 0x5 SLOAD PUSH3 0x1EE SWAP1 PUSH1 0x1 PUSH1 0x1 PUSH1 0xA0 SHL SUB AND DUP2 JUMP JUMPDEST PUSH3 0x175 PUSH3 0x2FF CALLDATASIZE PUSH1 0x4 PUSH3 0x957 JUMP JUMPDEST PUSH3 0x494 JUMP JUMPDEST PUSH3 0x1EE PUSH3 0x316 CALLDATASIZE PUSH1 0x4 PUSH3 0xAA3 JUMP JUMPDEST PUSH3 0x4BD JUMP JUMPDEST PUSH3 0x326 PUSH3 0x706 JUMP JUMPDEST PUSH1 0x40 MLOAD PUSH3 0x155 SWAP2 SWAP1 PUSH3 0xB53 JUMP JUMPDEST PUSH1 0x1 SLOAD PUSH3 0x19D JUMP JUMPDEST PUSH1 0x0 PUSH1 0x1 PUSH1 0x1 PUSH1 0xE0 SHL SUB NOT DUP3 AND PUSH4 0x7965DB0B PUSH1 0xE0 SHL EQ DUP1 PUSH3 0x370 JUMPI POP PUSH4 0x1FFC9A7 PUSH1 0xE0 SHL PUSH1 0x1 PUSH1 0x1 PUSH1 0xE0 SHL SUB NOT DUP4 AND EQ JUMPDEST SWAP3 SWAP2 POP POP JUMP JUMPDEST PUSH1 0x0 PUSH3 0x383 DUP2 PUSH3 0x76A JUMP JUMPDEST POP PUSH1 0x5 DUP1 SLOAD PUSH1 0x1 PUSH1 0x1 PUSH1 0xA0 SHL SUB NOT AND PUSH1 0x1 PUSH1 0x1 PUSH1 0xA0 SHL SUB SWAP3 SWAP1 SWAP3 AND SWAP2 SWAP1 SWAP2 OR SWAP1 SSTORE JUMP JUMPDEST PUSH1 0x0 DUP3 DUP2 MSTORE PUSH1 0x20 DUP2 SWAP1 MSTORE PUSH1 0x40 SWAP1 KECCAK256 PUSH1 0x1 ADD SLOAD PUSH3 0x3C3 DUP2 PUSH3 0x76A JUMP JUMPDEST PUSH3 0x3CF DUP4 DUP4 PUSH3 0x779 JUMP JUMPDEST POP POP POP POP JUMP JUMPDEST PUSH1 0x1 PUSH1 0x1 PUSH1 0xA0 SHL SUB DUP2 AND CALLER EQ PUSH3 0x3FF JUMPI PUSH1 0x40 MLOAD PUSH4 0x334BD919 PUSH1 0xE1 SHL DUP2 MSTORE PUSH1 0x4 ADD PUSH1 0x40 MLOAD DUP1 SWAP2 SUB SWAP1 REVERT JUMPDEST PUSH3 0x40B DUP3 DUP3 PUSH3 0x811 JUMP JUMPDEST POP POP POP JUMP JUMPDEST PUSH1 0x0 PUSH3 0x41D DUP2 PUSH3 0x76A JUMP JUMPDEST POP PUSH1 0x4 DUP1 SLOAD PUSH1 0x1 PUSH1 0x1 PUSH1 0xA0 SHL SUB NOT AND PUSH1 0x1 PUSH1 0x1 PUSH1 0xA0 SHL SUB SWAP3 SWAP1 SWAP3 AND SWAP2 SWAP1 SWAP2 OR SWAP1 SSTORE JUMP JUMPDEST PUSH1 0x0 SWAP2 DUP3 MSTORE PUSH1 0x20 DUP3 DUP2 MSTORE PUSH1 0x40 DUP1 DUP5 KECCAK256 PUSH1 0x1 PUSH1 0x1 PUSH1 0xA0 SHL SUB SWAP4 SWAP1 SWAP4 AND DUP5 MSTORE SWAP2 SWAP1 MSTORE SWAP1 KECCAK256 SLOAD PUSH1 0xFF AND SWAP1 JUMP JUMPDEST PUSH1 0x1 DUP2 DUP2 SLOAD DUP2 LT PUSH3 0x47A JUMPI PUSH1 0x0 DUP1 REVERT JUMPDEST PUSH1 0x0 SWAP2 DUP3 MSTORE PUSH1 0x20 SWAP1 SWAP2 KECCAK256 ADD SLOAD PUSH1 0x1 PUSH1 0x1 PUSH1 0xA0 SHL SUB AND SWAP1 POP DUP2 JUMP JUMPDEST PUSH1 0x0 DUP3 DUP2 MSTORE PUSH1 0x20 DUP2 SWAP1 MSTORE PUSH1 0x40 SWAP1 KECCAK256 PUSH1 0x1 ADD SLOAD PUSH3 0x4B1 DUP2 PUSH3 0x76A JUMP JUMPDEST PUSH3 0x3CF DUP4 DUP4 PUSH3 0x811 JUMP JUMPDEST PUSH1 0x0 PUSH32 0x25CF2B509F2A7F322675B2A5322B182F44AD2C03AC941A0AF17C9B178F5D5D5F PUSH3 0x4EB DUP2 PUSH3 0x76A JUMP JUMPDEST DUP3 PUSH3 0x52E JUMPI PUSH1 0x40 MLOAD PUSH3 0x461BCD PUSH1 0xE5 SHL DUP2 MSTORE PUSH1 0x20 PUSH1 0x4 DUP3 ADD MSTORE PUSH1 0xD PUSH1 0x24 DUP3 ADD MSTORE PUSH13 0x13985B59481C995C5D5A5C9959 PUSH1 0x9A SHL PUSH1 0x44 DUP3 ADD MSTORE PUSH1 0x64 ADD JUMPDEST PUSH1 0x40 MLOAD DUP1 SWAP2 SUB SWAP1 REVERT JUMPDEST PUSH1 0x0 PUSH1 0x1 PUSH1 0x1 PUSH1 0xA0 SHL SUB AND PUSH1 0x3 DUP6 DUP6 PUSH1 0x40 MLOAD PUSH3 0x54D SWAP3 SWAP2 SWAP1 PUSH3 0xBA2 JUMP JUMPDEST SWAP1 DUP2 MSTORE PUSH1 0x40 MLOAD SWAP1 DUP2 SWAP1 SUB PUSH1 0x20 ADD SWAP1 KECCAK256 SLOAD PUSH1 0x1 PUSH1 0x1 PUSH1 0xA0 SHL SUB AND EQ PUSH3 0x5B5 JUMPI PUSH1 0x40 MLOAD PUSH3 0x461BCD PUSH1 0xE5 SHL DUP2 MSTORE PUSH1 0x20 PUSH1 0x4 DUP3 ADD MSTORE PUSH1 0x18 PUSH1 0x24 DUP3 ADD MSTORE PUSH32 0x506F6F6C206E616D6520616C7265616479206578697374730000000000000000 PUSH1 0x44 DUP3 ADD MSTORE PUSH1 0x64 ADD PUSH3 0x525 JUMP JUMPDEST PUSH1 0x0 DUP8 DUP8 DUP8 DUP8 DUP8 PUSH1 0x5 PUSH1 0x0 SWAP1 SLOAD SWAP1 PUSH2 0x100 EXP SWAP1 DIV PUSH1 0x1 PUSH1 0x1 PUSH1 0xA0 SHL SUB AND PUSH1 0x40 MLOAD PUSH3 0x5E0 SWAP1 PUSH3 0x8C1 JUMP JUMPDEST PUSH3 0x5F1 SWAP7 SWAP6 SWAP5 SWAP4 SWAP3 SWAP2 SWAP1 PUSH3 0xBDB JUMP JUMPDEST PUSH1 0x40 MLOAD DUP1 SWAP2 SUB SWAP1 PUSH1 0x0 CREATE DUP1 ISZERO DUP1 ISZERO PUSH3 0x60E JUMPI RETURNDATASIZE PUSH1 0x0 DUP1 RETURNDATACOPY RETURNDATASIZE PUSH1 0x0 REVERT JUMPDEST POP PUSH1 0x1 DUP1 SLOAD DUP1 DUP3 ADD DUP3 SSTORE PUSH32 0xB10E2D527612073B26EECDFD717E6A320CF44B4AFAC2B0732D9FCBE2B7FA0CF6 ADD DUP1 SLOAD PUSH1 0x1 PUSH1 0x1 PUSH1 0xA0 SHL SUB NOT AND PUSH1 0x1 PUSH1 0x1 PUSH1 0xA0 SHL SUB DUP5 AND SWAP1 DUP2 OR SWAP1 SWAP2 SSTORE PUSH1 0x0 SWAP1 DUP2 MSTORE PUSH1 0x2 PUSH1 0x20 MSTORE PUSH1 0x40 SWAP1 DUP2 SWAP1 KECCAK256 DUP1 SLOAD PUSH1 0xFF NOT AND SWAP1 SWAP3 OR SWAP1 SWAP2 SSTORE MLOAD SWAP1 SWAP4 POP DUP4 SWAP2 POP DUP2 SWAP1 PUSH1 0x3 SWAP1 PUSH3 0x68D SWAP1 DUP9 SWAP1 DUP9 SWAP1 PUSH3 0xBA2 JUMP JUMPDEST SWAP1 DUP2 MSTORE PUSH1 0x40 MLOAD SWAP1 DUP2 SWAP1 SUB PUSH1 0x20 ADD DUP2 KECCAK256 DUP1 SLOAD PUSH1 0x1 PUSH1 0x1 PUSH1 0xA0 SHL SUB SWAP4 DUP5 AND PUSH1 0x1 PUSH1 0x1 PUSH1 0xA0 SHL SUB NOT SWAP1 SWAP2 AND OR SWAP1 SSTORE SWAP1 DUP5 AND SWAP1 PUSH32 0xED0F801923AB9FC7AB3CAC2D3085F32E08A5A30465AC5E8D23ED34D4C086B98A SWAP1 PUSH3 0x6F3 SWAP1 DUP9 SWAP1 DUP9 SWAP1 DUP12 SWAP1 DUP14 SWAP1 TIMESTAMP SWAP1 PUSH3 0xC59 JUMP JUMPDEST PUSH1 0x40 MLOAD DUP1 SWAP2 SUB SWAP1 LOG2 POP POP SWAP6 SWAP5 POP POP POP POP POP JUMP JUMPDEST PUSH1 0x60 PUSH1 0x1 DUP1 SLOAD DUP1 PUSH1 0x20 MUL PUSH1 0x20 ADD PUSH1 0x40 MLOAD SWAP1 DUP2 ADD PUSH1 0x40 MSTORE DUP1 SWAP3 SWAP2 SWAP1 DUP2 DUP2 MSTORE PUSH1 0x20 ADD DUP3 DUP1 SLOAD DUP1 ISZERO PUSH3 0x760 JUMPI PUSH1 0x20 MUL DUP3 ADD SWAP2 SWAP1 PUSH1 0x0 MSTORE PUSH1 0x20 PUSH1 0x0 KECCAK256 SWAP1 JUMPDEST DUP2 SLOAD PUSH1 0x1 PUSH1 0x1 PUSH1 0xA0 SHL SUB AND DUP2 MSTORE PUSH1 0x1 SWAP1 SWAP2 ADD SWAP1 PUSH1 0x20 ADD DUP1 DUP4 GT PUSH3 0x741 JUMPI JUMPDEST POP POP POP POP POP SWAP1 POP SWAP1 JUMP JUMPDEST PUSH3 0x776 DUP2 CALLER PUSH3 0x880 JUMP JUMPDEST POP JUMP JUMPDEST PUSH1 0x0 PUSH3 0x787 DUP4 DUP4 PUSH3 0x440 JUMP JUMPDEST PUSH3 0x808 JUMPI PUSH1 0x0 DUP4 DUP2 MSTORE PUSH1 0x20 DUP2 DUP2 MSTORE PUSH1 0x40 DUP1 DUP4 KECCAK256 PUSH1 0x1 PUSH1 0x1 PUSH1 0xA0 SHL SUB DUP7 AND DUP5 MSTORE SWAP1 SWAP2 MSTORE SWAP1 KECCAK256 DUP1 SLOAD PUSH1 0xFF NOT AND PUSH1 0x1 OR SWAP1 SSTORE PUSH3 0x7BF CALLER SWAP1 JUMP JUMPDEST PUSH1 0x1 PUSH1 0x1 PUSH1 0xA0 SHL SUB AND DUP3 PUSH1 0x1 PUSH1 0x1 PUSH1 0xA0 SHL SUB AND DUP5 PUSH32 0x2F8788117E7EFF1D82E926EC794901D17C78024A50270940304540A733656F0D PUSH1 0x40 MLOAD PUSH1 0x40 MLOAD DUP1 SWAP2 SUB SWAP1 LOG4 POP PUSH1 0x1 PUSH3 0x370 JUMP JUMPDEST POP PUSH1 0x0 PUSH3 0x370 JUMP JUMPDEST PUSH1 0x0 PUSH3 0x81F DUP4 DUP4 PUSH3 0x440 JUMP JUMPDEST ISZERO PUSH3 0x808 JUMPI PUSH1 0x0 DUP4 DUP2 MSTORE PUSH1 0x20 DUP2 DUP2 MSTORE PUSH1 0x40 DUP1 DUP4 KECCAK256 PUSH1 0x1 PUSH1 0x1 PUSH1 0xA0 SHL SUB DUP7 AND DUP1 DUP6 MSTORE SWAP3 MSTORE DUP1 DUP4 KECCAK256 DUP1 SLOAD PUSH1 0xFF NOT AND SWAP1 SSTORE MLOAD CALLER SWAP3 DUP7 SWAP2 PUSH32 0xF6391F5C32D9C69D2A47EA670B442974B53935D1EDC7FD64EB21E047A839171B SWAP2 SWAP1 LOG4 POP PUSH1 0x1 PUSH3 0x370 JUMP JUMPDEST PUSH3 0x88C DUP3 DUP3 PUSH3 0x440 JUMP JUMPDEST PUSH3 0x8BD JUMPI PUSH1 0x40 MLOAD PUSH4 0xE2517D3F PUSH1 0xE0 SHL DUP2 MSTORE PUSH1 0x1 PUSH1 0x1 PUSH1 0xA0 SHL SUB DUP3 AND PUSH1 0x4 DUP3 ADD MSTORE PUSH1 0x24 DUP2 ADD DUP4 SWAP1 MSTORE PUSH1 0x44 ADD PUSH3 0x525 JUMP JUMPDEST POP POP JUMP JUMPDEST PUSH2 0x1B8E DUP1 PUSH3 0xC8D DUP4 CODECOPY ADD SWAP1 JUMP JUMPDEST PUSH1 0x0 PUSH1 0x20 DUP3 DUP5 SUB SLT ISZERO PUSH3 0x8E2 JUMPI PUSH1 0x0 DUP1 REVERT JUMPDEST DUP2 CALLDATALOAD PUSH1 0x1 PUSH1 0x1 PUSH1 0xE0 SHL SUB NOT DUP2 AND DUP2 EQ PUSH3 0x8FB JUMPI PUSH1 0x0 DUP1 REVERT JUMPDEST SWAP4 SWAP3 POP POP POP JUMP JUMPDEST DUP1 CALLDATALOAD PUSH1 0x1 PUSH1 0x1 PUSH1 0xA0 SHL SUB DUP2 AND DUP2 EQ PUSH3 0x91A JUMPI PUSH1 0x0 DUP1 REVERT JUMPDEST SWAP2 SWAP1 POP JUMP JUMPDEST PUSH1 0x0 PUSH1 0x20 DUP3 DUP5 SUB SLT ISZERO PUSH3 0x932 JUMPI PUSH1 0x0 DUP1 REVERT JUMPDEST PUSH3 0x8FB DUP3 PUSH3 0x902 JUMP JUMPDEST PUSH1 0x0 PUSH1 0x20 DUP3 DUP5 SUB SLT ISZERO PUSH3 0x950 JUMPI PUSH1 0x0 DUP1 REVERT JUMPDEST POP CALLDATALOAD SWAP2 SWAP1 POP JUMP JUMPDEST PUSH1 0x0 DUP1 PUSH1 0x40 DUP4 DUP6 SUB SLT ISZERO PUSH3 0x96B JUMPI PUSH1 0x0 DUP1 REVERT JUMPDEST DUP3 CALLDATALOAD SWAP2 POP PUSH3 0x97D PUSH1 0x20 DUP5 ADD PUSH3 0x902 JUMP JUMPDEST SWAP1 POP SWAP3 POP SWAP3 SWAP1 POP JUMP JUMPDEST PUSH4 0x4E487B71 PUSH1 0xE0 SHL PUSH1 0x0 MSTORE PUSH1 0x41 PUSH1 0x4 MSTORE PUSH1 0x24 PUSH1 0x0 REVERT JUMPDEST PUSH1 0x0 PUSH1 0x20 DUP3 DUP5 SUB SLT ISZERO PUSH3 0x9AF JUMPI PUSH1 0x0 DUP1 REVERT JUMPDEST DUP2 CALLDATALOAD PUSH8 0xFFFFFFFFFFFFFFFF DUP1 DUP3 GT ISZERO PUSH3 0x9C8 JUMPI PUSH1 0x0 DUP1 REVERT JUMPDEST DUP2 DUP5 ADD SWAP2 POP DUP5 PUSH1 0x1F DUP4 ADD SLT PUSH3 0x9DD JUMPI PUSH1 0x0 DUP1 REVERT JUMPDEST DUP2 CALLDATALOAD DUP2 DUP2 GT ISZERO PUSH3 0x9F2 JUMPI PUSH3 0x9F2 PUSH3 0x986 JUMP JUMPDEST PUSH1 0x40 MLOAD PUSH1 0x1F DUP3 ADD PUSH1 0x1F NOT SWAP1 DUP2 AND PUSH1 0x3F ADD AND DUP2 ADD SWAP1 DUP4 DUP3 GT DUP2 DUP4 LT OR ISZERO PUSH3 0xA1D JUMPI PUSH3 0xA1D PUSH3 0x986 JUMP JUMPDEST DUP2 PUSH1 0x40 MSTORE DUP3 DUP2 MSTORE DUP8 PUSH1 0x20 DUP5 DUP8 ADD ADD GT ISZERO PUSH3 0xA37 JUMPI PUSH1 0x0 DUP1 REVERT JUMPDEST DUP3 PUSH1 0x20 DUP7 ADD PUSH1 0x20 DUP4 ADD CALLDATACOPY PUSH1 0x0 SWAP3 DUP2 ADD PUSH1 0x20 ADD SWAP3 SWAP1 SWAP3 MSTORE POP SWAP6 SWAP5 POP POP POP POP POP JUMP JUMPDEST PUSH1 0x0 DUP1 DUP4 PUSH1 0x1F DUP5 ADD SLT PUSH3 0xA6A JUMPI PUSH1 0x0 DUP1 REVERT JUMPDEST POP DUP2 CALLDATALOAD PUSH8 0xFFFFFFFFFFFFFFFF DUP2 GT ISZERO PUSH3 0xA83 JUMPI PUSH1 0x0 DUP1 REVERT JUMPDEST PUSH1 0x20 DUP4 ADD SWAP2 POP DUP4 PUSH1 0x20 DUP3 DUP6 ADD ADD GT ISZERO PUSH3 0xA9C JUMPI PUSH1 0x0 DUP1 REVERT JUMPDEST SWAP3 POP SWAP3 SWAP1 POP JUMP JUMPDEST PUSH1 0x0 DUP1 PUSH1 0x0 DUP1 PUSH1 0x0 PUSH1 0x60 DUP7 DUP9 SUB SLT ISZERO PUSH3 0xABC JUMPI PUSH1 0x0 DUP1 REVERT JUMPDEST DUP6 CALLDATALOAD PUSH8 0xFFFFFFFFFFFFFFFF DUP1 DUP3 GT ISZERO PUSH3 0xAD5 JUMPI PUSH1 0x0 DUP1 REVERT JUMPDEST DUP2 DUP9 ADD SWAP2 POP DUP9 PUSH1 0x1F DUP4 ADD SLT PUSH3 0xAEA JUMPI PUSH1 0x0 DUP1 REVERT JUMPDEST DUP2 CALLDATALOAD DUP2 DUP2 GT ISZERO PUSH3 0xAFA JUMPI PUSH1 0x0 DUP1 REVERT JUMPDEST DUP10 PUSH1 0x20 DUP3 PUSH1 0x5 SHL DUP6 ADD ADD GT ISZERO PUSH3 0xB10 JUMPI PUSH1 0x0 DUP1 REVERT JUMPDEST PUSH1 0x20 SWAP3 DUP4 ADD SWAP8 POP SWAP6 POP SWAP1 DUP8 ADD CALLDATALOAD SWAP4 POP PUSH1 0x40 DUP8 ADD CALLDATALOAD SWAP1 DUP1 DUP3 GT ISZERO PUSH3 0xB33 JUMPI PUSH1 0x0 DUP1 REVERT JUMPDEST POP PUSH3 0xB42 DUP9 DUP3 DUP10 ADD PUSH3 0xA57 JUMP JUMPDEST SWAP7 SWAP10 SWAP6 SWAP9 POP SWAP4 SWAP7 POP SWAP3 SWAP5 SWAP4 SWAP3 POP POP POP JUMP JUMPDEST PUSH1 0x20 DUP1 DUP3 MSTORE DUP3 MLOAD DUP3 DUP3 ADD DUP2 SWAP1 MSTORE PUSH1 0x0 SWAP2 SWAP1 DUP5 DUP3 ADD SWAP1 PUSH1 0x40 DUP6 ADD SWAP1 DUP5 JUMPDEST DUP2 DUP2 LT ISZERO PUSH3 0xB96 JUMPI DUP4 MLOAD PUSH1 0x1 PUSH1 0x1 PUSH1 0xA0 SHL SUB AND DUP4 MSTORE SWAP3 DUP5 ADD SWAP3 SWAP2 DUP5 ADD SWAP2 PUSH1 0x1 ADD PUSH3 0xB6F JUMP JUMPDEST POP SWAP1 SWAP7 SWAP6 POP POP POP POP POP POP JUMP JUMPDEST DUP2 DUP4 DUP3 CALLDATACOPY PUSH1 0x0 SWAP2 ADD SWAP1 DUP2 MSTORE SWAP2 SWAP1 POP JUMP JUMPDEST DUP2 DUP4 MSTORE DUP2 DUP2 PUSH1 0x20 DUP6 ADD CALLDATACOPY POP PUSH1 0x0 DUP3 DUP3 ADD PUSH1 0x20 SWAP1 DUP2 ADD SWAP2 SWAP1 SWAP2 MSTORE PUSH1 0x1F SWAP1 SWAP2 ADD PUSH1 0x1F NOT AND SWAP1 SWAP2 ADD ADD SWAP1 JUMP JUMPDEST PUSH1 0x80 DUP1 DUP3 MSTORE DUP2 ADD DUP7 SWAP1 MSTORE PUSH1 0x0 DUP8 PUSH1 0xA0 DUP4 ADD DUP3 JUMPDEST DUP10 DUP2 LT ISZERO PUSH3 0xC20 JUMPI PUSH1 0x1 PUSH1 0x1 PUSH1 0xA0 SHL SUB PUSH3 0xC0A DUP5 PUSH3 0x902 JUMP JUMPDEST AND DUP3 MSTORE PUSH1 0x20 SWAP3 DUP4 ADD SWAP3 SWAP1 SWAP2 ADD SWAP1 PUSH1 0x1 ADD PUSH3 0xBEE JUMP JUMPDEST POP DUP8 PUSH1 0x20 DUP6 ADD MSTORE DUP4 DUP2 SUB PUSH1 0x40 DUP6 ADD MSTORE PUSH3 0xC3C DUP2 DUP8 DUP10 PUSH3 0xBB2 JUMP JUMPDEST SWAP3 POP POP POP PUSH1 0x1 DUP1 PUSH1 0xA0 SHL SUB DUP4 AND PUSH1 0x60 DUP4 ADD MSTORE SWAP8 SWAP7 POP POP POP POP POP POP POP JUMP JUMPDEST PUSH1 0x80 DUP2 MSTORE PUSH1 0x0 PUSH3 0xC6F PUSH1 0x80 DUP4 ADD DUP8 DUP10 PUSH3 0xBB2 JUMP JUMPDEST PUSH1 0x20 DUP4 ADD SWAP6 SWAP1 SWAP6 MSTORE POP PUSH1 0x40 DUP2 ADD SWAP3 SWAP1 SWAP3 MSTORE PUSH1 0x60 SWAP1 SWAP2 ADD MSTORE SWAP3 SWAP2 POP POP JUMP INVALID PUSH1 0x80 PUSH1 0x40 MSTORE CALLVALUE DUP1 ISZERO PUSH3 0x11 JUMPI PUSH1 0x0 DUP1 REVERT JUMPDEST POP PUSH1 0x40 MLOAD PUSH3 0x1B8E CODESIZE SUB DUP1 PUSH3 0x1B8E DUP4 CODECOPY DUP2 ADD PUSH1 0x40 DUP2 SWAP1 MSTORE PUSH3 0x34 SWAP2 PUSH3 0x3C9 JUMP JUMPDEST PUSH1 0x1 PUSH32 0x9B779B17422D0DF92223018B32B4D1FA46E071723D6817E2486D003BECC55F00 SSTORE DUP4 MLOAD DUP4 GT DUP1 PUSH3 0x66 JUMPI POP DUP3 ISZERO JUMPDEST ISZERO PUSH3 0x9C JUMPI DUP4 MLOAD PUSH1 0x40 MLOAD PUSH4 0x158589C5 PUSH1 0xE1 SHL DUP2 MSTORE PUSH3 0x93 SWAP2 DUP6 SWAP2 PUSH1 0x4 ADD SWAP2 DUP3 MSTORE PUSH1 0x20 DUP3 ADD MSTORE PUSH1 0x40 ADD SWAP1 JUMP JUMPDEST PUSH1 0x40 MLOAD DUP1 SWAP2 SUB SWAP1 REVERT JUMPDEST PUSH1 0x2 PUSH3 0xAA DUP4 DUP3 PUSH3 0x557 JUMP JUMPDEST POP DUP3 PUSH1 0x3 DUP2 SWAP1 SSTORE POP PUSH3 0xE4 PUSH1 0x0 DUP1 SHL DUP6 PUSH1 0x0 DUP2 MLOAD DUP2 LT PUSH3 0xD0 JUMPI PUSH3 0xD0 PUSH3 0x623 JUMP JUMPDEST PUSH1 0x20 MUL PUSH1 0x20 ADD ADD MLOAD PUSH3 0x227 PUSH1 0x20 SHL PUSH1 0x20 SHR JUMP JUMPDEST POP PUSH3 0x111 PUSH32 0x25CF2B509F2A7F322675B2A5322B182F44AD2C03AC941A0AF17C9B178F5D5D5F DUP3 PUSH3 0x227 JUMP JUMPDEST POP PUSH1 0x0 JUMPDEST DUP5 MLOAD DUP2 LT ISZERO PUSH3 0x217 JUMPI PUSH3 0x159 PUSH32 0xA870F1A91AB66A18174AE285449A007BEA36A28441E5B44A847DEB90F83E86EB DUP7 DUP4 DUP2 MLOAD DUP2 LT PUSH3 0xD0 JUMPI PUSH3 0xD0 PUSH3 0x623 JUMP JUMPDEST POP PUSH1 0x4 DUP6 DUP3 DUP2 MLOAD DUP2 LT PUSH3 0x171 JUMPI PUSH3 0x171 PUSH3 0x623 JUMP JUMPDEST PUSH1 0x20 SWAP1 DUP2 MUL SWAP2 SWAP1 SWAP2 ADD DUP2 ADD MLOAD DUP3 SLOAD PUSH1 0x1 DUP2 ADD DUP5 SSTORE PUSH1 0x0 SWAP4 DUP5 MSTORE SWAP2 SWAP1 SWAP3 KECCAK256 ADD DUP1 SLOAD PUSH1 0x1 PUSH1 0x1 PUSH1 0xA0 SHL SUB NOT AND PUSH1 0x1 PUSH1 0x1 PUSH1 0xA0 SHL SUB SWAP1 SWAP3 AND SWAP2 SWAP1 SWAP2 OR SWAP1 SSTORE DUP5 MLOAD DUP6 SWAP1 DUP3 SWAP1 DUP2 LT PUSH3 0x1C3 JUMPI PUSH3 0x1C3 PUSH3 0x623 JUMP JUMPDEST PUSH1 0x20 MUL PUSH1 0x20 ADD ADD MLOAD PUSH1 0x1 PUSH1 0x1 PUSH1 0xA0 SHL SUB AND PUSH32 0xEDE8EED4383E9241982619B94DD83E488B274CCED0FD07B8C0092A393DEFD52F TIMESTAMP PUSH1 0x40 MLOAD PUSH3 0x206 SWAP2 DUP2 MSTORE PUSH1 0x20 ADD SWAP1 JUMP JUMPDEST PUSH1 0x40 MLOAD DUP1 SWAP2 SUB SWAP1 LOG2 PUSH1 0x1 ADD PUSH3 0x115 JUMP JUMPDEST POP POP SWAP2 MLOAD PUSH1 0x5 SSTORE POP PUSH3 0x639 SWAP1 POP JUMP JUMPDEST PUSH1 0x0 DUP3 DUP2 MSTORE PUSH1 0x20 DUP2 DUP2 MSTORE PUSH1 0x40 DUP1 DUP4 KECCAK256 PUSH1 0x1 PUSH1 0x1 PUSH1 0xA0 SHL SUB DUP6 AND DUP5 MSTORE SWAP1 SWAP2 MSTORE DUP2 KECCAK256 SLOAD PUSH1 0xFF AND PUSH3 0x2CC JUMPI PUSH1 0x0 DUP4 DUP2 MSTORE PUSH1 0x20 DUP2 DUP2 MSTORE PUSH1 0x40 DUP1 DUP4 KECCAK256 PUSH1 0x1 PUSH1 0x1 PUSH1 0xA0 SHL SUB DUP7 AND DUP5 MSTORE SWAP1 SWAP2 MSTORE SWAP1 KECCAK256 DUP1 SLOAD PUSH1 0xFF NOT AND PUSH1 0x1 OR SWAP1 SSTORE PUSH3 0x283 CALLER SWAP1 JUMP JUMPDEST PUSH1 0x1 PUSH1 0x1 PUSH1 0xA0 SHL SUB AND DUP3 PUSH1 0x1 PUSH1 0x1 PUSH1 0xA0 SHL SUB AND DUP5 PUSH32 0x2F8788117E7EFF1D82E926EC794901D17C78024A50270940304540A733656F0D PUSH1 0x40 MLOAD PUSH1 0x40 MLOAD DUP1 SWAP2 SUB SWAP1 LOG4 POP PUSH1 0x1 PUSH3 0x2D0 JUMP JUMPDEST POP PUSH1 0x0 JUMPDEST SWAP3 SWAP2 POP POP JUMP JUMPDEST PUSH4 0x4E487B71 PUSH1 0xE0 SHL PUSH1 0x0 MSTORE PUSH1 0x41 PUSH1 0x4 MSTORE PUSH1 0x24 PUSH1 0x0 REVERT JUMPDEST PUSH1 0x40 MLOAD PUSH1 0x1F DUP3 ADD PUSH1 0x1F NOT AND DUP2 ADD PUSH1 0x1 PUSH1 0x1 PUSH1 0x40 SHL SUB DUP2 GT DUP3 DUP3 LT OR ISZERO PUSH3 0x317 JUMPI PUSH3 0x317 PUSH3 0x2D6 JUMP JUMPDEST PUSH1 0x40 MSTORE SWAP2 SWAP1 POP JUMP JUMPDEST DUP1 MLOAD PUSH1 0x1 PUSH1 0x1 PUSH1 0xA0 SHL SUB DUP2 AND DUP2 EQ PUSH3 0x337 JUMPI PUSH1 0x0 DUP1 REVERT JUMPDEST SWAP2 SWAP1 POP JUMP JUMPDEST PUSH1 0x0 DUP3 PUSH1 0x1F DUP4 ADD SLT PUSH3 0x34E JUMPI PUSH1 0x0 DUP1 REVERT JUMPDEST DUP2 MLOAD PUSH1 0x1 PUSH1 0x1 PUSH1 0x40 SHL SUB DUP2 GT ISZERO PUSH3 0x36A JUMPI PUSH3 0x36A PUSH3 0x2D6 JUMP JUMPDEST PUSH1 0x20 PUSH3 0x380 PUSH1 0x1F DUP4 ADD PUSH1 0x1F NOT AND DUP3 ADD PUSH3 0x2EC JUMP JUMPDEST DUP3 DUP2 MSTORE DUP6 DUP3 DUP5 DUP8 ADD ADD GT ISZERO PUSH3 0x395 JUMPI PUSH1 0x0 DUP1 REVERT JUMPDEST PUSH1 0x0 JUMPDEST DUP4 DUP2 LT ISZERO PUSH3 0x3B5 JUMPI DUP6 DUP2 ADD DUP4 ADD MLOAD DUP3 DUP3 ADD DUP5 ADD MSTORE DUP3 ADD PUSH3 0x398 JUMP JUMPDEST POP PUSH1 0x0 SWAP3 DUP2 ADD SWAP1 SWAP2 ADD SWAP2 SWAP1 SWAP2 MSTORE SWAP4 SWAP3 POP POP POP JUMP JUMPDEST PUSH1 0x0 DUP1 PUSH1 0x0 DUP1 PUSH1 0x80 DUP6 DUP8 SUB SLT ISZERO PUSH3 0x3E0 JUMPI PUSH1 0x0 DUP1 REVERT JUMPDEST DUP5 MLOAD PUSH1 0x1 PUSH1 0x1 PUSH1 0x40 SHL SUB DUP1 DUP3 GT ISZERO PUSH3 0x3F8 JUMPI PUSH1 0x0 DUP1 REVERT JUMPDEST DUP2 DUP8 ADD SWAP2 POP DUP8 PUSH1 0x1F DUP4 ADD SLT PUSH3 0x40D JUMPI PUSH1 0x0 DUP1 REVERT JUMPDEST DUP2 MLOAD PUSH1 0x20 DUP3 DUP3 GT ISZERO PUSH3 0x424 JUMPI PUSH3 0x424 PUSH3 0x2D6 JUMP JUMPDEST DUP2 PUSH1 0x5 SHL PUSH3 0x435 DUP3 DUP3 ADD PUSH3 0x2EC JUMP JUMPDEST SWAP3 DUP4 MSTORE DUP5 DUP2 ADD DUP3 ADD SWAP3 DUP3 DUP2 ADD SWAP1 DUP13 DUP6 GT ISZERO PUSH3 0x450 JUMPI PUSH1 0x0 DUP1 REVERT JUMPDEST SWAP6 DUP4 ADD SWAP6 JUMPDEST DUP5 DUP8 LT ISZERO PUSH3 0x479 JUMPI PUSH3 0x469 DUP8 PUSH3 0x31F JUMP JUMPDEST DUP3 MSTORE SWAP6 DUP4 ADD SWAP6 SWAP1 DUP4 ADD SWAP1 PUSH3 0x455 JUMP JUMPDEST SWAP3 DUP12 ADD MLOAD PUSH1 0x40 DUP13 ADD MLOAD SWAP4 SWAP11 POP SWAP9 POP SWAP2 SWAP5 POP POP POP POP DUP1 DUP3 GT ISZERO PUSH3 0x49B JUMPI PUSH1 0x0 DUP1 REVERT JUMPDEST POP PUSH3 0x4AA DUP8 DUP3 DUP9 ADD PUSH3 0x33C JUMP JUMPDEST SWAP3 POP POP PUSH3 0x4BB PUSH1 0x60 DUP7 ADD PUSH3 0x31F JUMP JUMPDEST SWAP1 POP SWAP3 SWAP6 SWAP2 SWAP5 POP SWAP3 POP JUMP JUMPDEST PUSH1 0x1 DUP2 DUP2 SHR SWAP1 DUP3 AND DUP1 PUSH3 0x4DB JUMPI PUSH1 0x7F DUP3 AND SWAP2 POP JUMPDEST PUSH1 0x20 DUP3 LT DUP2 SUB PUSH3 0x4FC JUMPI PUSH4 0x4E487B71 PUSH1 0xE0 SHL PUSH1 0x0 MSTORE PUSH1 0x22 PUSH1 0x4 MSTORE PUSH1 0x24 PUSH1 0x0 REVERT JUMPDEST POP SWAP2 SWAP1 POP JUMP JUMPDEST PUSH1 0x1F DUP3 GT ISZERO PUSH3 0x552 JUMPI PUSH1 0x0 DUP2 PUSH1 0x0 MSTORE PUSH1 0x20 PUSH1 0x0 KECCAK256 PUSH1 0x1F DUP6 ADD PUSH1 0x5 SHR DUP2 ADD PUSH1 0x20 DUP7 LT ISZERO PUSH3 0x52D JUMPI POP DUP1 JUMPDEST PUSH1 0x1F DUP6 ADD PUSH1 0x5 SHR DUP3 ADD SWAP2 POP JUMPDEST DUP2 DUP2 LT ISZERO PUSH3 0x54E JUMPI DUP3 DUP2 SSTORE PUSH1 0x1 ADD PUSH3 0x539 JUMP JUMPDEST POP POP POP JUMPDEST POP POP POP JUMP JUMPDEST DUP2 MLOAD PUSH1 0x1 PUSH1 0x1 PUSH1 0x40 SHL SUB DUP2 GT ISZERO PUSH3 0x573 JUMPI PUSH3 0x573 PUSH3 0x2D6 JUMP JUMPDEST PUSH3 0x58B DUP2 PUSH3 0x584 DUP5 SLOAD PUSH3 0x4C6 JUMP JUMPDEST DUP5 PUSH3 0x502 JUMP JUMPDEST PUSH1 0x20 DUP1 PUSH1 0x1F DUP4 GT PUSH1 0x1 DUP2 EQ PUSH3 0x5C3 JUMPI PUSH1 0x0 DUP5 ISZERO PUSH3 0x5AA JUMPI POP DUP6 DUP4 ADD MLOAD JUMPDEST PUSH1 0x0 NOT PUSH1 0x3 DUP7 SWAP1 SHL SHR NOT AND PUSH1 0x1 DUP6 SWAP1 SHL OR DUP6 SSTORE PUSH3 0x54E JUMP JUMPDEST PUSH1 0x0 DUP6 DUP2 MSTORE PUSH1 0x20 DUP2 KECCAK256 PUSH1 0x1F NOT DUP7 AND SWAP2 JUMPDEST DUP3 DUP2 LT ISZERO PUSH3 0x5F4 JUMPI DUP9 DUP7 ADD MLOAD DUP3 SSTORE SWAP5 DUP5 ADD SWAP5 PUSH1 0x1 SWAP1 SWAP2 ADD SWAP1 DUP5 ADD PUSH3 0x5D3 JUMP JUMPDEST POP DUP6 DUP3 LT ISZERO PUSH3 0x613 JUMPI DUP8 DUP6 ADD MLOAD PUSH1 0x0 NOT PUSH1 0x3 DUP9 SWAP1 SHL PUSH1 0xF8 AND SHR NOT AND DUP2 SSTORE JUMPDEST POP POP POP POP POP PUSH1 0x1 SWAP1 DUP2 SHL ADD SWAP1 SSTORE POP JUMP JUMPDEST PUSH4 0x4E487B71 PUSH1 0xE0 SHL PUSH1 0x0 MSTORE PUSH1 0x32 PUSH1 0x4 MSTORE PUSH1 0x24 PUSH1 0x0 REVERT JUMPDEST PUSH2 0x1545 DUP1 PUSH3 0x649 PUSH1 0x0 CODECOPY PUSH1 0x0 RETURN INVALID PUSH1 0x80 PUSH1 0x40 MSTORE CALLVALUE DUP1 ISZERO PUSH2 0x10 JUMPI PUSH1 0x0 DUP1 REVERT JUMPDEST POP PUSH1 0x4 CALLDATASIZE LT PUSH2 0x1C4 JUMPI PUSH1 0x0 CALLDATALOAD PUSH1 0xE0 SHR DUP1 PUSH4 0x8456CB59 GT PUSH2 0xF9 JUMPI DUP1 PUSH4 0xBBFE6E95 GT PUSH2 0x97 JUMPI DUP1 PUSH4 0xCCA810B4 GT PUSH2 0x71 JUMPI DUP1 PUSH4 0xCCA810B4 EQ PUSH2 0x3DD JUMPI DUP1 PUSH4 0xD2C7FF1D EQ PUSH2 0x3F0 JUMPI DUP1 PUSH4 0xD547741F EQ PUSH2 0x405 JUMPI DUP1 PUSH4 0xDA35C664 EQ PUSH2 0x418 JUMPI PUSH1 0x0 DUP1 REVERT JUMPDEST DUP1 PUSH4 0xBBFE6E95 EQ PUSH2 0x3A4 JUMPI DUP1 PUSH4 0xC1BA4E59 EQ PUSH2 0x3B7 JUMPI DUP1 PUSH4 0xCA6D56DC EQ PUSH2 0x3CA JUMPI PUSH1 0x0 DUP1 REVERT JUMPDEST DUP1 PUSH4 0x9B644A23 GT PUSH2 0xD3 JUMPI DUP1 PUSH4 0x9B644A23 EQ PUSH2 0x35F JUMPI DUP1 PUSH4 0x9EAB5253 EQ PUSH2 0x372 JUMPI DUP1 PUSH4 0xA217FDDF EQ PUSH2 0x387 JUMPI DUP1 PUSH4 0xA2E4AFF0 EQ PUSH2 0x38F JUMPI PUSH1 0x0 DUP1 REVERT JUMPDEST DUP1 PUSH4 0x8456CB59 EQ PUSH2 0x32F JUMPI DUP1 PUSH4 0x91D14854 EQ PUSH2 0x337 JUMPI DUP1 PUSH4 0x92C2BECC EQ PUSH2 0x34A JUMPI PUSH1 0x0 DUP1 REVERT JUMPDEST DUP1 PUSH4 0x36568ABE GT PUSH2 0x166 JUMPI DUP1 PUSH4 0x430694CF GT PUSH2 0x140 JUMPI DUP1 PUSH4 0x430694CF EQ PUSH2 0x2D0 JUMPI DUP1 PUSH4 0x5C975ABB EQ PUSH2 0x2F0 JUMPI DUP1 PUSH4 0x5DAF08CA EQ PUSH2 0x2FB JUMPI DUP1 PUSH4 0x7B7A91DD EQ PUSH2 0x326 JUMPI PUSH1 0x0 DUP1 REVERT JUMPDEST DUP1 PUSH4 0x36568ABE EQ PUSH2 0x2A2 JUMPI DUP1 PUSH4 0x37376CA8 EQ PUSH2 0x2B5 JUMPI DUP1 PUSH4 0x3F4BA83A EQ PUSH2 0x2C8 JUMPI PUSH1 0x0 DUP1 REVERT JUMPDEST DUP1 PUSH4 0x1C72F477 GT PUSH2 0x1A2 JUMPI DUP1 PUSH4 0x1C72F477 EQ PUSH2 0x21D JUMPI DUP1 PUSH4 0x23CDC3F1 EQ PUSH2 0x230 JUMPI DUP1 PUSH4 0x248A9CA3 EQ PUSH2 0x26C JUMPI DUP1 PUSH4 0x2F2FF15D EQ PUSH2 0x28F JUMPI PUSH1 0x0 DUP1 REVERT JUMPDEST DUP1 PUSH4 0x1FFC9A7 EQ PUSH2 0x1C9 JUMPI DUP1 PUSH4 0xB1CA49A EQ PUSH2 0x1F1 JUMPI DUP1 PUSH4 0x11AEE380 EQ PUSH2 0x206 JUMPI JUMPDEST PUSH1 0x0 DUP1 REVERT JUMPDEST PUSH2 0x1DC PUSH2 0x1D7 CALLDATASIZE PUSH1 0x4 PUSH2 0x11D5 JUMP JUMPDEST PUSH2 0x420 JUMP JUMPDEST PUSH1 0x40 MLOAD SWAP1 ISZERO ISZERO DUP2 MSTORE PUSH1 0x20 ADD JUMPDEST PUSH1 0x40 MLOAD DUP1 SWAP2 SUB SWAP1 RETURN JUMPDEST PUSH2 0x204 PUSH2 0x1FF CALLDATASIZE PUSH1 0x4 PUSH2 0x1222 JUMP JUMPDEST PUSH2 0x457 JUMP JUMPDEST STOP JUMPDEST PUSH2 0x20F PUSH1 0x5 SLOAD DUP2 JUMP JUMPDEST PUSH1 0x40 MLOAD SWAP1 DUP2 MSTORE PUSH1 0x20 ADD PUSH2 0x1E8 JUMP JUMPDEST PUSH2 0x20F PUSH2 0x22B CALLDATASIZE PUSH1 0x4 PUSH2 0x123D JUMP JUMPDEST PUSH2 0x55D JUMP JUMPDEST PUSH2 0x1DC PUSH2 0x23E CALLDATASIZE PUSH1 0x4 PUSH2 0x1270 JUMP JUMPDEST PUSH1 0x0 DUP3 DUP2 MSTORE PUSH1 0x6 PUSH1 0x20 DUP2 DUP2 MSTORE PUSH1 0x40 DUP1 DUP5 KECCAK256 PUSH1 0x1 PUSH1 0x1 PUSH1 0xA0 SHL SUB DUP7 AND DUP6 MSTORE SWAP1 SWAP3 ADD SWAP1 MSTORE SWAP1 KECCAK256 SLOAD PUSH1 0xFF AND SWAP3 SWAP2 POP POP JUMP JUMPDEST PUSH2 0x20F PUSH2 0x27A CALLDATASIZE PUSH1 0x4 PUSH2 0x129C JUMP JUMPDEST PUSH1 0x0 SWAP1 DUP2 MSTORE PUSH1 0x20 DUP2 SWAP1 MSTORE PUSH1 0x40 SWAP1 KECCAK256 PUSH1 0x1 ADD SLOAD SWAP1 JUMP JUMPDEST PUSH2 0x204 PUSH2 0x29D CALLDATASIZE PUSH1 0x4 PUSH2 0x1270 JUMP JUMPDEST PUSH2 0x6DB JUMP JUMPDEST PUSH2 0x204 PUSH2 0x2B0 CALLDATASIZE PUSH1 0x4 PUSH2 0x1270 JUMP JUMPDEST PUSH2 0x706 JUMP JUMPDEST PUSH2 0x204 PUSH2 0x2C3 CALLDATASIZE PUSH1 0x4 PUSH2 0x129C JUMP JUMPDEST PUSH2 0x73E JUMP JUMPDEST PUSH2 0x204 PUSH2 0x803 JUMP JUMPDEST PUSH2 0x2E3 PUSH2 0x2DE CALLDATASIZE PUSH1 0x4 PUSH2 0x129C JUMP JUMPDEST PUSH2 0x819 JUMP JUMPDEST PUSH1 0x40 MLOAD PUSH2 0x1E8 SWAP2 SWAP1 PUSH2 0x12CB JUMP JUMPDEST PUSH1 0x1 SLOAD PUSH1 0xFF AND PUSH2 0x1DC JUMP JUMPDEST PUSH2 0x30E PUSH2 0x309 CALLDATASIZE PUSH1 0x4 PUSH2 0x129C JUMP JUMPDEST PUSH2 0x8D6 JUMP JUMPDEST PUSH1 0x40 MLOAD PUSH1 0x1 PUSH1 0x1 PUSH1 0xA0 SHL SUB SWAP1 SWAP2 AND DUP2 MSTORE PUSH1 0x20 ADD PUSH2 0x1E8 JUMP JUMPDEST PUSH2 0x20F PUSH1 0x3 SLOAD DUP2 JUMP JUMPDEST PUSH2 0x204 PUSH2 0x900 JUMP JUMPDEST PUSH2 0x1DC PUSH2 0x345 CALLDATASIZE PUSH1 0x4 PUSH2 0x1270 JUMP JUMPDEST PUSH2 0x913 JUMP JUMPDEST PUSH2 0x20F PUSH1 0x0 DUP1 MLOAD PUSH1 0x20 PUSH2 0x14D0 DUP4 CODECOPY DUP2 MLOAD SWAP2 MSTORE DUP2 JUMP JUMPDEST PUSH2 0x20F PUSH2 0x36D CALLDATASIZE PUSH1 0x4 PUSH2 0x129C JUMP JUMPDEST PUSH2 0x93C JUMP JUMPDEST PUSH2 0x37A PUSH2 0x95D JUMP JUMPDEST PUSH1 0x40 MLOAD PUSH2 0x1E8 SWAP2 SWAP1 PUSH2 0x133F JUMP JUMPDEST PUSH2 0x20F PUSH1 0x0 DUP2 JUMP JUMPDEST PUSH2 0x20F PUSH1 0x0 DUP1 MLOAD PUSH1 0x20 PUSH2 0x14F0 DUP4 CODECOPY DUP2 MLOAD SWAP2 MSTORE DUP2 JUMP JUMPDEST PUSH2 0x204 PUSH2 0x3B2 CALLDATASIZE PUSH1 0x4 PUSH2 0x129C JUMP JUMPDEST PUSH2 0x9BF JUMP JUMPDEST PUSH2 0x204 PUSH2 0x3C5 CALLDATASIZE PUSH1 0x4 PUSH2 0x129C JUMP JUMPDEST PUSH2 0xB24 JUMP JUMPDEST PUSH2 0x204 PUSH2 0x3D8 CALLDATASIZE PUSH1 0x4 PUSH2 0x1222 JUMP JUMPDEST PUSH2 0xBBF JUMP JUMPDEST PUSH2 0x204 PUSH2 0x3EB CALLDATASIZE PUSH1 0x4 PUSH2 0x129C JUMP JUMPDEST PUSH2 0xCC9 JUMP JUMPDEST PUSH2 0x3F8 PUSH2 0xD94 JUMP JUMPDEST PUSH1 0x40 MLOAD PUSH2 0x1E8 SWAP2 SWAP1 PUSH2 0x138C JUMP JUMPDEST PUSH2 0x204 PUSH2 0x413 CALLDATASIZE PUSH1 0x4 PUSH2 0x1270 JUMP JUMPDEST PUSH2 0xE22 JUMP JUMPDEST PUSH1 0x7 SLOAD PUSH2 0x20F JUMP JUMPDEST PUSH1 0x0 PUSH1 0x1 PUSH1 0x1 PUSH1 0xE0 SHL SUB NOT DUP3 AND PUSH4 0x7965DB0B PUSH1 0xE0 SHL EQ DUP1 PUSH2 0x451 JUMPI POP PUSH4 0x1FFC9A7 PUSH1 0xE0 SHL PUSH1 0x1 PUSH1 0x1 PUSH1 0xE0 SHL SUB NOT DUP4 AND EQ JUMPDEST SWAP3 SWAP2 POP POP JUMP JUMPDEST PUSH1 0x0 DUP1 MLOAD PUSH1 0x20 PUSH2 0x14D0 DUP4 CODECOPY DUP2 MLOAD SWAP2 MSTORE PUSH2 0x46F DUP2 PUSH2 0xE47 JUMP JUMPDEST PUSH2 0x487 PUSH1 0x0 DUP1 MLOAD PUSH1 0x20 PUSH2 0x14F0 DUP4 CODECOPY DUP2 MLOAD SWAP2 MSTORE DUP4 PUSH2 0x913 JUMP JUMPDEST PUSH2 0x4B4 JUMPI PUSH1 0x40 MLOAD PUSH4 0x5B5850B PUSH1 0xE2 SHL DUP2 MSTORE PUSH1 0x1 PUSH1 0x1 PUSH1 0xA0 SHL SUB DUP4 AND PUSH1 0x4 DUP3 ADD MSTORE PUSH1 0x24 ADD JUMPDEST PUSH1 0x40 MLOAD DUP1 SWAP2 SUB SWAP1 REVERT JUMPDEST PUSH1 0x1 PUSH1 0x5 SLOAD GT PUSH2 0x4D7 JUMPI PUSH1 0x40 MLOAD PUSH4 0x1E7A69C7 PUSH1 0xE1 SHL DUP2 MSTORE PUSH1 0x4 ADD PUSH1 0x40 MLOAD DUP1 SWAP2 SUB SWAP1 REVERT JUMPDEST PUSH2 0x4EF PUSH1 0x0 DUP1 MLOAD PUSH1 0x20 PUSH2 0x14F0 DUP4 CODECOPY DUP2 MLOAD SWAP2 MSTORE DUP4 PUSH2 0xE51 JUMP JUMPDEST POP PUSH2 0x4F9 DUP3 PUSH2 0xEC4 JUMP JUMPDEST PUSH1 0x5 DUP1 SLOAD SWAP1 PUSH1 0x0 PUSH2 0x509 DUP4 PUSH2 0x13F1 JUMP JUMPDEST SWAP2 SWAP1 POP SSTORE POP DUP2 PUSH1 0x1 PUSH1 0x1 PUSH1 0xA0 SHL SUB AND PUSH32 0x3AC963493DF564DE734D98633F1145D21512E282BA4C02D3C1011119BF7F2862 TIMESTAMP PUSH1 0x40 MLOAD PUSH2 0x549 SWAP2 DUP2 MSTORE PUSH1 0x20 ADD SWAP1 JUMP JUMPDEST PUSH1 0x40 MLOAD DUP1 SWAP2 SUB SWAP1 LOG2 PUSH2 0x559 PUSH2 0xFC0 JUMP JUMPDEST POP POP JUMP JUMPDEST PUSH1 0x0 PUSH1 0x0 DUP1 MLOAD PUSH1 0x20 PUSH2 0x14F0 DUP4 CODECOPY DUP2 MLOAD SWAP2 MSTORE PUSH2 0x577 DUP2 PUSH2 0xE47 JUMP JUMPDEST PUSH2 0x57F PUSH2 0x103C JUMP JUMPDEST DUP4 PUSH1 0x0 SUB PUSH2 0x5A0 JUMPI PUSH1 0x40 MLOAD PUSH4 0x1F2A2005 PUSH1 0xE0 SHL DUP2 MSTORE PUSH1 0x4 ADD PUSH1 0x40 MLOAD DUP1 SWAP2 SUB SWAP1 REVERT JUMPDEST DUP3 PUSH1 0x0 SUB PUSH2 0x5C1 JUMPI PUSH1 0x40 MLOAD PUSH4 0x10EA7977 PUSH1 0xE2 SHL DUP2 MSTORE PUSH1 0x4 ADD PUSH1 0x40 MLOAD DUP1 SWAP2 SUB SWAP1 REVERT JUMPDEST PUSH1 0x40 MLOAD PUSH12 0xFFFFFFFFFFFFFFFFFFFFFFFF NOT PUSH1 0x60 DUP8 DUP2 SHL DUP3 AND PUSH1 0x20 DUP5 ADD MSTORE PUSH1 0x34 DUP4 ADD DUP8 SWAP1 MSTORE PUSH1 0x54 DUP4 ADD DUP7 SWAP1 MSTORE TIMESTAMP PUSH1 0x74 DUP5 ADD MSTORE CALLER SWAP1 SHL AND PUSH1 0x94 DUP3 ADD MSTORE PUSH1 0xA8 ADD PUSH1 0x40 DUP1 MLOAD PUSH1 0x1F NOT DUP2 DUP5 SUB ADD DUP2 MSTORE DUP3 DUP3 MSTORE DUP1 MLOAD PUSH1 0x20 SWAP2 DUP3 ADD KECCAK256 PUSH1 0x0 DUP2 DUP2 MSTORE PUSH1 0x6 DUP4 MSTORE DUP4 DUP2 KECCAK256 DUP1 SLOAD PUSH1 0x1 PUSH1 0x1 PUSH1 0xA0 SHL SUB DUP13 AND PUSH1 0x1 PUSH1 0x1 PUSH1 0xA0 SHL SUB NOT SWAP1 SWAP2 AND DUP2 OR DUP3 SSTORE PUSH1 0x1 DUP1 DUP4 ADD DUP13 SWAP1 SSTORE PUSH1 0x2 DUP4 ADD DUP12 SWAP1 SSTORE PUSH1 0x4 DUP4 ADD DUP1 SLOAD PUSH1 0xFF NOT AND SWAP1 SSTORE TIMESTAMP PUSH1 0x5 DUP5 ADD DUP2 SWAP1 SSTORE PUSH1 0x7 DUP1 SLOAD SWAP3 DUP4 ADD DUP2 SSTORE SWAP1 SWAP5 MSTORE PUSH32 0xA66CC928B5EDB82AF9BD49922954155AB7B0942694BEA4CE44661D9A8736C688 ADD DUP5 SWAP1 SSTORE DUP11 DUP8 MSTORE SWAP4 DUP7 ADD DUP10 SWAP1 MSTORE SWAP4 DUP6 ADD MSTORE SWAP5 POP SWAP1 SWAP2 DUP5 SWAP1 PUSH32 0xE472CCB43567EAD18E0A5AB5FC18EA662086722B995FDB07ACBFA69A0870F890 SWAP1 PUSH1 0x60 ADD PUSH1 0x40 MLOAD DUP1 SWAP2 SUB SWAP1 LOG3 POP POP SWAP4 SWAP3 POP POP POP JUMP JUMPDEST PUSH1 0x0 DUP3 DUP2 MSTORE PUSH1 0x20 DUP2 SWAP1 MSTORE PUSH1 0x40 SWAP1 KECCAK256 PUSH1 0x1 ADD SLOAD PUSH2 0x6F6 DUP2 PUSH2 0xE47 JUMP JUMPDEST PUSH2 0x700 DUP4 DUP4 PUSH2 0x1062 JUMP JUMPDEST POP POP POP POP JUMP JUMPDEST PUSH1 0x1 PUSH1 0x1 PUSH1 0xA0 SHL SUB DUP2 AND CALLER EQ PUSH2 0x72F JUMPI PUSH1 0x40 MLOAD PUSH4 0x334BD919 PUSH1 0xE1 SHL DUP2 MSTORE PUSH1 0x4 ADD PUSH1 0x40 MLOAD DUP1 SWAP2 SUB SWAP1 REVERT JUMPDEST PUSH2 0x739 DUP3 DUP3 PUSH2 0xE51 JUMP JUMPDEST POP POP POP JUMP JUMPDEST PUSH1 0x0 PUSH2 0x749 DUP2 PUSH2 0xE47 JUMP JUMPDEST PUSH1 0x0 DUP3 DUP2 MSTORE PUSH1 0x6 PUSH1 0x20 MSTORE PUSH1 0x40 DUP2 KECCAK256 SWAP1 PUSH1 0x4 DUP3 ADD SLOAD PUSH1 0xFF AND PUSH1 0x3 DUP2 GT ISZERO PUSH2 0x771 JUMPI PUSH2 0x771 PUSH2 0x12B5 JUMP JUMPDEST EQ ISZERO DUP1 ISZERO PUSH2 0x798 JUMPI POP PUSH1 0x1 PUSH1 0x4 DUP3 ADD SLOAD PUSH1 0xFF AND PUSH1 0x3 DUP2 GT ISZERO PUSH2 0x795 JUMPI PUSH2 0x795 PUSH2 0x12B5 JUMP JUMPDEST EQ ISZERO JUMPDEST ISZERO PUSH2 0x7B9 JUMPI PUSH1 0x40 MLOAD PUSH4 0x673B9F79 PUSH1 0xE0 SHL DUP2 MSTORE PUSH1 0x4 DUP2 ADD DUP5 SWAP1 MSTORE PUSH1 0x24 ADD PUSH2 0x4AB JUMP JUMPDEST PUSH1 0x4 DUP2 ADD DUP1 SLOAD PUSH1 0xFF NOT AND PUSH1 0x3 OR SWAP1 SSTORE PUSH1 0x40 MLOAD TIMESTAMP DUP2 MSTORE DUP4 SWAP1 PUSH32 0xF233010736B479389E8407578C649B70DCB06774C4D29149E88ED7016C8ADB0F SWAP1 PUSH1 0x20 ADD JUMPDEST PUSH1 0x40 MLOAD DUP1 SWAP2 SUB SWAP1 LOG2 POP POP POP JUMP JUMPDEST PUSH1 0x0 PUSH2 0x80E DUP2 PUSH2 0xE47 JUMP JUMPDEST PUSH2 0x816 PUSH2 0x10EC JUMP JUMPDEST POP JUMP JUMPDEST PUSH1 0x40 DUP1 MLOAD PUSH1 0xE0 DUP2 ADD DUP3 MSTORE PUSH1 0x0 DUP1 DUP3 MSTORE PUSH1 0x20 DUP3 ADD DUP2 SWAP1 MSTORE SWAP2 DUP2 ADD DUP3 SWAP1 MSTORE PUSH1 0x60 DUP2 ADD DUP3 SWAP1 MSTORE PUSH1 0x80 DUP2 ADD DUP3 SWAP1 MSTORE PUSH1 0xA0 DUP2 ADD DUP3 SWAP1 MSTORE PUSH1 0xC0 DUP2 ADD SWAP2 SWAP1 SWAP2 MSTORE PUSH1 0x0 DUP3 DUP2 MSTORE PUSH1 0x6 PUSH1 0x20 SWAP1 DUP2 MSTORE PUSH1 0x40 SWAP2 DUP3 SWAP1 KECCAK256 DUP3 MLOAD PUSH1 0xE0 DUP2 ADD DUP5 MSTORE DUP6 DUP2 MSTORE DUP2 SLOAD PUSH1 0x1 PUSH1 0x1 PUSH1 0xA0 SHL SUB AND SWAP3 DUP2 ADD SWAP3 SWAP1 SWAP3 MSTORE PUSH1 0x1 DUP2 ADD SLOAD SWAP3 DUP3 ADD SWAP3 SWAP1 SWAP3 MSTORE PUSH1 0x2 DUP3 ADD SLOAD PUSH1 0x60 DUP3 ADD MSTORE PUSH1 0x3 DUP1 DUP4 ADD SLOAD PUSH1 0x80 DUP4 ADD MSTORE PUSH1 0x4 DUP4 ADD SLOAD PUSH1 0xA0 DUP4 ADD SWAP2 PUSH1 0xFF SWAP1 SWAP2 AND SWAP1 DUP2 GT ISZERO PUSH2 0x8C1 JUMPI PUSH2 0x8C1 PUSH2 0x12B5 JUMP JUMPDEST DUP2 MSTORE PUSH1 0x20 ADD DUP3 PUSH1 0x5 ADD SLOAD DUP2 MSTORE POP SWAP2 POP POP SWAP2 SWAP1 POP JUMP JUMPDEST PUSH1 0x4 DUP2 DUP2 SLOAD DUP2 LT PUSH2 0x8E6 JUMPI PUSH1 0x0 DUP1 REVERT JUMPDEST PUSH1 0x0 SWAP2 DUP3 MSTORE PUSH1 0x20 SWAP1 SWAP2 KECCAK256 ADD SLOAD PUSH1 0x1 PUSH1 0x1 PUSH1 0xA0 SHL SUB AND SWAP1 POP DUP2 JUMP JUMPDEST PUSH1 0x0 PUSH2 0x90B DUP2 PUSH2 0xE47 JUMP JUMPDEST PUSH2 0x816 PUSH2 0x113E JUMP JUMPDEST PUSH1 0x0 SWAP2 DUP3 MSTORE PUSH1 0x20 DUP3 DUP2 MSTORE PUSH1 0x40 DUP1 DUP5 KECCAK256 PUSH1 0x1 PUSH1 0x1 PUSH1 0xA0 SHL SUB SWAP4 SWAP1 SWAP4 AND DUP5 MSTORE SWAP2 SWAP1 MSTORE SWAP1 KECCAK256 SLOAD PUSH1 0xFF AND SWAP1 JUMP JUMPDEST PUSH1 0x7 DUP2 DUP2 SLOAD DUP2 LT PUSH2 0x94C JUMPI PUSH1 0x0 DUP1 REVERT JUMPDEST PUSH1 0x0 SWAP2 DUP3 MSTORE PUSH1 0x20 SWAP1 SWAP2 KECCAK256 ADD SLOAD SWAP1 POP DUP2 JUMP JUMPDEST PUSH1 0x60 PUSH1 0x4 DUP1 SLOAD DUP1 PUSH1 0x20 MUL PUSH1 0x20 ADD PUSH1 0x40 MLOAD SWAP1 DUP2 ADD PUSH1 0x40 MSTORE DUP1 SWAP3 SWAP2 SWAP1 DUP2 DUP2 MSTORE PUSH1 0x20 ADD DUP3 DUP1 SLOAD DUP1 ISZERO PUSH2 0x9B5 JUMPI PUSH1 0x20 MUL DUP3 ADD SWAP2 SWAP1 PUSH1 0x0 MSTORE PUSH1 0x20 PUSH1 0x0 KECCAK256 SWAP1 JUMPDEST DUP2 SLOAD PUSH1 0x1 PUSH1 0x1 PUSH1 0xA0 SHL SUB AND DUP2 MSTORE PUSH1 0x1 SWAP1 SWAP2 ADD SWAP1 PUSH1 0x20 ADD DUP1 DUP4 GT PUSH2 0x997 JUMPI JUMPDEST POP POP POP POP POP SWAP1 POP SWAP1 JUMP JUMPDEST PUSH1 0x0 DUP1 MLOAD PUSH1 0x20 PUSH2 0x14F0 DUP4 CODECOPY DUP2 MLOAD SWAP2 MSTORE PUSH2 0x9D7 DUP2 PUSH2 0xE47 JUMP JUMPDEST PUSH2 0x9DF PUSH2 0x103C JUMP JUMPDEST PUSH1 0x0 DUP3 DUP2 MSTORE PUSH1 0x6 PUSH1 0x20 MSTORE PUSH1 0x40 DUP2 KECCAK256 SWAP1 PUSH1 0x4 DUP3 ADD SLOAD PUSH1 0xFF AND PUSH1 0x3 DUP2 GT ISZERO PUSH2 0xA07 JUMPI PUSH2 0xA07 PUSH2 0x12B5 JUMP JUMPDEST EQ PUSH2 0xA28 JUMPI PUSH1 0x40 MLOAD PUSH4 0x673B9F79 PUSH1 0xE0 SHL DUP2 MSTORE PUSH1 0x4 DUP2 ADD DUP5 SWAP1 MSTORE PUSH1 0x24 ADD PUSH2 0x4AB JUMP JUMPDEST CALLER PUSH1 0x0 SWAP1 DUP2 MSTORE PUSH1 0x6 DUP3 ADD PUSH1 0x20 MSTORE PUSH1 0x40 SWAP1 KECCAK256 SLOAD PUSH1 0xFF AND ISZERO PUSH2 0xA64 JUMPI PUSH1 0x40 MLOAD PUSH4 0xA72DB787 PUSH1 0xE0 SHL DUP2 MSTORE PUSH1 0x4 DUP2 ADD DUP5 SWAP1 MSTORE CALLER PUSH1 0x24 DUP3 ADD MSTORE PUSH1 0x44 ADD PUSH2 0x4AB JUMP JUMPDEST CALLER PUSH1 0x0 SWAP1 DUP2 MSTORE PUSH1 0x6 DUP3 ADD PUSH1 0x20 MSTORE PUSH1 0x40 DUP2 KECCAK256 DUP1 SLOAD PUSH1 0xFF NOT AND PUSH1 0x1 OR SWAP1 SSTORE PUSH1 0x3 DUP3 ADD DUP1 SLOAD SWAP2 PUSH2 0xA90 DUP4 PUSH2 0x1408 JUMP JUMPDEST SWAP1 SWAP2 SSTORE POP POP PUSH1 0x3 DUP2 ADD SLOAD PUSH1 0x40 DUP1 MLOAD SWAP2 DUP3 MSTORE TIMESTAMP PUSH1 0x20 DUP4 ADD MSTORE CALLER SWAP2 DUP6 SWAP2 PUSH32 0xE895D70C3B87B1A0E588B36F9E205812D1ADD9E1922B742F701F9F1EDE9C4518 SWAP2 ADD PUSH1 0x40 MLOAD DUP1 SWAP2 SUB SWAP1 LOG3 PUSH1 0x3 SLOAD DUP2 PUSH1 0x3 ADD SLOAD LT PUSH2 0x739 JUMPI PUSH1 0x4 DUP2 ADD DUP1 SLOAD PUSH1 0xFF NOT AND PUSH1 0x1 OR SWAP1 SSTORE PUSH1 0x40 MLOAD TIMESTAMP DUP2 MSTORE DUP4 SWAP1 PUSH32 0x410613247E15AC57CBE0CC3A561977B2E5F575BBB9C14BDA555892A5C6CD45AB SWAP1 PUSH1 0x20 ADD PUSH2 0x7F6 JUMP JUMPDEST PUSH1 0x0 PUSH2 0xB2F DUP2 PUSH2 0xE47 JUMP JUMPDEST DUP2 ISZERO DUP1 PUSH2 0xB3D JUMPI POP PUSH1 0x5 SLOAD DUP3 GT JUMPDEST ISZERO PUSH2 0xB69 JUMPI PUSH1 0x5 SLOAD PUSH1 0x40 MLOAD PUSH4 0x158589C5 PUSH1 0xE1 SHL DUP2 MSTORE PUSH2 0x4AB SWAP2 DUP5 SWAP2 PUSH1 0x4 ADD SWAP2 DUP3 MSTORE PUSH1 0x20 DUP3 ADD MSTORE PUSH1 0x40 ADD SWAP1 JUMP JUMPDEST PUSH1 0x3 DUP1 SLOAD SWAP1 DUP4 SWAP1 SSTORE PUSH1 0x5 SLOAD PUSH1 0x40 DUP1 MLOAD DUP4 DUP2 MSTORE PUSH1 0x20 DUP2 ADD DUP7 SWAP1 MSTORE DUP1 DUP3 ADD SWAP3 SWAP1 SWAP3 MSTORE TIMESTAMP PUSH1 0x60 DUP4 ADD MSTORE MLOAD PUSH32 0x129596072D877B7B622388D822109317FE76714A3B8C79BDBCD6F1B98D04E969 SWAP2 DUP2 SWAP1 SUB PUSH1 0x80 ADD SWAP1 LOG1 POP POP POP JUMP JUMPDEST PUSH1 0x0 DUP1 MLOAD PUSH1 0x20 PUSH2 0x14D0 DUP4 CODECOPY DUP2 MLOAD SWAP2 MSTORE PUSH2 0xBD7 DUP2 PUSH2 0xE47 JUMP JUMPDEST PUSH2 0xBEF PUSH1 0x0 DUP1 MLOAD PUSH1 0x20 PUSH2 0x14F0 DUP4 CODECOPY DUP2 MLOAD SWAP2 MSTORE DUP4 PUSH2 0x913 JUMP JUMPDEST ISZERO PUSH2 0xC18 JUMPI PUSH1 0x40 MLOAD PUSH4 0x268F929 PUSH1 0xE0 SHL DUP2 MSTORE PUSH1 0x1 PUSH1 0x1 PUSH1 0xA0 SHL SUB DUP4 AND PUSH1 0x4 DUP3 ADD MSTORE PUSH1 0x24 ADD PUSH2 0x4AB JUMP JUMPDEST PUSH2 0xC30 PUSH1 0x0 DUP1 MLOAD PUSH1 0x20 PUSH2 0x14F0 DUP4 CODECOPY DUP2 MLOAD SWAP2 MSTORE DUP4 PUSH2 0x1062 JUMP JUMPDEST POP PUSH1 0x4 DUP1 SLOAD PUSH1 0x1 DUP2 ADD DUP3 SSTORE PUSH1 0x0 SWAP2 DUP3 MSTORE PUSH32 0x8A35ACFBC15FF81A39AE7D344FD709F28E8600B4AA8C65C6B64BFE7FE36BD19B ADD DUP1 SLOAD PUSH1 0x1 PUSH1 0x1 PUSH1 0xA0 SHL SUB NOT AND PUSH1 0x1 PUSH1 0x1 PUSH1 0xA0 SHL SUB DUP6 AND OR SWAP1 SSTORE PUSH1 0x5 DUP1 SLOAD SWAP2 PUSH2 0xC89 DUP4 PUSH2 0x1408 JUMP JUMPDEST SWAP2 SWAP1 POP SSTORE POP DUP2 PUSH1 0x1 PUSH1 0x1 PUSH1 0xA0 SHL SUB AND PUSH32 0xEDE8EED4383E9241982619B94DD83E488B274CCED0FD07B8C0092A393DEFD52F TIMESTAMP PUSH1 0x40 MLOAD PUSH2 0x549 SWAP2 DUP2 MSTORE PUSH1 0x20 ADD SWAP1 JUMP JUMPDEST PUSH1 0x0 DUP1 MLOAD PUSH1 0x20 PUSH2 0x14D0 DUP4 CODECOPY DUP2 MLOAD SWAP2 MSTORE PUSH2 0xCE1 DUP2 PUSH2 0xE47 JUMP JUMPDEST PUSH2 0xCE9 PUSH2 0x103C JUMP JUMPDEST PUSH1 0x0 DUP3 DUP2 MSTORE PUSH1 0x6 PUSH1 0x20 MSTORE PUSH1 0x40 SWAP1 KECCAK256 PUSH1 0x1 PUSH1 0x4 DUP3 ADD SLOAD PUSH1 0xFF AND PUSH1 0x3 DUP2 GT ISZERO PUSH2 0xD12 JUMPI PUSH2 0xD12 PUSH2 0x12B5 JUMP JUMPDEST EQ PUSH2 0xD33 JUMPI PUSH1 0x40 MLOAD PUSH4 0x32523AB PUSH1 0xE2 SHL DUP2 MSTORE PUSH1 0x4 DUP2 ADD DUP5 SWAP1 MSTORE PUSH1 0x24 ADD PUSH2 0x4AB JUMP JUMPDEST PUSH1 0x4 DUP2 ADD DUP1 SLOAD PUSH1 0xFF NOT AND PUSH1 0x2 OR SWAP1 SSTORE DUP1 SLOAD PUSH1 0x1 DUP3 ADD SLOAD PUSH1 0x40 DUP1 MLOAD SWAP2 DUP3 MSTORE TIMESTAMP PUSH1 0x20 DUP4 ADD MSTORE PUSH1 0x1 PUSH1 0x1 PUSH1 0xA0 SHL SUB SWAP1 SWAP3 AND SWAP2 DUP6 SWAP2 PUSH32 0xE7F058D766BCF692B36A916E42738033024C2102A616C0D98BBD06BA962E38BD SWAP2 ADD PUSH1 0x40 MLOAD DUP1 SWAP2 SUB SWAP1 LOG3 POP POP POP JUMP JUMPDEST PUSH1 0x2 DUP1 SLOAD PUSH2 0xDA1 SWAP1 PUSH2 0x1421 JUMP JUMPDEST DUP1 PUSH1 0x1F ADD PUSH1 0x20 DUP1 SWAP2 DIV MUL PUSH1 0x20 ADD PUSH1 0x40 MLOAD SWAP1 DUP2 ADD PUSH1 0x40 MSTORE DUP1 SWAP3 SWAP2 SWAP1 DUP2 DUP2 MSTORE PUSH1 0x20 ADD DUP3 DUP1 SLOAD PUSH2 0xDCD SWAP1 PUSH2 0x1421 JUMP JUMPDEST DUP1 ISZERO PUSH2 0xE1A JUMPI DUP1 PUSH1 0x1F LT PUSH2 0xDEF JUMPI PUSH2 0x100 DUP1 DUP4 SLOAD DIV MUL DUP4 MSTORE SWAP2 PUSH1 0x20 ADD SWAP2 PUSH2 0xE1A JUMP JUMPDEST DUP3 ADD SWAP2 SWAP1 PUSH1 0x0 MSTORE PUSH1 0x20 PUSH1 0x0 KECCAK256 SWAP1 JUMPDEST DUP2 SLOAD DUP2 MSTORE SWAP1 PUSH1 0x1 ADD SWAP1 PUSH1 0x20 ADD DUP1 DUP4 GT PUSH2 0xDFD JUMPI DUP3 SWAP1 SUB PUSH1 0x1F AND DUP3 ADD SWAP2 JUMPDEST POP POP POP POP POP DUP2 JUMP JUMPDEST PUSH1 0x0 DUP3 DUP2 MSTORE PUSH1 0x20 DUP2 SWAP1 MSTORE PUSH1 0x40 SWAP1 KECCAK256 PUSH1 0x1 ADD SLOAD PUSH2 0xE3D DUP2 PUSH2 0xE47 JUMP JUMPDEST PUSH2 0x700 DUP4 DUP4 PUSH2 0xE51 JUMP JUMPDEST PUSH2 0x816 DUP2 CALLER PUSH2 0x1179 JUMP JUMPDEST PUSH1 0x0 PUSH2 0xE5D DUP4 DUP4 PUSH2 0x913 JUMP JUMPDEST ISZERO PUSH2 0xEBC JUMPI PUSH1 0x0 DUP4 DUP2 MSTORE PUSH1 0x20 DUP2 DUP2 MSTORE PUSH1 0x40 DUP1 DUP4 KECCAK256 PUSH1 0x1 PUSH1 0x1 PUSH1 0xA0 SHL SUB DUP7 AND DUP1 DUP6 MSTORE SWAP3 MSTORE DUP1 DUP4 KECCAK256 DUP1 SLOAD PUSH1 0xFF NOT AND SWAP1 SSTORE MLOAD CALLER SWAP3 DUP7 SWAP2 PUSH32 0xF6391F5C32D9C69D2A47EA670B442974B53935D1EDC7FD64EB21E047A839171B SWAP2 SWAP1 LOG4 POP PUSH1 0x1 PUSH2 0x451 JUMP JUMPDEST POP PUSH1 0x0 PUSH2 0x451 JUMP JUMPDEST PUSH1 0x4 SLOAD PUSH1 0x0 JUMPDEST DUP2 DUP2 LT ISZERO PUSH2 0x739 JUMPI DUP3 PUSH1 0x1 PUSH1 0x1 PUSH1 0xA0 SHL SUB AND PUSH1 0x4 DUP3 DUP2 SLOAD DUP2 LT PUSH2 0xEEF JUMPI PUSH2 0xEEF PUSH2 0x145B JUMP JUMPDEST PUSH1 0x0 SWAP2 DUP3 MSTORE PUSH1 0x20 SWAP1 SWAP2 KECCAK256 ADD SLOAD PUSH1 0x1 PUSH1 0x1 PUSH1 0xA0 SHL SUB AND SUB PUSH2 0xFB8 JUMPI PUSH1 0x4 PUSH2 0xF16 PUSH1 0x1 DUP5 PUSH2 0x1471 JUMP JUMPDEST DUP2 SLOAD DUP2 LT PUSH2 0xF26 JUMPI PUSH2 0xF26 PUSH2 0x145B JUMP JUMPDEST PUSH1 0x0 SWAP2 DUP3 MSTORE PUSH1 0x20 SWAP1 SWAP2 KECCAK256 ADD SLOAD PUSH1 0x4 DUP1 SLOAD PUSH1 0x1 PUSH1 0x1 PUSH1 0xA0 SHL SUB SWAP1 SWAP3 AND SWAP2 DUP4 SWAP1 DUP2 LT PUSH2 0xF52 JUMPI PUSH2 0xF52 PUSH2 0x145B JUMP JUMPDEST SWAP1 PUSH1 0x0 MSTORE PUSH1 0x20 PUSH1 0x0 KECCAK256 ADD PUSH1 0x0 PUSH2 0x100 EXP DUP2 SLOAD DUP2 PUSH1 0x1 PUSH1 0x1 PUSH1 0xA0 SHL SUB MUL NOT AND SWAP1 DUP4 PUSH1 0x1 PUSH1 0x1 PUSH1 0xA0 SHL SUB AND MUL OR SWAP1 SSTORE POP PUSH1 0x4 DUP1 SLOAD DUP1 PUSH2 0xF91 JUMPI PUSH2 0xF91 PUSH2 0x1484 JUMP JUMPDEST PUSH1 0x0 DUP3 DUP2 MSTORE PUSH1 0x20 SWAP1 KECCAK256 DUP2 ADD PUSH1 0x0 NOT SWAP1 DUP2 ADD DUP1 SLOAD PUSH1 0x1 PUSH1 0x1 PUSH1 0xA0 SHL SUB NOT AND SWAP1 SSTORE ADD SWAP1 SSTORE POP POP POP JUMP JUMPDEST PUSH1 0x1 ADD PUSH2 0xECA JUMP JUMPDEST PUSH1 0x0 PUSH1 0x2 PUSH1 0x5 SLOAD PUSH2 0xFD1 SWAP2 SWAP1 PUSH2 0x149A JUMP JUMPDEST PUSH2 0xFDC SWAP1 PUSH1 0x1 PUSH2 0x14BC JUMP JUMPDEST SWAP1 POP PUSH1 0x3 SLOAD DUP2 EQ PUSH2 0x816 JUMPI PUSH1 0x3 DUP1 SLOAD SWAP1 DUP3 SWAP1 SSTORE PUSH1 0x5 SLOAD PUSH1 0x40 DUP1 MLOAD DUP4 DUP2 MSTORE PUSH1 0x20 DUP2 ADD DUP6 SWAP1 MSTORE DUP1 DUP3 ADD SWAP3 SWAP1 SWAP3 MSTORE TIMESTAMP PUSH1 0x60 DUP4 ADD MSTORE MLOAD PUSH32 0x129596072D877B7B622388D822109317FE76714A3B8C79BDBCD6F1B98D04E969 SWAP2 DUP2 SWAP1 SUB PUSH1 0x80 ADD SWAP1 LOG1 POP POP JUMP JUMPDEST PUSH1 0x1 SLOAD PUSH1 0xFF AND ISZERO PUSH2 0x1060 JUMPI PUSH1 0x40 MLOAD PUSH4 0xD93C0665 PUSH1 0xE0 SHL DUP2 MSTORE PUSH1 0x4 ADD PUSH1 0x40 MLOAD DUP1 SWAP2 SUB SWAP1 REVERT JUMPDEST JUMP JUMPDEST PUSH1 0x0 PUSH2 0x106E DUP4 DUP4 PUSH2 0x913 JUMP JUMPDEST PUSH2 0xEBC JUMPI PUSH1 0x0 DUP4 DUP2 MSTORE PUSH1 0x20 DUP2 DUP2 MSTORE PUSH1 0x40 DUP1 DUP4 KECCAK256 PUSH1 0x1 PUSH1 0x1 PUSH1 0xA0 SHL SUB DUP7 AND DUP5 MSTORE SWAP1 SWAP2 MSTORE SWAP1 KECCAK256 DUP1 SLOAD PUSH1 0xFF NOT AND PUSH1 0x1 OR SWAP1 SSTORE PUSH2 0x10A4 CALLER SWAP1 JUMP JUMPDEST PUSH1 0x1 PUSH1 0x1 PUSH1 0xA0 SHL SUB AND DUP3 PUSH1 0x1 PUSH1 0x1 PUSH1 0xA0 SHL SUB AND DUP5 PUSH32 0x2F8788117E7EFF1D82E926EC794901D17C78024A50270940304540A733656F0D PUSH1 0x40 MLOAD PUSH1 0x40 MLOAD DUP1 SWAP2 SUB SWAP1 LOG4 POP PUSH1 0x1 PUSH2 0x451 JUMP JUMPDEST PUSH2 0x10F4 PUSH2 0x11B2 JUMP JUMPDEST PUSH1 0x1 DUP1 SLOAD PUSH1 0xFF NOT AND SWAP1 SSTORE PUSH32 0x5DB9EE0A495BF2E6FF9C91A7834C1BA4FDD244A5E8AA4E537BD38AEAE4B073AA CALLER JUMPDEST PUSH1 0x40 MLOAD PUSH1 0x1 PUSH1 0x1 PUSH1 0xA0 SHL SUB SWAP1 SWAP2 AND DUP2 MSTORE PUSH1 0x20 ADD PUSH1 0x40 MLOAD DUP1 SWAP2 SUB SWAP1 LOG1 JUMP JUMPDEST PUSH2 0x1146 PUSH2 0x103C JUMP JUMPDEST PUSH1 0x1 DUP1 SLOAD PUSH1 0xFF NOT AND DUP2 OR SWAP1 SSTORE PUSH32 0x62E78CEA01BEE320CD4E420270B5EA74000D11B0C9F74754EBDBFC544B05A258 CALLER PUSH2 0x1121 JUMP JUMPDEST PUSH2 0x1183 DUP3 DUP3 PUSH2 0x913 JUMP JUMPDEST PUSH2 0x559 JUMPI PUSH1 0x40 MLOAD PUSH4 0xE2517D3F PUSH1 0xE0 SHL DUP2 MSTORE PUSH1 0x1 PUSH1 0x1 PUSH1 0xA0 SHL SUB DUP3 AND PUSH1 0x4 DUP3 ADD MSTORE PUSH1 0x24 DUP2 ADD DUP4 SWAP1 MSTORE PUSH1 0x44 ADD PUSH2 0x4AB JUMP JUMPDEST PUSH1 0x1 SLOAD PUSH1 0xFF AND PUSH2 0x1060 JUMPI PUSH1 0x40 MLOAD PUSH4 0x8DFC202B PUSH1 0xE0 SHL DUP2 MSTORE PUSH1 0x4 ADD PUSH1 0x40 MLOAD DUP1 SWAP2 SUB SWAP1 REVERT JUMPDEST PUSH1 0x0 PUSH1 0x20 DUP3 DUP5 SUB SLT ISZERO PUSH2 0x11E7 JUMPI PUSH1 0x0 DUP1 REVERT JUMPDEST DUP2 CALLDATALOAD PUSH1 0x1 PUSH1 0x1 PUSH1 0xE0 SHL SUB NOT DUP2 AND DUP2 EQ PUSH2 0x11FF JUMPI PUSH1 0x0 DUP1 REVERT JUMPDEST SWAP4 SWAP3 POP POP POP JUMP JUMPDEST DUP1 CALLDATALOAD PUSH1 0x1 PUSH1 0x1 PUSH1 0xA0 SHL SUB DUP2 AND DUP2 EQ PUSH2 0x121D JUMPI PUSH1 0x0 DUP1 REVERT JUMPDEST SWAP2 SWAP1 POP JUMP JUMPDEST PUSH1 0x0 PUSH1 0x20 DUP3 DUP5 SUB SLT ISZERO PUSH2 0x1234 JUMPI PUSH1 0x0 DUP1 REVERT JUMPDEST PUSH2 0x11FF DUP3 PUSH2 0x1206 JUMP JUMPDEST PUSH1 0x0 DUP1 PUSH1 0x0 PUSH1 0x60 DUP5 DUP7 SUB SLT ISZERO PUSH2 0x1252 JUMPI PUSH1 0x0 DUP1 REVERT JUMPDEST PUSH2 0x125B DUP5 PUSH2 0x1206 JUMP JUMPDEST SWAP6 PUSH1 0x20 DUP6 ADD CALLDATALOAD SWAP6 POP PUSH1 0x40 SWAP1 SWAP5 ADD CALLDATALOAD SWAP4 SWAP3 POP POP POP JUMP JUMPDEST PUSH1 0x0 DUP1 PUSH1 0x40 DUP4 DUP6 SUB SLT ISZERO PUSH2 0x1283 JUMPI PUSH1 0x0 DUP1 REVERT JUMPDEST DUP3 CALLDATALOAD SWAP2 POP PUSH2 0x1293 PUSH1 0x20 DUP5 ADD PUSH2 0x1206 JUMP JUMPDEST SWAP1 POP SWAP3 POP SWAP3 SWAP1 POP JUMP JUMPDEST PUSH1 0x0 PUSH1 0x20 DUP3 DUP5 SUB SLT ISZERO PUSH2 0x12AE JUMPI PUSH1 0x0 DUP1 REVERT JUMPDEST POP CALLDATALOAD SWAP2 SWAP1 POP JUMP JUMPDEST PUSH4 0x4E487B71 PUSH1 0xE0 SHL PUSH1 0x0 MSTORE PUSH1 0x21 PUSH1 0x4 MSTORE PUSH1 0x24 PUSH1 0x0 REVERT JUMPDEST DUP2 MLOAD DUP2 MSTORE PUSH1 0x20 DUP1 DUP4 ADD MLOAD PUSH1 0x1 PUSH1 0x1 PUSH1 0xA0 SHL SUB AND SWAP1 DUP3 ADD MSTORE PUSH1 0x40 DUP1 DUP4 ADD MLOAD SWAP1 DUP3 ADD MSTORE PUSH1 0x60 DUP1 DUP4 ADD MLOAD SWAP1 DUP3 ADD MSTORE PUSH1 0x80 DUP1 DUP4 ADD MLOAD SWAP1 DUP3 ADD MSTORE PUSH1 0xA0 DUP3 ADD MLOAD PUSH1 0xE0 DUP3 ADD SWAP1 PUSH1 0x4 DUP2 LT PUSH2 0x1328 JUMPI PUSH4 0x4E487B71 PUSH1 0xE0 SHL PUSH1 0x0 MSTORE PUSH1 0x21 PUSH1 0x4 MSTORE PUSH1 0x24 PUSH1 0x0 REVERT JUMPDEST DUP1 PUSH1 0xA0 DUP5 ADD MSTORE POP PUSH1 0xC0 DUP4 ADD MLOAD PUSH1 0xC0 DUP4 ADD MSTORE SWAP3 SWAP2 POP POP JUMP JUMPDEST PUSH1 0x20 DUP1 DUP3 MSTORE DUP3 MLOAD DUP3 DUP3 ADD DUP2 SWAP1 MSTORE PUSH1 0x0 SWAP2 SWAP1 DUP5 DUP3 ADD SWAP1 PUSH1 0x40 DUP6 ADD SWAP1 DUP5 JUMPDEST DUP2 DUP2 LT ISZERO PUSH2 0x1380 JUMPI DUP4 MLOAD PUSH1 0x1 PUSH1 0x1 PUSH1 0xA0 SHL SUB AND DUP4 MSTORE SWAP3 DUP5 ADD SWAP3 SWAP2 DUP5 ADD SWAP2 PUSH1 0x1 ADD PUSH2 0x135B JUMP JUMPDEST POP SWAP1 SWAP7 SWAP6 POP POP POP POP POP POP JUMP JUMPDEST PUSH1 0x0 PUSH1 0x20 DUP1 DUP4 MSTORE DUP4 MLOAD DUP1 PUSH1 0x20 DUP6 ADD MSTORE PUSH1 0x0 JUMPDEST DUP2 DUP2 LT ISZERO PUSH2 0x13BA JUMPI DUP6 DUP2 ADD DUP4 ADD MLOAD DUP6 DUP3 ADD PUSH1 0x40 ADD MSTORE DUP3 ADD PUSH2 0x139E JUMP JUMPDEST POP PUSH1 0x0 PUSH1 0x40 DUP3 DUP7 ADD ADD MSTORE PUSH1 0x40 PUSH1 0x1F NOT PUSH1 0x1F DUP4 ADD AND DUP6 ADD ADD SWAP3 POP POP POP SWAP3 SWAP2 POP POP JUMP JUMPDEST PUSH4 0x4E487B71 PUSH1 0xE0 SHL PUSH1 0x0 MSTORE PUSH1 0x11 PUSH1 0x4 MSTORE PUSH1 0x24 PUSH1 0x0 REVERT JUMPDEST PUSH1 0x0 DUP2 PUSH2 0x1400 JUMPI PUSH2 0x1400 PUSH2 0x13DB JUMP JUMPDEST POP PUSH1 0x0 NOT ADD SWAP1 JUMP JUMPDEST PUSH1 0x0 PUSH1 0x1 DUP3 ADD PUSH2 0x141A JUMPI PUSH2 0x141A PUSH2 0x13DB JUMP JUMPDEST POP PUSH1 0x1 ADD SWAP1 JUMP JUMPDEST PUSH1 0x1 DUP2 DUP2 SHR SWAP1 DUP3 AND DUP1 PUSH2 0x1435 JUMPI PUSH1 0x7F DUP3 AND SWAP2 POP JUMPDEST PUSH1 0x20 DUP3 LT DUP2 SUB PUSH2 0x1455 JUMPI PUSH4 0x4E487B71 PUSH1 0xE0 SHL PUSH1 0x0 MSTORE PUSH1 0x22 PUSH1 0x4 MSTORE PUSH1 0x24 PUSH1 0x0 REVERT JUMPDEST POP SWAP2 SWAP1 POP JUMP JUMPDEST PUSH4 0x4E487B71 PUSH1 0xE0 SHL PUSH1 0x0 MSTORE PUSH1 0x32 PUSH1 0x4 MSTORE PUSH1 0x24 PUSH1 0x0 REVERT JUMPDEST DUP2 DUP2 SUB DUP2 DUP2 GT ISZERO PUSH2 0x451 JUMPI PUSH2 0x451 PUSH2 0x13DB JUMP JUMPDEST PUSH4 0x4E487B71 PUSH1 0xE0 SHL PUSH1 0x0 MSTORE PUSH1 0x31 PUSH1 0x4 MSTORE PUSH1 0x24 PUSH1 0x0 REVERT JUMPDEST PUSH1 0x0 DUP3 PUSH2 0x14B7 JUMPI PUSH4 0x4E487B71 PUSH1 0xE0 SHL PUSH1 0x0 MSTORE PUSH1 0x12 PUSH1 0x4 MSTORE PUSH1 0x24 PUSH1 0x0 REVERT JUMPDEST POP DIV SWAP1 JUMP JUMPDEST DUP1 DUP3 ADD DUP1 DUP3 GT ISZERO PUSH2 0x451 JUMPI PUSH2 0x451 PUSH2 0x13DB JUMP INVALID 0x25 0xCF 0x2B POP SWAP16 0x2A PUSH32 0x322675B2A5322B182F44AD2C03AC941A0AF17C9B178F5D5D5FA870F1A91AB66A XOR OR BLOBBASEFEE 0xE2 DUP6 PREVRANDAO SWAP11 STOP PUSH28 0xEA36A28441E5B44A847DEB90F83E86EBA26469706673582212205664 SWAP13 0xE1 0xF9 GASLIMIT TIMESTAMP SWAP13 PUSH15 0x87374EE9C389FD3B742BF50CB4D56D 0xCB ADD 0xBF 0xEF PUSH31 0x542D6B64736F6C63430008180033A264697066735822122058449C6C6551E7 DUP6 CALLDATASIZE 0xD PUSH32 0x10BE06D3703E7B1EB09A4BCDDECB3CE66E8BB6033764736F6C63430008180033 "},"methodIdentifiers":{"BACKEND_ROLE()":"92c2becc","DEFAULT_ADMIN_ROLE()":"a217fddf","backendWallet()":"a680baaf","createPool(address[],uint256,string)":"d57004ab","deployedPools(uint256)":"91d5f15e","getAllPools()":"d88ff1f4","getRoleAdmin(bytes32)":"248a9ca3","grantRole(bytes32,address)":"2f2ff15d","hasRole(bytes32,address)":"91d14854","isPool(address)":"5b16ebb7","loanManagerAddress()":"40eefcbf","poolByName(string)":"69133480","poolCount()":"f525cb68","renounceRole(bytes32,address)":"36568abe","revokeRole(bytes32,address)":"d547741f","setBackendWallet(address)":"0edfe7ec","setLoanManager(address)":"5772ae70","supportsInterface(bytes4)":"01ffc9a7"}}}}}