{
  "_format": "hh-sol-artifact-1",
  "contractName": "SHGPool",
  "sourceName": "contracts/SHGPool.sol",
  "abi": [
    {
      "inputs": [
        {
          "internalType": "address[]",
          "name": "_members",
          "type": "address[]"
        },
        {
          "internalType": "uint256",
          "name": "_quorum",
          "type": "uint256"
        },
        {
          "internalType": "string",
          "name": "_name",
          "type": "string"
        },
        {
          "internalType": "address",
          "name": "_backend",
          "type": "address"
        }
      ],
      "stateMutability": "nonpayable",
      "type": "constructor"
    },
    {
      "inputs": [],
      "name": "AccessControlBadConfirmation",
      "type": "error"
    },
    {
      "inputs": [
        {
          "internalType": "address",
          "name": "account",
          "type": "address"
        },
        {
          "internalType": "bytes32",
          "name": "neededRole",
          "type": "bytes32"
        }
      ],
      "name": "AccessControlUnauthorizedAccount",
      "type": "error"
    },
    {
      "inputs": [
        {
          "internalType": "bytes32",
          "name": "proposalId",
          "type": "bytes32"
        },
        {
          "internalType": "address",
          "name": "approver",
          "type": "address"
        }
      ],
      "name": "AlreadyApproved",
      "type": "error"
    },
    {
      "inputs": [
        {
          "internalType": "address",
          "name": "member",
          "type": "address"
        }
      ],
      "name": "AlreadyMember",
      "type": "error"
    },
    {
      "inputs": [],
      "name": "CannotRemoveLastMember",
      "type": "error"
    },
    {
      "inputs": [],
      "name": "EnforcedPause",
      "type": "error"
    },
    {
      "inputs": [],
      "name": "ExpectedPause",
      "type": "error"
    },
    {
      "inputs": [
        {
          "internalType": "uint256",
          "name": "quorum",
          "type": "uint256"
        },
        {
          "internalType": "uint256",
          "name": "memberCount",
          "type": "uint256"
        }
      ],
      "name": "InvalidQuorum",
      "type": "error"
    },
    {
      "inputs": [
        {
          "internalType": "address",
          "name": "member",
          "type": "address"
        }
      ],
      "name": "NotMember",
      "type": "error"
    },
    {
      "inputs": [
        {
          "internalType": "bytes32",
          "name": "proposalId",
          "type": "bytes32"
        }
      ],
      "name": "ProposalNotActive",
      "type": "error"
    },
    {
      "inputs": [
        {
          "internalType": "bytes32",
          "name": "proposalId",
          "type": "bytes32"
        }
      ],
      "name": "QuorumNotReached",
      "type": "error"
    },
    {
      "inputs": [],
      "name": "ReentrancyGuardReentrantCall",
      "type": "error"
    },
    {
      "inputs": [],
      "name": "ZeroAmount",
      "type": "error"
    },
    {
      "inputs": [],
      "name": "ZeroTenure",
      "type": "error"
    },
    {
      "anonymous": false,
      "inputs": [
        {
          "indexed": true,
          "internalType": "bytes32",
          "name": "proposalId",
          "type": "bytes32"
        },
        {
          "indexed": true,
          "internalType": "address",
          "name": "approver",
          "type": "address"
        },
        {
          "indexed": false,
          "internalType": "uint256",
          "name": "approvalCount",
          "type": "uint256"
        },
        {
          "indexed": false,
          "internalType": "uint256",
          "name": "timestamp",
          "type": "uint256"
        }
      ],
      "name": "LoanApproved",
      "type": "event"
    },
    {
      "anonymous": false,
      "inputs": [
        {
          "indexed": true,
          "internalType": "bytes32",
          "name": "proposalId",
          "type": "bytes32"
        },
        {
          "indexed": true,
          "internalType": "address",
          "name": "borrower",
          "type": "address"
        },
        {
          "indexed": false,
          "internalType": "uint256",
          "name": "amountPaise",
          "type": "uint256"
        },
        {
          "indexed": false,
          "internalType": "uint256",
          "name": "timestamp",
          "type": "uint256"
        }
      ],
      "name": "LoanExecuted",
      "type": "event"
    },
    {
      "anonymous": false,
      "inputs": [
        {
          "indexed": true,
          "internalType": "bytes32",
          "name": "proposalId",
          "type": "bytes32"
        },
        {
          "indexed": true,
          "internalType": "address",
          "name": "borrower",
          "type": "address"
        },
        {
          "indexed": false,
          "internalType": "uint256",
          "name": "amountPaise",
          "type": "uint256"
        },
        {
          "indexed": false,
          "internalType": "uint256",
          "name": "tenureMonths",
          "type": "uint256"
        },
        {
          "indexed": false,
          "internalType": "uint256",
          "name": "timestamp",
          "type": "uint256"
        }
      ],
      "name": "LoanProposed",
      "type": "event"
    },
    {
      "anonymous": false,
      "inputs": [
        {
          "indexed": true,
          "internalType": "address",
          "name": "member",
          "type": "address"
        },
        {
          "indexed": false,
          "internalType": "uint256",
          "name": "timestamp",
          "type": "uint256"
        }
      ],
      "name": "MemberAdded",
      "type": "event"
    },
    {
      "anonymous": false,
      "inputs": [
        {
          "indexed": true,
          "internalType": "address",
          "name": "member",
          "type": "address"
        },
        {
          "indexed": false,
          "internalType": "uint256",
          "name": "timestamp",
          "type": "uint256"
        }
      ],
      "name": "MemberRemoved",
      "type": "event"
    },
    {
      "anonymous": false,
      "inputs": [
        {
          "indexed": false,
          "internalType": "address",
          "name": "account",
          "type": "address"
        }
      ],
      "name": "Paused",
      "type": "event"
    },
    {
      "anonymous": false,
      "inputs": [
        {
          "indexed": true,
          "internalType": "bytes32",
          "name": "proposalId",
          "type": "bytes32"
        },
        {
          "indexed": false,
          "internalType": "uint256",
          "name": "timestamp",
          "type": "uint256"
        }
      ],
      "name": "ProposalCancelled",
      "type": "event"
    },
    {
      "anonymous": false,
      "inputs": [
        {
          "indexed": false,
          "internalType": "uint256",
          "name": "oldQuorum",
          "type": "uint256"
        },
        {
          "indexed": false,
          "internalType": "uint256",
          "name": "newQuorum",
          "type": "uint256"
        },
        {
          "indexed": false,
          "internalType": "uint256",
          "name": "memberCount",
          "type": "uint256"
        },
        {
          "indexed": false,
          "internalType": "uint256",
          "name": "timestamp",
          "type": "uint256"
        }
      ],
      "name": "QuorumChanged",
      "type": "event"
    },
    {
      "anonymous": false,
      "inputs": [
        {
          "indexed": true,
          "internalType": "bytes32",
          "name": "proposalId",
          "type": "bytes32"
        },
        {
          "indexed": false,
          "internalType": "uint256",
          "name": "timestamp",
          "type": "uint256"
        }
      ],
      "name": "QuorumReached",
      "type": "event"
    },
    {
      "anonymous": false,
      "inputs": [
        {
          "indexed": true,
          "internalType": "bytes32",
          "name": "role",
          "type": "bytes32"
        },
        {
          "indexed": true,
          "internalType": "bytes32",
          "name": "previousAdminRole",
          "type": "bytes32"
        },
        {
          "indexed": true,
          "internalType": "bytes32",
          "name": "newAdminRole",
          "type": "bytes32"
        }
      ],
      "name": "RoleAdminChanged",
      "type": "event"
    },
    {
      "anonymous": false,
      "inputs": [
        {
          "indexed": true,
          "internalType": "bytes32",
          "name": "role",
          "type": "bytes32"
        },
        {
          "indexed": true,
          "internalType": "address",
          "name": "account",
          "type": "address"
        },
        {
          "indexed": true,
          "internalType": "address",
          "name": "sender",
          "type": "address"
        }
      ],
      "name": "RoleGranted",
      "type": "event"
    },
    {
      "anonymous": false,
      "inputs": [
        {
          "indexed": true,
          "internalType": "bytes32",
          "name": "role",
          "type": "bytes32"
        },
        {
          "indexed": true,
          "internalType": "address",
          "name": "account",
          "type": "address"
        },
        {
          "indexed": true,
          "internalType": "address",
          "name": "sender",
          "type": "address"
        }
      ],
      "name": "RoleRevoked",
      "type": "event"
    },
    {
      "anonymous": false,
      "inputs": [
        {
          "indexed": false,
          "internalType": "address",
          "name": "account",
          "type": "address"
        }
      ],
      "name": "Unpaused",
      "type": "event"
    },
    {
      "inputs": [],
      "name": "BACKEND_ROLE",
      "outputs": [
        {
          "internalType": "bytes32",
          "name": "",
          "type": "bytes32"
        }
      ],
      "stateMutability": "view",
      "type": "function"
    },
    {
      "inputs": [],
      "name": "DEFAULT_ADMIN_ROLE",
      "outputs": [
        {
          "internalType": "bytes32",
          "name": "",
          "type": "bytes32"
        }
      ],
      "stateMutability": "view",
      "type": "function"
    },
    {
      "inputs": [],
      "name": "LEADER_ROLE",
      "outputs": [
        {
          "internalType": "bytes32",
          "name": "",
          "type": "bytes32"
        }
      ],
      "stateMutability": "view",
      "type": "function"
    },
    {
      "inputs": [
        {
          "internalType": "address",
          "name": "member",
          "type": "address"
        }
      ],
      "name": "addMember",
      "outputs": [],
      "stateMutability": "nonpayable",
      "type": "function"
    },
    {
      "inputs": [
        {
          "internalType": "bytes32",
          "name": "proposalId",
          "type": "bytes32"
        }
      ],
      "name": "approveLoan",
      "outputs": [],
      "stateMutability": "nonpayable",
      "type": "function"
    },
    {
      "inputs": [
        {
          "internalType": "bytes32",
          "name": "proposalId",
          "type": "bytes32"
        }
      ],
      "name": "cancelProposal",
      "outputs": [],
      "stateMutability": "nonpayable",
      "type": "function"
    },
    {
      "inputs": [
        {
          "internalType": "bytes32",
          "name": "proposalId",
          "type": "bytes32"
        }
      ],
      "name": "executeLoan",
      "outputs": [],
      "stateMutability": "nonpayable",
      "type": "function"
    },
    {
      "inputs": [],
      "name": "getMembers",
      "outputs": [
        {
          "internalType": "address[]",
          "name": "",
          "type": "address[]"
        }
      ],
      "stateMutability": "view",
      "type": "function"
    },
    {
      "inputs": [
        {
          "internalType": "bytes32",
          "name": "proposalId",
          "type": "bytes32"
        }
      ],
      "name": "getProposal",
      "outputs": [
        {
          "components": [
            {
              "internalType": "bytes32",
              "name": "proposalId",
              "type": "bytes32"
            },
            {
              "internalType": "address",
              "name": "borrower",
              "type": "address"
            },
            {
              "internalType": "uint256",
              "name": "amountPaise",
              "type": "uint256"
            },
            {
              "internalType": "uint256",
              "name": "tenureMonths",
              "type": "uint256"
            },
            {
              "internalType": "uint256",
              "name": "approvalCount",
              "type": "uint256"
            },
            {
              "internalType": "enum SHGPool.ProposalStatus",
              "name": "status",
              "type": "uint8"
            },
            {
              "internalType": "uint256",
              "name": "createdAt",
              "type": "uint256"
            }
          ],
          "internalType": "struct SHGPool.ProposalView",
          "name": "",
          "type": "tuple"
        }
      ],
      "stateMutability": "view",
      "type": "function"
    },
    {
      "inputs": [
        {
          "internalType": "bytes32",
          "name": "role",
          "type": "bytes32"
        }
      ],
      "name": "getRoleAdmin",
      "outputs": [
        {
          "internalType": "bytes32",
          "name": "",
          "type": "bytes32"
        }
      ],
      "stateMutability": "view",
      "type": "function"
    },
    {
      "inputs": [
        {
          "internalType": "bytes32",
          "name": "role",
          "type": "bytes32"
        },
        {
          "internalType": "address",
          "name": "account",
          "type": "address"
        }
      ],
      "name": "grantRole",
      "outputs": [],
      "stateMutability": "nonpayable",
      "type": "function"
    },
    {
      "inputs": [
        {
          "internalType": "bytes32",
          "name": "proposalId",
          "type": "bytes32"
        },
        {
          "internalType": "address",
          "name": "leader",
          "type": "address"
        }
      ],
      "name": "hasApproved",
      "outputs": [
        {
          "internalType": "bool",
          "name": "",
          "type": "bool"
        }
      ],
      "stateMutability": "view",
      "type": "function"
    },
    {
      "inputs": [
        {
          "internalType": "bytes32",
          "name": "role",
          "type": "bytes32"
        },
        {
          "internalType": "address",
          "name": "account",
          "type": "address"
        }
      ],
      "name": "hasRole",
      "outputs": [
        {
          "internalType": "bool",
          "name": "",
          "type": "bool"
        }
      ],
      "stateMutability": "view",
      "type": "function"
    },
    {
      "inputs": [],
      "name": "memberCount",
      "outputs": [
        {
          "internalType": "uint256",
          "name": "",
          "type": "uint256"
        }
      ],
      "stateMutability": "view",
      "type": "function"
    },
    {
      "inputs": [
        {
          "internalType": "uint256",
          "name": "",
          "type": "uint256"
        }
      ],
      "name": "members",
      "outputs": [
        {
          "internalType": "address",
          "name": "",
          "type": "address"
        }
      ],
      "stateMutability": "view",
      "type": "function"
    },
    {
      "inputs": [],
      "name": "pause",
      "outputs": [],
      "stateMutability": "nonpayable",
      "type": "function"
    },
    {
      "inputs": [],
      "name": "paused",
      "outputs": [
        {
          "internalType": "bool",
          "name": "",
          "type": "bool"
        }
      ],
      "stateMutability": "view",
      "type": "function"
    },
    {
      "inputs": [],
      "name": "proposalCount",
      "outputs": [
        {
          "internalType": "uint256",
          "name": "",
          "type": "uint256"
        }
      ],
      "stateMutability": "view",
      "type": "function"
    },
    {
      "inputs": [
        {
          "internalType": "uint256",
          "name": "",
          "type": "uint256"
        }
      ],
      "name": "proposalIds",
      "outputs": [
        {
          "internalType": "bytes32",
          "name": "",
          "type": "bytes32"
        }
      ],
      "stateMutability": "view",
      "type": "function"
    },
    {
      "inputs": [
        {
          "internalType": "address",
          "name": "borrower",
          "type": "address"
        },
        {
          "internalType": "uint256",
          "name": "amountPaise",
          "type": "uint256"
        },
        {
          "internalType": "uint256",
          "name": "tenureMonths",
          "type": "uint256"
        }
      ],
      "name": "proposeLoan",
      "outputs": [
        {
          "internalType": "bytes32",
          "name": "proposalId",
          "type": "bytes32"
        }
      ],
      "stateMutability": "nonpayable",
      "type": "function"
    },
    {
      "inputs": [],
      "name": "quorumThreshold",
      "outputs": [
        {
          "internalType": "uint256",
          "name": "",
          "type": "uint256"
        }
      ],
      "stateMutability": "view",
      "type": "function"
    },
    {
      "inputs": [
        {
          "internalType": "address",
          "name": "member",
          "type": "address"
        }
      ],
      "name": "removeMember",
      "outputs": [],
      "stateMutability": "nonpayable",
      "type": "function"
    },
    {
      "inputs": [
        {
          "internalType": "bytes32",
          "name": "role",
          "type": "bytes32"
        },
        {
          "internalType": "address",
          "name": "callerConfirmation",
          "type": "address"
        }
      ],
      "name": "renounceRole",
      "outputs": [],
      "stateMutability": "nonpayable",
      "type": "function"
    },
    {
      "inputs": [
        {
          "internalType": "bytes32",
          "name": "role",
          "type": "bytes32"
        },
        {
          "internalType": "address",
          "name": "account",
          "type": "address"
        }
      ],
      "name": "revokeRole",
      "outputs": [],
      "stateMutability": "nonpayable",
      "type": "function"
    },
    {
      "inputs": [
        {
          "internalType": "uint256",
          "name": "newQuorum",
          "type": "uint256"
        }
      ],
      "name": "setQuorum",
      "outputs": [],
      "stateMutability": "nonpayable",
      "type": "function"
    },
    {
      "inputs": [],
      "name": "shgName",
      "outputs": [
        {
          "internalType": "string",
          "name": "",
          "type": "string"
        }
      ],
      "stateMutability": "view",
      "type": "function"
    },
    {
      "inputs": [
        {
          "internalType": "bytes4",
          "name": "interfaceId",
          "type": "bytes4"
        }
      ],
      "name": "supportsInterface",
      "outputs": [
        {
          "internalType": "bool",
          "name": "",
          "type": "bool"
        }
      ],
      "stateMutability": "view",
      "type": "function"
    },
    {
      "inputs": [],
      "name": "unpause",
      "outputs": [],
      "stateMutability": "nonpayable",
      "type": "function"
    }
  ],
  "bytecode": "0x60806040523480156200001157600080fd5b5060405162001b8e38038062001b8e8339810160408190526200003491620003c9565b60017f9b779b17422d0df92223018b32b4d1fa46e071723d6817e2486d003becc55f0055835183118062000066575082155b156200009c57835160405163158589c560e11b815262000093918591600401918252602082015260400190565b60405180910390fd5b6002620000aa838262000557565b5082600381905550620000e46000801b85600081518110620000d057620000d062000623565b60200260200101516200022760201b60201c565b50620001117f25cf2b509f2a7f322675b2a5322b182f44ad2c03ac941a0af17c9b178f5d5d5f8262000227565b5060005b84518110156200021757620001597fa870f1a91ab66a18174ae285449a007bea36a28441e5b44a847deb90f83e86eb868381518110620000d057620000d062000623565b50600485828151811062000171576200017162000623565b60209081029190910181015182546001810184556000938452919092200180546001600160a01b0319166001600160a01b039092169190911790558451859082908110620001c357620001c362000623565b60200260200101516001600160a01b03167fede8eed4383e9241982619b94dd83e488b274cced0fd07b8c0092a393defd52f426040516200020691815260200190565b60405180910390a260010162000115565b5050915160055550620006399050565b6000828152602081815260408083206001600160a01b038516845290915281205460ff16620002cc576000838152602081815260408083206001600160a01b03861684529091529020805460ff19166001179055620002833390565b6001600160a01b0316826001600160a01b0316847f2f8788117e7eff1d82e926ec794901d17c78024a50270940304540a733656f0d60405160405180910390a4506001620002d0565b5060005b92915050565b634e487b7160e01b600052604160045260246000fd5b604051601f8201601f191681016001600160401b0381118282101715620003175762000317620002d6565b604052919050565b80516001600160a01b03811681146200033757600080fd5b919050565b600082601f8301126200034e57600080fd5b81516001600160401b038111156200036a576200036a620002d6565b602062000380601f8301601f19168201620002ec565b82815285828487010111156200039557600080fd5b60005b83811015620003b557858101830151828201840152820162000398565b506000928101909101919091529392505050565b60008060008060808587031215620003e057600080fd5b84516001600160401b0380821115620003f857600080fd5b818701915087601f8301126200040d57600080fd5b8151602082821115620004245762000424620002d6565b8160051b62000435828201620002ec565b928352848101820192828101908c8511156200045057600080fd5b958301955b84871015620004795762000469876200031f565b8252958301959083019062000455565b928b015160408c0151939a509850919450505050808211156200049b57600080fd5b50620004aa878288016200033c565b925050620004bb606086016200031f565b905092959194509250565b600181811c90821680620004db57607f821691505b602082108103620004fc57634e487b7160e01b600052602260045260246000fd5b50919050565b601f82111562000552576000816000526020600020601f850160051c810160208610156200052d5750805b601f850160051c820191505b818110156200054e5782815560010162000539565b5050505b505050565b81516001600160401b03811115620005735762000573620002d6565b6200058b81620005848454620004c6565b8462000502565b602080601f831160018114620005c35760008415620005aa5750858301515b600019600386901b1c1916600185901b1785556200054e565b600085815260208120601f198616915b82811015620005f457888601518255948401946001909101908401620005d3565b5085821015620006135787850151600019600388901b60f8161c191681555b5050505050600190811b01905550565b634e487b7160e01b600052603260045260246000fd5b61154580620006496000396000f3fe608060405234801561001057600080fd5b50600436106101c45760003560e01c80638456cb59116100f9578063bbfe6e9511610097578063cca810b411610071578063cca810b4146103dd578063d2c7ff1d146103f0578063d547741f14610405578063da35c6641461041857600080fd5b8063bbfe6e95146103a4578063c1ba4e59146103b7578063ca6d56dc146103ca57600080fd5b80639b644a23116100d35780639b644a231461035f5780639eab525314610372578063a217fddf14610387578063a2e4aff01461038f57600080fd5b80638456cb591461032f57806391d148541461033757806392c2becc1461034a57600080fd5b806336568abe11610166578063430694cf11610140578063430694cf146102d05780635c975abb146102f05780635daf08ca146102fb5780637b7a91dd1461032657600080fd5b806336568abe146102a257806337376ca8146102b55780633f4ba83a146102c857600080fd5b80631c72f477116101a25780631c72f4771461021d57806323cdc3f114610230578063248a9ca31461026c5780632f2ff15d1461028f57600080fd5b806301ffc9a7146101c95780630b1ca49a146101f157806311aee38014610206575b600080fd5b6101dc6101d73660046111d5565b610420565b60405190151581526020015b60405180910390f35b6102046101ff366004611222565b610457565b005b61020f60055481565b6040519081526020016101e8565b61020f61022b36600461123d565b61055d565b6101dc61023e366004611270565b60008281526006602081815260408084206001600160a01b0386168552909201905290205460ff1692915050565b61020f61027a36600461129c565b60009081526020819052604090206001015490565b61020461029d366004611270565b6106db565b6102046102b0366004611270565b610706565b6102046102c336600461129c565b61073e565b610204610803565b6102e36102de36600461129c565b610819565b6040516101e891906112cb565b60015460ff166101dc565b61030e61030936600461129c565b6108d6565b6040516001600160a01b0390911681526020016101e8565b61020f60035481565b610204610900565b6101dc610345366004611270565b610913565b61020f6000805160206114d083398151915281565b61020f61036d36600461129c565b61093c565b61037a61095d565b6040516101e8919061133f565b61020f600081565b61020f6000805160206114f083398151915281565b6102046103b236600461129c565b6109bf565b6102046103c536600461129c565b610b24565b6102046103d8366004611222565b610bbf565b6102046103eb36600461129c565b610cc9565b6103f8610d94565b6040516101e8919061138c565b610204610413366004611270565b610e22565b60075461020f565b60006001600160e01b03198216637965db0b60e01b148061045157506301ffc9a760e01b6001600160e01b03198316145b92915050565b6000805160206114d083398151915261046f81610e47565b6104876000805160206114f083398151915283610913565b6104b4576040516305b5850b60e21b81526001600160a01b03831660048201526024015b60405180910390fd5b6001600554116104d757604051631e7a69c760e11b815260040160405180910390fd5b6104ef6000805160206114f083398151915283610e51565b506104f982610ec4565b60058054906000610509836113f1565b9190505550816001600160a01b03167f3ac963493df564de734d98633f1145d21512e282ba4c02d3c1011119bf7f28624260405161054991815260200190565b60405180910390a2610559610fc0565b5050565b60006000805160206114f083398151915261057781610e47565b61057f61103c565b836000036105a057604051631f2a200560e01b815260040160405180910390fd5b826000036105c1576040516310ea797760e21b815260040160405180910390fd5b6040516bffffffffffffffffffffffff19606087811b82166020840152603483018790526054830186905242607484015233901b16609482015260a80160408051601f19818403018152828252805160209182012060008181526006835283812080546001600160a01b038c166001600160a01b03199091168117825560018083018c9055600283018b905560048301805460ff1916905542600584018190556007805492830181559094527fa66cc928b5edb82af9bd49922954155ab7b0942694bea4ce44661d9a8736c688018490558a8752938601899052938501529450909184907fe472ccb43567ead18e0a5ab5fc18ea662086722b995fdb07acbfa69a0870f8909060600160405180910390a350509392505050565b6000828152602081905260409020600101546106f681610e47565b6107008383611062565b50505050565b6001600160a01b038116331461072f5760405163334bd91960e11b815260040160405180910390fd5b6107398282610e51565b505050565b600061074981610e47565b600082815260066020526040812090600482015460ff166003811115610771576107716112b5565b1415801561079857506001600482015460ff166003811115610795576107956112b5565b14155b156107b95760405163673b9f7960e01b8152600481018490526024016104ab565b60048101805460ff1916600317905560405142815283907ff233010736b479389e8407578c649b70dcb06774c4d29149e88ed7016c8adb0f906020015b60405180910390a2505050565b600061080e81610e47565b6108166110ec565b50565b6040805160e081018252600080825260208201819052918101829052606081018290526080810182905260a0810182905260c0810191909152600082815260066020908152604091829020825160e08101845285815281546001600160a01b031692810192909252600181015492820192909252600282015460608201526003808301546080830152600483015460a083019160ff909116908111156108c1576108c16112b5565b81526020018260050154815250915050919050565b600481815481106108e657600080fd5b6000918252602090912001546001600160a01b0316905081565b600061090b81610e47565b61081661113e565b6000918252602082815260408084206001600160a01b0393909316845291905290205460ff1690565b6007818154811061094c57600080fd5b600091825260209091200154905081565b606060048054806020026020016040519081016040528092919081815260200182805480156109b557602002820191906000526020600020905b81546001600160a01b03168152600190910190602001808311610997575b5050505050905090565b6000805160206114f08339815191526109d781610e47565b6109df61103c565b600082815260066020526040812090600482015460ff166003811115610a0757610a076112b5565b14610a285760405163673b9f7960e01b8152600481018490526024016104ab565b33600090815260068201602052604090205460ff1615610a645760405163a72db78760e01b8152600481018490523360248201526044016104ab565b3360009081526006820160205260408120805460ff1916600117905560038201805491610a9083611408565b9091555050600381015460408051918252426020830152339185917fe895d70c3b87b1a0e588b36f9e205812d1add9e1922b742f701f9f1ede9c4518910160405180910390a36003548160030154106107395760048101805460ff1916600117905560405142815283907f410613247e15ac57cbe0cc3a561977b2e5f575bbb9c14bda555892a5c6cd45ab906020016107f6565b6000610b2f81610e47565b811580610b3d575060055482115b15610b695760055460405163158589c560e11b81526104ab918491600401918252602082015260400190565b6003805490839055600554604080518381526020810186905280820192909252426060830152517f129596072d877b7b622388d822109317fe76714a3b8c79bdbcd6f1b98d04e9699181900360800190a1505050565b6000805160206114d0833981519152610bd781610e47565b610bef6000805160206114f083398151915283610913565b15610c1857604051630268f92960e01b81526001600160a01b03831660048201526024016104ab565b610c306000805160206114f083398151915283611062565b506004805460018101825560009182527f8a35acfbc15ff81a39ae7d344fd709f28e8600b4aa8c65c6b64bfe7fe36bd19b0180546001600160a01b0319166001600160a01b0385161790556005805491610c8983611408565b9190505550816001600160a01b03167fede8eed4383e9241982619b94dd83e488b274cced0fd07b8c0092a393defd52f4260405161054991815260200190565b6000805160206114d0833981519152610ce181610e47565b610ce961103c565b60008281526006602052604090206001600482015460ff166003811115610d1257610d126112b5565b14610d335760405163032523ab60e21b8152600481018490526024016104ab565b60048101805460ff1916600217905580546001820154604080519182524260208301526001600160a01b039092169185917fe7f058d766bcf692b36a916e42738033024c2102a616c0d98bbd06ba962e38bd910160405180910390a3505050565b60028054610da190611421565b80601f0160208091040260200160405190810160405280929190818152602001828054610dcd90611421565b8015610e1a5780601f10610def57610100808354040283529160200191610e1a565b820191906000526020600020905b815481529060010190602001808311610dfd57829003601f168201915b505050505081565b600082815260208190526040902060010154610e3d81610e47565b6107008383610e51565b6108168133611179565b6000610e5d8383610913565b15610ebc576000838152602081815260408083206001600160a01b0386168085529252808320805460ff1916905551339286917ff6391f5c32d9c69d2a47ea670b442974b53935d1edc7fd64eb21e047a839171b9190a4506001610451565b506000610451565b60045460005b8181101561073957826001600160a01b031660048281548110610eef57610eef61145b565b6000918252602090912001546001600160a01b031603610fb8576004610f16600184611471565b81548110610f2657610f2661145b565b600091825260209091200154600480546001600160a01b039092169183908110610f5257610f5261145b565b9060005260206000200160006101000a8154816001600160a01b0302191690836001600160a01b031602179055506004805480610f9157610f91611484565b600082815260209020810160001990810180546001600160a01b0319169055019055505050565b600101610eca565b60006002600554610fd1919061149a565b610fdc9060016114bc565b90506003548114610816576003805490829055600554604080518381526020810185905280820192909252426060830152517f129596072d877b7b622388d822109317fe76714a3b8c79bdbcd6f1b98d04e9699181900360800190a15050565b60015460ff16156110605760405163d93c066560e01b815260040160405180910390fd5b565b600061106e8383610913565b610ebc576000838152602081815260408083206001600160a01b03861684529091529020805460ff191660011790556110a43390565b6001600160a01b0316826001600160a01b0316847f2f8788117e7eff1d82e926ec794901d17c78024a50270940304540a733656f0d60405160405180910390a4506001610451565b6110f46111b2565b6001805460ff191690557f5db9ee0a495bf2e6ff9c91a7834c1ba4fdd244a5e8aa4e537bd38aeae4b073aa335b6040516001600160a01b03909116815260200160405180910390a1565b61114661103c565b6001805460ff1916811790557f62e78cea01bee320cd4e420270b5ea74000d11b0c9f74754ebdbfc544b05a25833611121565b6111838282610913565b6105595760405163e2517d3f60e01b81526001600160a01b0382166004820152602481018390526044016104ab565b60015460ff1661106057604051638dfc202b60e01b815260040160405180910390fd5b6000602082840312156111e757600080fd5b81356001600160e01b0319811681146111ff57600080fd5b9392505050565b80356001600160a01b038116811461121d57600080fd5b919050565b60006020828403121561123457600080fd5b6111ff82611206565b60008060006060848603121561125257600080fd5b61125b84611206565b95602085013595506040909401359392505050565b6000806040838503121561128357600080fd5b8235915061129360208401611206565b90509250929050565b6000602082840312156112ae57600080fd5b5035919050565b634e487b7160e01b600052602160045260246000fd5b815181526020808301516001600160a01b03169082015260408083015190820152606080830151908201526080808301519082015260a082015160e08201906004811061132857634e487b7160e01b600052602160045260246000fd5b8060a08401525060c083015160c083015292915050565b6020808252825182820181905260009190848201906040850190845b818110156113805783516001600160a01b03168352928401929184019160010161135b565b50909695505050505050565b60006020808352835180602085015260005b818110156113ba5785810183015185820160400152820161139e565b506000604082860101526040601f19601f8301168501019250505092915050565b634e487b7160e01b600052601160045260246000fd5b600081611400576114006113db565b506000190190565b60006001820161141a5761141a6113db565b5060010190565b600181811c9082168061143557607f821691505b60208210810361145557634e487b7160e01b600052602260045260246000fd5b50919050565b634e487b7160e01b600052603260045260246000fd5b81810381811115610451576104516113db565b634e487b7160e01b600052603160045260246000fd5b6000826114b757634e487b7160e01b600052601260045260246000fd5b500490565b80820180821115610451576104516113db56fe25cf2b509f2a7f322675b2a5322b182f44ad2c03ac941a0af17c9b178f5d5d5fa870f1a91ab66a18174ae285449a007bea36a28441e5b44a847deb90f83e86eba264697066735822122056649ce1f945429c6e87374ee9c389fd3b742bf50cb4d56dcb01bfef7e542d6b64736f6c63430008180033",
  "linkReferences": {},
  "deployedLinkReferences": {}
}